:020000040800F2
:100000000000022001210008FD0C0008FF0C000880
:10001000010D0008030D0008050D00080000000098
:10002000000000000000000000000000070D0008B4
:10003000090D0008000000000B0D00080D0D000860
:1000400051210008512100085121000851210008C8
:100050005121000851210008190D00085121000804
:1000600051210008512100085121000851210008A8
:100070005121000851210008512100085121000898
:100080005121000851210008512100085121000888
:100090005121000851210008512100085121000878
:1000A0005121000851210008512100085121000868
:1000B0005121000851210008250D00085121000898
:1000C0005121000851210008512100085121000848
:1000D0005121000851210008512100085121000838
:1000E0005121000851210008512100085121000828
:1000F0005121000851210008512100085121000818
:100100005121000851210008512100085121000807
:1001100051210008512100085121000851210008F7
:1001200051210008512100085121000851210008E7
:1001300051210008512100085121000851210008D7
:1001400051210008512100085121000851210008C7
:1001500051210008512100085121000851210008B7
:1001600051210008512100085121000851210008A7
:100170005121000851210008512100080000000011
:08018000512100085121000883
:10018800044B05481B1A062B02D9044B03B1184728
:10019800704700BF07000020040000200000000096
:1001A80005490648091A891001EBD171491002D096
:1001B800034B03B1184770470400002004000020D7
:1001C8000000000010B5064C237843B9FFF7D8FFAC
:1001D800044B13B10448AFF300800123237010BD12
:1001E80004000020000000005421000808B5084B56
:1001F8001BB108490848AFF300800848036813B9E1
:10020800BDE80840CCE7064B002BF9D09847F7E744
:10021800000000000800002054210008040000200D
:100228000000000070B50F4E0F4D761BB61018BFBA
:10023800002405D0013455F8043B9847A642F9D16B
:100248000A4E0B4D761B01F081FFB61018BF002433
:1002580006D0013455F8043B9847A642F9D170BD41
:1002680070BD00BFA8220008A8220008AC22000820
:10027800A822000853B94AB9002908BF00281CBFA2
:100288004FF0FF314FF0FF3000F07AB9ADF1080CB4
:100298006DE904CE00F006F8DDF804E0DDE902239C
:1002A80004B070472DE9F0478C460D460446089E79
:1002B800002B51D18A4217466DD9B2FA82FEBEF19F
:1002C800000F0BD0CEF1200C01FA0EF520FA0CFC31
:1002D80002FA0EF74CEA050C00FA0EF44FEA174A38
:1002E800250CBCFBFAF81FFA87F90AFB18CC45EA7B
:1002F8000C4508FB09F3AB420AD9ED1908F1FF32A6
:1003080080F02381AB4240F22081A8F102083D44ED
:10031800ED1AA4B2B5FBFAF00AFB105544EA0544FD
:1003280000FB09F9A14509D9E41900F1FF3380F070
:100338000A81A14540F2078102383C44A4EB090434
:1003480040EA08400021002E61D024FA0EF4002370
:1003580034607360BDE8F0878B4207D9002E54D013
:10036800002186E821000846BDE8F087B3FA83F14A
:10037800002940F08E80AB4202D3824200F2FA801C
:10038800841A65EB03050120AC46002E3FD086E8B1
:100398001010BDE8F08712B90127B7FBF2F7B7FADA
:1003A80087FEBEF1000F34D1EB1B3A0C1FFA87FC15
:1003B8000121B3FBF2F8250C02FB183345EA03458B
:1003C8000CFB08F3AB4207D9ED1908F1FF3002D254
:1003D800AB4200F2D1808046ED1AA3B2B5FBF2F031
:1003E80002FB105543EA05440CFB00FCA44507D961
:1003F800E41900F1FF3302D2A44500F2B880184690
:10040800A4EB0C0440EA08409DE731463046BDE8BD
:10041800F087CEF1200405FA0EF307FA0EF720FA5A
:1004280004F83A0C25FA04F448EA0308B4FBF2F19C
:100438004FEA184502FB11441FFA87FC45EA0445B8
:1004480001FB0CF3AB4200FA0EF409D9ED1901F1E6
:10045800FF3080F08A80AB4240F2878002393D4409
:10046800EB1A1FFA88F5B3FBF2F002FB103345EAEA
:10047800034500FB0CF3AB4207D9ED1900F1FF3837
:100488006FD2AB426DD902383D44EB1A40EA0141C4
:100498008FE7C1F1200722FA07F88B4005FA01F42B
:1004A80048EA030320FA07FE4FEA134CFD404EEAE0
:1004B800040EB5FBFCF94FEA1E440CFB19551FFA54
:1004C80083F844EA054509FB08F4AC4202FA01F254
:1004D80000FA01FA08D9ED1809F1FF3043D2AC420D
:1004E80041D9A9F102091D442D1B1FFA8EFEB5FB47
:1004F800FCF00CFB10554EEA054400FB08F8A0453B
:1005080007D9E41800F1FF3529D2A04527D90238C8
:100518001C4440EA0940A4EB0804A0FB02894C45AE
:10052800C6464D4615D312D056B1BAEB0E0364EB4E
:10053800050404FA07F7CB401F43CC4037607460CA
:100548000021BDE8F0871846F8E69046E0E6C24587
:10055800EAD2B8EB020E69EB03050138E4E7284656
:10056800D7E7404691E78146BEE7014678E702387B
:100578003C4445E7084608E7A8F102083D442BE754
:10058800704700BF002800F0208230B583B00446D1
:1005980003680F2B3DD8236813F0010F4CD0636814
:1005A8004BB1B3F5803F06D0B3F5A02F03D0FD21A2
:1005B800A84801F0E1FCA84B9B6803F00C03042B4E
:1005C80031D0A54B9B6803F00C03082B26D0636839
:1005D800B3F5803F5FD0B3F5A02F62D09E4B1A6869
:1005E80022F480321A601A6822F480221A60636842
:1005F800002B60D001F07AFD0546974B1B6813F479
:10060800003F19D101F072FD401B6428F5D9032081
:10061800E0E1F8218F4801F0AFFCBCE78E4B5B6846
:1006280013F4800FD3D08C4B1B6813F4003F03D016
:100638006368002B00F0CB81236813F0020F66D0AB
:10064800E368012B04D940F22F11824801F094FC91
:1006580023691F2B3ED8804B9B6813F00C0F44D0A6
:100668007D4B9B6803F00C03082B39D0E368002B03
:1006780076D00122794B1A6001F038FD0546764B99
:100688001B6813F0020F62D101F030FD401B0228F5
:10069800F5D903209EE1704A136843F48033136050
:1006A800A5E76D4B1A6842F480221A601A6842F472
:1006B80080321A609BE701F019FD0546664B1B68FE
:1006C80013F4003FB8D001F011FD401B6428F5D9A0
:1006D80003207FE14FF498715E4801F04DFCBAE7C2
:1006E8005D4B5B6813F4800FC0D15B4B1B6813F044
:1006F800020F04D0E368012B01D001206AE1564AB9
:10070800136823F0F803216943EAC10313602368DF
:1007180013F0080F48D06369012B04D94FF4B8715E
:100728004C4801F029FC636963B301224C4B1A6001
:1007380001F0DCFC0546484B5B6F13F0020F33D128
:1007480001F0D4FC401B0228F5D9032042E1424ABB
:10075800136823F0F803216943EAC1031360D6E75D
:1007680000223E4B1A6001F0C1FC05463A4B1B685B
:1007780013F0020FCBD001F0B9FC401B0228F5D9C9
:10078800032027E10022364B1A6001F0AFFC054632
:10079800314B5B6F13F0020F06D001F0A7FC401B32
:1007A8000228F5D9032015E1236813F0040F76D049
:1007B800A368012B06D9052B04D04FF4CD71254829
:1007C80001F0DAFB00230193234B1A6C42F08052AC
:1007D8001A641B6C03F080530193019B214A136830
:1007E80043F48073136001F081FC05461D4B1B68C0
:1007F80013F4807F06D101F079FC401B0228F5D95B
:100808000320E7E0A368012B1DD0052B2CD0124B49
:100818001A6F22F001021A671A6F22F004021A678F
:10082800A3685BB301F062FC05460B4B1B6F13F02A
:10083800020F34D101F05AFC401B41F28833984230
:10084800F3D90320C6E0044A136F43F0010313678A
:10085800E6E700BF6C21000800380240000047426C
:10086800800E4742007000405C4B1A6F42F0040251
:100878001A671A6F42F001021A67D1E701F036FCD5
:100888000546564B1B6F13F0020F08D001F02EFCE3
:10089800401B41F288339842F3D903209AE0A369B8
:1008A800022B1ED8A369002B00F093804B4A926854
:1008B80002F00C02082A00F08F80022B17D00022C9
:1008C800474B1A6001F012FC0446444B1B6813F0B6
:1008D800007F78D001F00AFC001B0228F5D903201C
:1008E80078E040F2CF113F4801F046FBDAE7E369D0
:1008F8003BB1B3F5800F04D04FF4EC71394801F0E7
:100908003BFB236A3F2B28D8636A323BB3F5BF7F92
:1009180029D8A36A022B0AD0042B08D0062B06D0AC
:10092800082B04D040F2DB112E4801F025FBE36AC6
:10093800023B0D2B1DD80022294B1A6001F0D6FB73
:100948000546264B1B6813F0007F18D001F0CEFB3C
:10095800401B0228F5D903203CE040F2D911214878
:1009680001F00AFBD0E74FF4ED711E4801F004FBDB
:10097800CFE74FF4EE711B4801F0FEFADBE7E369BD
:10098800226A1343626A43EA8213A26A5208013A4E
:1009980043EA0243E26A43EA0263104A53600122CF
:1009A8000F4B1A6001F0A2FB04460C4B1B6813F0B6
:1009B800007F06D101F09AFB001B0228F5D903201D
:1009C80008E0002006E0002004E001207047012034
:1009D80000E0002003B030BD0120FBE700380240F2
:1009E800600047426C210008F8B5254B9B6803F06E
:1009F8000C03042B41D0082B01D02248F8BD204B12
:100A08005A6802F03F025B6813F4800F12D01C4B47
:100A18005968C1F3881100231B48A1FB0001FFF7A7
:100A280029FC174B5B68C3F3014301335B00B0FB40
:100A3800F3F0F8BD124B5B68C3F388131E4600271A
:100A48005C010025E41A65EB0705A90141EA9461F8
:100A5800A001001B61EB0501CB0043EA5073C40001
:100A6800A01943EB07018B0243EA90538402204606
:100A780019460023FFF7FEFBD3E70348F8BD00BF84
:100A8800003802400024F40040787D01002800F07E
:100A9800F68070B504460D460368013B0E2B11D84D
:100AA800072D15D8784B1B6803F00F039D4215D905
:100AB800EBB2754A1370136803F00F039D420DD013
:100AC800012070BD4FF41071704801F055FAE7E746
:100AD80040F241216D4801F04FFAE3E7236813F033
:100AE800020F2ED013F0040F04D0694A936843F420
:100AF800E0539360236813F0080F04D0644A9368A6
:100B080043F460439360A368A3B1802B12D0902B69
:100B180010D0A02B0ED0B02B0CD0C02B0AD0D02BCD
:100B280008D0E02B06D0F02B04D04FF419715748A9
:100B380001F022FA564A936823F0F003A1680B43A8
:100B48009360236813F0010F3CD06368032B25D80A
:100B58006368012B28D09A1E012A2CD94C4A1268A6
:100B680012F0020F00F08D8049498A6822F00302D2
:100B780013438B6001F0BAFA0646454B9B6803F0B5
:100B88000C036268B3EB820F1CD001F0AFFA801B34
:100B980041F288339842F0D9032070BD40F26B21AE
:100BA8003A4801F0E9F9D3E7394A126812F4003FEC
:100BB800DAD1012070BD364A126812F0007FD3D115
:100BC800012070BD304B1B6803F00F039D4209D212
:100BD800EAB22D4B1A701B6803F00F039D4201D037
:100BE800012070BD236813F0040F19D0E36883B1A6
:100BF800B3F5805F0DD0B3F5A05F0AD0B3F5C05F41
:100C080007D0B3F5E05F04D040F2A9211F4801F0F6
:100C1800B3F91F4A936823F4E053E1680B439360E8
:100C2800236813F0080F1AD0236983B1B3F5805FE6
:100C38000DD0B3F5A05F0AD0B3F5C05F07D0B3F508
:100C4800E05F04D04FF42C71104801F095F9104A78
:100C5800936823F46043216943EAC1039360FFF773
:100C6800C3FE0B4B9B68C3F303130A4AD35CD840FB
:100C7800094B1860002001F001FA002070BD012026
:100C88007047012070BD00BF003C02406C21000885
:100C980000380240A421000800000020014B186819
:100CA800704700BF000000200F49D1F8883043F496
:100CB8007003C1F888300D4B1A6842F001021A60BF
:100CC800002098601A6822F0847222F480321A6038
:100CD800074A5A601A6822F480221A60D8604FF0D6
:100CE80000638B60704700BF00ED00E000380240F1
:100CF800103000247047FEE7FEE7FEE7FEE7704786
:100D08007047704708B501F0E9F900F0E8FD08BD43
:100D180008B5012000F0DCFF08BD000008B5024856
:100D280000F014F908BD00BF3800002030B4046A90
:100D380024F0100404628469056A24F4407444EAC7
:100D4800022222F470421B039BB21A4325F0A0052D
:100D5800090101F0A0010D438261056230BC7047B2
:100D680030B4046A24F480740462C469056A24F007
:100D78000304224322F0F0021B01DBB21A4325F4DC
:100D88002065090201F420610D43C261056230BC8F
:100D9800704730B4046A24F480540462C469056A54
:100DA80024F4407444EA022222F470421B039BB2EA
:100DB8001A4325F42045090301F420410D43C2617B
:100DC800056230BC7047000090F83830012B00F005
:100DD800B28010B50446012380F838300C2900F29F
:100DE800A880DFE801F007A6A6A641A6A6A668A6E1
:100DF800A6A687000368514A93422FD0B3F1804FCB
:100E08002CD0A2F57C42934228D002F5806293420E
:100E180024D002F58062934220D002F578429342B2
:100E28001CD002F57052934218D002F580629342AA
:100E380014D002F58062934210D0A2F59832934202
:100E48000CD002F58062934208D002F5806293428A
:100E580004D041F284013A4801F08EF82368586BB7
:100E6800002384F8383010BD0368344A93421FD0F9
:100E7800B3F1804F1CD0A2F57C42934218D002F502
:100E88008062934214D002F58062934210D002F53A
:100E9800784293420CD002F57052934208D0A2F5E2
:100EA8009432934204D041F28E01254801F064F84F
:100EB8002368986BD4E70368204A934217D0B3F1AC
:100EC800804F14D0A2F57C42934210D002F5806284
:100ED80093420CD002F58062934208D002F5784222
:100EE800934204D041F29901154801F045F823686E
:100EF800D86BB5E70368114A934217D0B3F1804F16
:100F080014D0A2F57C42934210D002F5806293423D
:100F18000CD002F58062934208D002F578429342E1
:100F280004D041F2A401064801F026F82368186CA1
:100F380096E7002094E70220704700BF00000140B8
:100F4800B4210008704770477047704710B50446D1
:100F580003681A6912F0020F11D0DA6812F0020F52
:100F68000DD06FF002021A610123037603689B69B2
:100F780013F0030F70D000F007FF002323762368D7
:100F88001A6912F0040F12D0DA6812F0040F0ED0AA
:100F98006FF004021A610223237623689B6913F415
:100FA800407F5FD0204600F0EFFE002323762368C1
:100FB8001A6912F0080F12D0DA6812F0080F0ED072
:100FC8006FF008021A61042323762368DB6913F0A3
:100FD800030F4ED0204600F0D7FE00232376236867
:100FE8001A6912F0100F12D0DA6812F0100F0ED032
:100FF8006FF010021A61082323762368DB6913F463
:10100800407F3DD0204600F0BFFE002323762368B2
:101018001A6912F0010F03D0DA6812F0010F36D105
:1010280023681A6912F0800F03D0DA6812F0800F73
:1010380034D123681A6912F0400F03D0DA6812F02D
:10104800400F32D123681A6912F0200F03D0DA68F2
:1010580012F0200F30D110BDFFF775FF2046FFF7C3
:1010680073FF8AE72046FFF76EFF2046FFF76CFF05
:101078009BE72046FFF767FF2046FFF765FFACE7D1
:101088002046FFF760FF2046FFF75EFFBDE76FF0E1
:1010980001021A612046FFF755FFC1E76FF0800291
:1010A8001A61204600F0E9FFC3E76FF040021A61B9
:1010B8002046FFF74AFFC5E76FF020021A61204675
:1010C80000F0DAFFC7E700000368454A90424AD0BB
:1010D800B0F1804F49D0A2F57C42904247D002F54A
:1010E8008062904245D002F58062904243D002F57A
:1010F8007842904235D000221AB123F070034A6832
:101108001343374A90423AD0B0F1804F50D0A2F5FD
:101118007C4290424ED002F5806290424CD002F55B
:10112800806290424AD002F57842904248D002F557
:101138007052904246D002F58062904244D002F547
:101148008062904242D0A2F59832904240D002F597
:10115800806290423ED002F5806290420DD000221B
:101168000EE00122C8E70122C6E70122C4E70122F6
:10117800C2E70122C0E70122BEE7012200E0012206
:101188001AB123F44073CA68134303608B68C362BF
:101198000B688362124B984220D003F58063984213
:1011A8001AD000230BB10B69036301234361704715
:1011B8000122E5E70122E3E70122E1E70122DFE777
:1011C8000122DDE70122DBE70122D9E70122D7E787
:1011D8000122D5E70122D3E70123E3E70123E1E771
:1011E8000000014000286ED010B504460368374A55
:1011F800934237D0B3F1804F34D0A2F57C4293426A
:1012080030D002F5806293422CD002F5806293427E
:1012180028D002F58062934224D002F5806293427E
:1012280020D002F5704293421CD002F570529342CE
:1012380018D002F58062934214D002F5806293427E
:1012480010D0A2F5983293420CD002F580629342F6
:1012580008D002F58062934204D040F2F4511C4851
:1012680000F08AFEA36863B1102B0AD0202B08D0A7
:10127800402B06D0602B04D040F2F551144800F002
:101288007BFE236953B1B3F5807F07D0B3F5007FA8
:1012980004D040F2F6510E4800F06EFE94F8393052
:1012A8005BB1022384F83930211D2068FFF70CFF59
:1012B800012384F83930002010BD84F838302046E6
:1012C80000F040FBEDE70120704700BF000001403F
:1012D800B421000870B4046A24F00104046284692B
:1012E800056A234EB04230D0B0F1804F2FD0A6F51A
:1012F8007C46B0422DD006F58066B0422BD006F56C
:101308008066B04229D006F57846B04227D006F567
:101318007056B04225D0A6F59436B04213D00026B8
:101328000EBB24F0030242F0010222F0F0021B017E
:10133800DBB2134325F00A0201F00A01114383616D
:10134800016270BC70470126EAE70126E8E701263A
:10135800E6E70126E4E70126E2E70126E0E70126C1
:10136800DEE70126DCE724F003042243DDE700BFC3
:101378000000014070B504460D46164603688D4AC4
:1013880093422FD0B3F1804F2CD0A2F57C429342E8
:1013980028D002F58062934224D002F580629342FD
:1013A80020D002F5784293421CD002F57052934245
:1013B80018D002F58062934214D002F580629342FD
:1013C80010D0A2F5983293420CD002F58062934275
:1013D80008D002F58062934204D040F6E5317648A1
:1013E80000F0CAFD2B6843B1022B06D00A2B04D0AB
:1013F80040F6E631704800F0BFFD6B68013B022BF8
:1014080055D8AB6853B1042B08D0082B06D00C2B49
:1014180004D040F6E831684800F0AEFDEB680F2BC9
:101428004BD894F83830012B00F0C180012384F8A0
:101438003830022384F83930002E44D0042E53D09B
:10144800082E00F0878023685A4A934217D0B3F1D8
:10145800804F14D0A2F57C42934210D002F58062EE
:1014680093420CD002F58062934208D002F578428C
:10147800934204D04FF442614F4800F07DFDEB6881
:101488006A6829682068FFF784FC2268D36923F416
:101498004063D3612268D369A96843EA0123D36111
:1014A800012384F83930002084F8380070BD40F6F4
:1014B800E731414800F060FDA3E740F6E9313E48D6
:1014C80000F05AFDADE7EB686A6829682068FFF705
:1014D80001FF2268936923F00C03936122689369E2
:1014E800A9680B439361DBE72368324A93421FD014
:1014F800B3F1804F1CD0A2F57C42934218D002F57C
:101508008062934214D002F58062934210D002F5B3
:10151800784293420CD002F57052934208D0A2F55B
:101528009432934204D04FF44061234800F024FDE4
:10153800EB686A6829682068FFF7F8FB22689369F6
:1015480023F44063936122689369A96843EA0123FD
:101558009361A5E72368174A934217D0B3F1804FE8
:1015680014D0A2F57C42934210D002F580629342D7
:101578000CD002F58062934208D002F5784293427B
:1015880004D04FF441610C4800F0F6FCEB686A683F
:1015980029682068FFF7E4FB2268D36923F00C036D
:1015A800D3612268D369A9680B43D36178E7022025
:1015B80070BD00BF00000140B421000870B50446AA
:1015C8000D461646264B98422FD0B0F1804F2CD0AE
:1015D800A3F57C43984228D003F58063984224D031
:1015E80003F58063984220D003F5784398421CD0D5
:1015F80003F57053984218D003F58063984214D0CD
:1016080003F58063984210D0A3F5983398420CD024
:1016180003F58063984208D003F58063984204D0AC
:1016280041F288210F4800F0A7FC65B1042D0AD0CB
:10163800082D08D00C2D06D0182D04D041F2892190
:10164800084800F099FC012303FA05F2236A23EA0B
:1016580002032362236A06FA05F51D43256270BD5D
:1016680000000140B421000838B505460C4603685F
:101678003C4A934234D0B3F1804F31D0A2F57C423A
:1016880093422DD002F58062934229D002F5806200
:10169800934225D002F57842934221D0324A9342B0
:1016A80027D0324A934229D0314A934229D0314A2D
:1016B800934229D0304A93422BD0304A93422BD0C0
:1016C80040F28B612E4800F057FC0C2C2CD8DFE838
:1016D80004F0262B2B2B372B2B2B3D2B2B2B4300AE
:1016E800002CF2D0042CF0D0082CEED00C2CD5D144
:1016F800EBE7002CE9D0042CD3D1E6E7002CE4D0AA
:10170800D2E7002CE1D0D2E7002CDED0042CD1D1D6
:10171800DBE7002CD9D0D0E7002CD6D0D0E72A6858
:10172800D36843F00203D360012221462868FFF7FB
:1017380045FF2A68136843F001031360002038BD91
:101748002A68D36843F00403D360EDE72A68D368B6
:1017580043F00803D360E7E72A68D36843F010032F
:10176800D360E1E70000014000400140004401402F
:101778000048014000180040001C004000200040C4
:10178800B421000810B50446C31E042B0FD80A4A1A
:10179800D36823F4E0631B041B0C240204F4E06404
:1017A800234343F0BF6343F40033D36010BDA22149
:1017B800024800F0E1FBEAE700ED00E0EC21000858
:1017C80070B505460C4616460F2A24D80F2C27D884
:1017D8001A4BDB68C3F30223C3F10702042A28BFAC
:1017E8000422191D062920D9033B012101FA02F21E
:1017F800013A14409C4001FA03F3013B33401C4377
:10180800002D14DB2401E4B205F1604505F56145BE
:1018180085F8004370BDBA21094800F0ADFBD5E753
:10182800BB21074800F0A8FBD2E70023DDE705F05D
:101838000F052401E4B2034B5C5570BD00ED00E0D8
:10184800EC21000814ED00E010B5041E09DB620964
:1018580004F01F04012303FA04F4044B43F8224064
:1018680010BDCE21024800F087FBF0E700E100E060
:10187800EC2100080138B0F1807F0AD2064B58608D
:10188800F021064A82F823100020986007221A6087
:1018980070470120704700BF10E000E000ED00E055
:1018A80010B50446042800D038B9042C0BD0094AD6
:1018B800136823F00403136010BD40F2D9110648E1
:1018C80000F05AFBF1E7034A136843F0040313607E
:1018D80010BD00BF10E000E0EC210008704708B51B
:1018E800FFF7FCFF08BD08B50320FFF74BFF0022F8
:1018F80011466FF00B00FFF763FF002211466FF0EF
:101908000A00FFF75DFF002211466FF00900FFF79C
:1019180057FF002211466FF00400FFF751FF002225
:1019280011466FF00300FFF74BFF002211466FF0DE
:101938000100FFF745FF002211464FF0FF30FFF787
:101948003FFF08BD0268144B9A4200D0704710B59B
:1019580086B00024009403F50C331A6C42F004029C
:101968001A641B6C03F004030093009B4FF480433C
:1019780001930223029303930494059301A9074852
:1019880000F00EF8224621461E20FFF719FF1E2000
:10199800FFF75AFF06B010BD00080040000C0240D7
:1019A8002DE9F04782B080460F46B44B984223D0C9
:1019B80003F5806398421FD003F5806398421BD0DB
:1019C80003F58063984217D003F58063984213D0DB
:1019D80003F5806398420FD003F5806398420BD0DB
:1019E80003F58063984207D003F58063984203D0DB
:1019F800C321A34800F0C0FA3B689AB212B11B0C8D
:101A08001B041BB1C4219E4800F0B6FA7B68012B69
:101A180022D9112B20D0022B1ED0122B1CD0994A70
:101A2800934219D002F58012934215D002F5801224
:101A3800934211D0A2F5F81293420DD002F580120C
:101A4800934209D002F58012934205D0032B03D0AC
:101A5800C5218B4800F090FABB68022B01D80025FD
:101A680075E0C621864800F087FAF8E73B69FBB1C4
:101A7800092B1DD0012B1BD0022B19D0032B17D0FB
:101A8800042B15D0052B13D0062B11D0072B0FD004
:101A9800082B0DD00A2B0BD00B2B09D00C2B07D001
:101AA8000D2B05D00F2B03D0D721754800F064FA11
:101AB800E908083158F8213005F0070292000F2094
:101AC800904023EA0003386900FA02F2134348F809
:101AD80021304CE0EA216A4800F04EFA63E0072121
:101AE80000E00021A1400A430233674941F823205E
:101AF800664B1A686FEA090302EA0301786810F472
:101B0800803F01D049EA0201604A1160526803EA45
:101B18000201786810F4003F01D049EA02015B4AEB
:101B28005160926803EA0201786810F4801F01D0BE
:101B380049EA0201554A9160D2681340796811F464
:101B4800001F01D049EA0203504AD36001350F2D26
:101B580000F290800124AC403B6804EA03094C453C
:101B6800F4D17B68022B81D0122B3FF47FAFD8F8D9
:101B780000304FEA450A032606FA0AF6F6433340D0
:101B88007A6802F0030202FA0AF21343C8F8003036
:101B98007B685A1E012A03D9112B01D0122B16D1AA
:101BA800FB68032B96D8D8F808303340FA6802FA55
:101BB8000AF21343C8F80830D8F8043023EA0404BA
:101BC8007B68C3F30013AB401C43C8F80440D8F843
:101BD8000C301E40BB6803FA0AF31E43C8F80C60B9
:101BE8007B6813F0805FB1D000230193284B5A6CB7
:101BF80042F480425A645B6C03F480430193019B76
:101C0800AB08991C204A52F8212005F003018C00EA
:101C18000F21A14022EA0102184880453FF461AF34
:101C28001C4988451AD001F58061884518D001F50E
:101C38008061884516D001F58061884514D001F58A
:101C48008061884512D001F58061884510D001F582
:101C5800806188453FF443AF082143E7012141E70C
:101C680002213FE703213DE704213BE7052139E74E
:101C7800062137E702B0BDE8F08700BF0000024048
:101C8800242200080000111000380140003C0140E7
:101C9800003802400004024070B5064615460C465E
:101CA80051B1012D04D94FF4D871074800F064F9F7
:101CB80045B92404B46170BD40F2AF11024800F088
:101CC8005BF9EEE7B46170BD24220008704700009C
:101CD80008B5054B5B69034200D108BD024B58614A
:101CE800FFF7F4FFF9E700BF003C0140F0B589B009
:101CF80000240094204B1A6B42F020021A631A6BDE
:101D080002F020020092009A01941A6B42F001023C
:101D18001A631A6B02F001020192019A02941A6B7B
:101D280042F008021A631B6B03F008030293029B3C
:101D3800124F22463C213846FFF7AEFF3C2303935F
:101D48000126049602250595069403A93846FFF74F
:101D580027FE03960A4B0493059503A90948FFF744
:101D68001FFE224621460620FFF72AFD0620FFF720
:101D78006BFD09B0F0BD00BF0038024000140240FE
:101D8800000011100000024008B5037E042B00D0AB
:101D980008BD124B1B888BB1012BF9D10821FFF725
:101DA80013F80F4B18600F4B1B6898420FD9C01AD5
:101DB8000D4B18600022094B1A80E9E70821FFF74C
:101DC80003F8084B18600122044B1A8008BDC01A9A
:101DD80000F57F40FF30044B1860EBE72800002037
:101DE80034000020300000202C00002008B50248F4
:101DF800FFF7CAFFFBE700BF3800002008B5012243
:101E080010210248FFF748FFFEE700BF0014024018
:101E180000B587B01848194B0360002343608360FE
:101E28004FF6FF72C2600361FFF7DCF9B8B900230F
:101E38000493059304A9104800F0AEF898B90A2352
:101E48000093012301930023029303930822694618
:101E58000948FFF78FFA50B907B05DF804FBDF2196
:101E68000748FFF7CBFFE6210548FFF7C7FFEF213B
:101E78000348FFF7C3FF00BF3800002000080040F8
:101E88005C22000800B595B000230193284A116C24
:101E980041F080511164126C02F080520192019A53
:101EA8000293244A116841F480411160126802F4D7
:101EB80080420292029A0221089101220B9210227A
:101EC8000C920E910F9310924FF4A8731193042360
:101ED8001293139308A8FEF755FB08BB0F2303932F
:101EE80002210491002305934FF480520692079330
:101EF80003A8FEF7CBFDB8B9FEF7D0FE0E4BA3FB47
:101F080000308009FFF7B6FC0420FFF7C9FC002267
:101F180011464FF0FF30FFF753FC15B05DF804FB96
:101F2800B4210648FFF76AFFC2210448FFF766FF9D
:101F38000038024000700040D34D62105C22000857
:101F480008B500F0B1F8FFF79DFFFFF7CFFEFFF7E8
:101F58005FFF08210548FFF787FB18B17A2104487D
:101F6800FFF74CFF0348FFF741FF00BF3800002090
:101F78005C2200082000002010B5064C0122102128
:101F88002046FFF789FE012220212046FFF784FE24
:101F980010BD00BF0014024038B504460D46036862
:101FA800334A93421FD0B3F1804F1CD0A2F57C4234
:101FB800934218D002F58062934214D002F58062F1
:101FC800934210D002F5806293420CD002F58062F1
:101FD800934208D002F57042934204D040F24A611D
:101FE8002448FFF7C9FF2B6893B1102B10D0202B82
:101FF8000ED0302B0CD0402B0AD0502B08D0602BA1
:1020080006D0702B04D040F24B611A48FFF7B4FF9A
:102018006B68802B00D01BBB94F83830012B25D07F
:10202800012284F83820022384F8393021684B686B
:1020380023F070034B6021684B68286803434B60AA
:1020480021688B6823F080038B6021688B6868683F
:1020580003438B6084F83920002084F8380038BDA9
:1020680040F24C610348FFF787FFD5E7022038BDEF
:1020780000000140682200087047704710B5044608
:10208800074B1868074BA3FB00308009FFF7F2FBEA
:10209800002221464FF0FF30FFF792FB002010BDD1
:1020A80000000020D34D621008B50B4B1A6842F4AB
:1020B80000721A601A6842F480621A601A6842F460
:1020C80080721A600320FFF75DFB0020FFF7D6FF40
:1020D800FFF709FC002008BD003C0240024A1368D3
:1020E80001331360704700BF74000020014B18686B
:1020F800704700BF74000020DFF834D0002103E0EF
:102108000C4B5B58435004310B480C4B42189A4215
:10211800F6D30B4A02E0002342F8043B094B9A42EB
:10212800F9D3FEF7C1FDFEF77DF8FFF709FF704709
:1021380000000220B0220008000000200400002057
:102148000400002078000020FEE70000F8B500BF7A
:10215800F8BC08BC9E467047F8B500BFF8BC08BC80
:042168009E467047D8
:10216C00447269766572732F53544D33324634780A
:10217C00785F48414C5F4472697665722F53726385
:10218C002F73746D3332663478785F68616C5F726C
:10219C0063632E63000000000000000000000000DC
:1021AC000102030406070809447269766572732FED
:1021BC0053544D3332463478785F48414C5F447207
:1021CC00697665722F5372632F73746D3332663474
:1021DC0078785F68616C5F74696D2E630000000035
:1021EC00447269766572732F53544D33324634788A
:1021FC00785F48414C5F4472697665722F53726305
:10220C002F73746D3332663478785F68616C5F63FA
:10221C006F727465782E6300447269766572732FE1
:10222C0053544D3332463478785F48414C5F447296
:10223C00697665722F5372632F73746D3332663403
:10224C0078785F68616C5F6770696F2E630000005F
:10225C005372632F6D61696E2E6300004472697650
:10226C006572732F53544D3332463478785F48413E
:10227C004C5F4472697665722F5372632F73746D61
:10228C003332663478785F68616C5F74696D5F6552
:04229C00782E630035
:0822A0000CE0FF7F01000000CB
:0422A800F501000834
:0422AC00CD01000858
:0422B0000024F40012
:0400000508002101CD
:00000001FF
