:020000040800F2
:1000000000000220791A00080311000805110008F9
:1000100007110008091100080B110008000000007A
:100020000000000000000000000000000D110008AA
:100030000F11000800000000111100081311000842
:10004000C91A0008C91A0008C91A0008C91A000804
:10005000C91A0008C91A0008C91A0008C91A0008F4
:10006000C91A0008C91A0008C91A0008C91A0008E4
:10007000C91A0008C91A0008C91A0008C91A0008D4
:10008000C91A0008C91A0008C91A0008C91A0008C4
:10009000C91A0008C91A0008C91A0008C91A0008B4
:1000A000C91A0008C91A0008C91A0008C91A0008A4
:1000B000C91A0008C91A0008C91A0008C91A000894
:1000C000C91A0008C91A0008C91A0008C91A000884
:1000D000C91A0008C91A0008C91A0008C91A000874
:1000E000C91A0008C91A0008C91A0008C91A000864
:1000F000C91A0008C91A0008C91A0008C91A000854
:10010000C91A0008C91A0008C91A0008C91A000843
:10011000C91A0008C91A0008C91A0008C91A000833
:1001200021110008C91A0008C91A0008C91A0008D4
:10013000C91A0008C91A0008C91A0008C91A000813
:10014000C91A0008C91A0008C91A0008C91A000803
:10015000C91A0008C91A0008C91A0008C91A0008F3
:10016000C91A0008C91A0008C91A0008C91A0008E3
:10017000C91A0008C91A0008C91A000800000000BE
:08018000C91A0008C91A0008A1
:10018800044B05481B1A062B02D9044B03B1184728
:10019800704700BF07000020040000200000000096
:1001A80005490648091A891001EBD171491002D096
:1001B800034B03B1184770470400002004000020D7
:1001C8000000000010B5064C237843B9FFF7D8FFAC
:1001D800044B13B10448AFF300800123237010BD12
:1001E8000400002000000000CC1A000808B5084BE5
:1001F8001BB108490848AFF300800848036813B9E1
:10020800BDE80840CCE7064B002BF9D09847F7E744
:100218000000000008000020CC1A0008040000209C
:100228000000000070B50F4E0F4D761BB61018BFBA
:10023800002405D0013455F8043B9847A642F9D16B
:100248000A4E0B4D761B01F03DFCB61018BF00247A
:1002580006D0013455F8043B9847A642F9D170BD41
:1002680070BD00BF701C0008701C0008741C0008DA
:10027800701C000853B94AB9002908BF00281CBFE0
:100288004FF0FF314FF0FF3000F07AB9ADF1080CB4
:100298006DE904CE00F006F8DDF804E0DDE902239C
:1002A80004B070472DE9F0478C460D460446089E79
:1002B800002B51D18A4217466DD9B2FA82FEBEF19F
:1002C800000F0BD0CEF1200C01FA0EF520FA0CFC31
:1002D80002FA0EF74CEA050C00FA0EF44FEA174A38
:1002E800250CBCFBFAF81FFA87F90AFB18CC45EA7B
:1002F8000C4508FB09F3AB420AD9ED1908F1FF32A6
:1003080080F02381AB4240F22081A8F102083D44ED
:10031800ED1AA4B2B5FBFAF00AFB105544EA0544FD
:1003280000FB09F9A14509D9E41900F1FF3380F070
:100338000A81A14540F2078102383C44A4EB090434
:1003480040EA08400021002E61D024FA0EF4002370
:1003580034607360BDE8F0878B4207D9002E54D013
:10036800002186E821000846BDE8F087B3FA83F14A
:10037800002940F08E80AB4202D3824200F2FA801C
:10038800841A65EB03050120AC46002E3FD086E8B1
:100398001010BDE8F08712B90127B7FBF2F7B7FADA
:1003A80087FEBEF1000F34D1EB1B3A0C1FFA87FC15
:1003B8000121B3FBF2F8250C02FB183345EA03458B
:1003C8000CFB08F3AB4207D9ED1908F1FF3002D254
:1003D800AB4200F2D1808046ED1AA3B2B5FBF2F031
:1003E80002FB105543EA05440CFB00FCA44507D961
:1003F800E41900F1FF3302D2A44500F2B880184690
:10040800A4EB0C0440EA08409DE731463046BDE8BD
:10041800F087CEF1200405FA0EF307FA0EF720FA5A
:1004280004F83A0C25FA04F448EA0308B4FBF2F19C
:100438004FEA184502FB11441FFA87FC45EA0445B8
:1004480001FB0CF3AB4200FA0EF409D9ED1901F1E6
:10045800FF3080F08A80AB4240F2878002393D4409
:10046800EB1A1FFA88F5B3FBF2F002FB103345EAEA
:10047800034500FB0CF3AB4207D9ED1900F1FF3837
:100488006FD2AB426DD902383D44EB1A40EA0141C4
:100498008FE7C1F1200722FA07F88B4005FA01F42B
:1004A80048EA030320FA07FE4FEA134CFD404EEAE0
:1004B800040EB5FBFCF94FEA1E440CFB19551FFA54
:1004C80083F844EA054509FB08F4AC4202FA01F254
:1004D80000FA01FA08D9ED1809F1FF3043D2AC420D
:1004E80041D9A9F102091D442D1B1FFA8EFEB5FB47
:1004F800FCF00CFB10554EEA054400FB08F8A0453B
:1005080007D9E41800F1FF3529D2A04527D90238C8
:100518001C4440EA0940A4EB0804A0FB02894C45AE
:10052800C6464D4615D312D056B1BAEB0E0364EB4E
:10053800050404FA07F7CB401F43CC4037607460CA
:100548000021BDE8F0871846F8E69046E0E6C24587
:10055800EAD2B8EB020E69EB03050138E4E7284656
:10056800D7E7404691E78146BEE7014678E702387B
:100578003C4445E7084608E7A8F102083D442BE754
:10058800704700BF2DE9F04782B080460F46B44B54
:10059800984223D003F5806398421FD003F5806307
:1005A80098421BD003F58063984217D003F5806307
:1005B800984213D003F5806398420FD003F5806307
:1005C80098420BD003F58063984207D003F5806307
:1005D800984203D0C321A34801F096F93B689AB228
:1005E80012B11B0C1B041BB1C4219E4801F08CF9ED
:1005F8007B68012B22D9112B20D0022B1ED0122B65
:100608001CD0994A934219D002F58012934215D012
:1006180002F58012934211D0A2F5F81293420DD040
:1006280002F58012934209D002F58012934205D058
:10063800032B03D0C5218B4801F066F9BB68022B58
:1006480001D8002575E0C621864801F05DF9F8E774
:100658003B69FBB1092B1DD0012B1BD0022B19D0F4
:10066800032B17D0042B15D0052B13D0062B11D034
:10067800072B0FD0082B0DD00A2B0BD00B2B09D032
:100688000C2B07D00D2B05D00F2B03D0D721754885
:1006980001F03AF9E908083158F8213005F0070265
:1006A80092000F20904023EA0003386900FA02F212
:1006B800134348F821304CE0EA216A4801F024F954
:1006C80063E0072100E00021A1400A4302336749A3
:1006D80041F82320664B1A686FEA090302EA03010E
:1006E800786810F4803F01D049EA0201604A11603D
:1006F800526803EA0201786810F4003F01D049EA21
:1007080002015B4A5160926803EA0201786810F4BA
:10071800801F01D049EA0201554A9160D26813400E
:10072800796811F4001F01D049EA0203504AD360E6
:1007380001350F2D00F290800124AC403B6804EA9B
:1007480003094C45F4D17B68022B81D0122B3FF46E
:100758007FAFD8F800304FEA450A032606FA0AF6B2
:10076800F64333407A6802F0030202FA0AF21343AE
:10077800C8F800307B685A1E012A03D9112B01D012
:10078800122B16D1FB68032B96D8D8F808303340C3
:10079800FA6802FA0AF21343C8F80830D8F80430A5
:1007A80023EA04047B68C3F30013AB401C43C8F876
:1007B8000440D8F80C301E40BB6803FA0AF31E4305
:1007C800C8F80C607B6813F0805FB1D000230193F8
:1007D800284B5A6C42F480425A645B6C03F48043A1
:1007E8000193019BAB08991C204A52F8212005F07F
:1007F80003018C000F21A14022EA0102184880451C
:100808003FF461AF1C4988451AD001F580618845DD
:1008180018D001F58061884516D001F580618845BA
:1008280014D001F58061884512D001F580618845B2
:1008380010D001F5806188453FF443AF082143E7B4
:10084800012141E702213FE703213DE704213BE77E
:10085800052139E7062137E702B0BDE8F08700BF78
:1008680000000240E41A000800001110003801409E
:10087800003C0140003802400004024070B50646C2
:1008880015460C4651B1012D04D94FF4D8710748CB
:1008980001F03AF845B92404B46170BD40F2AF11D3
:1008A800024801F031F8EEE7B46170BDE41A0008BF
:1008B800002800F0208230B583B0044603680F2B6F
:1008C8003DD8236813F0010F4CD063684BB1B3F5E2
:1008D800803F06D0B3F5A02F03D0FD21A84801F032
:1008E80013F8A84B9B6803F00C03042B31D0A54BDD
:1008F8009B6803F00C03082B26D06368B3F5803F90
:100908005FD0B3F5A02F62D09E4B1A6822F48032D4
:100918001A601A6822F480221A606368002B60D07B
:1009280000F090FB0546974B1B6813F4003F19D164
:1009380000F088FB401B6428F5D90320E0E1F8218A
:100948008F4800F0E1FFBCE78E4B5B6813F4800F23
:10095800D3D08C4B1B6813F4003F03D06368002B83
:1009680000F0CB81236813F0020F66D0E368012BF7
:1009780004D940F22F11824800F0C6FF23691F2BCB
:100988003ED8804B9B6813F00C0F44D07D4B9B687E
:1009980003F00C03082B39D0E368002B76D0012232
:1009A800794B1A6000F04EFB0546764B1B6813F036
:1009B800020F62D100F046FB401B0228F5D9032044
:1009C8009EE1704A136843F480331360A5E76D4BCA
:1009D8001A6842F480221A601A6842F480321A6057
:1009E8009BE700F02FFB0546664B1B6813F4003F9E
:1009F800B8D000F027FB401B6428F5D903207FE11D
:100A08004FF498715E4800F07FFFBAE75D4B5B6872
:100A180013F4800FC0D15B4B1B6813F0020F04D096
:100A2800E368012B01D001206AE1564A136823F0DC
:100A3800F803216943EAC1031360236813F0080F20
:100A480048D06369012B04D94FF4B8714C4800F0C1
:100A58005BFF636963B301224C4B1A6000F0F2FA42
:100A68000546484B5B6F13F0020F33D100F0EAFAEA
:100A7800401B0228F5D9032042E1424A136823F0BB
:100A8800F803216943EAC1031360D6E700223E4B0D
:100A98001A6000F0D7FA05463A4B1B6813F0020FAC
:100AA800CBD000F0CFFA401B0228F5D9032027E16C
:100AB8000022364B1A6000F0C5FA0546314B5B6FD1
:100AC80013F0020F06D000F0BDFA401B0228F5D93A
:100AD800032015E1236813F0040F76D0A368012BD7
:100AE80006D9052B04D04FF4CD71254800F00CFF32
:100AF80000230193234B1A6C42F080521A641B6C3A
:100B080003F080530193019B214A136843F48073D7
:100B1800136000F097FA05461D4B1B6813F4807F9D
:100B280006D100F08FFA401B0228F5D90320E7E030
:100B3800A368012B1DD0052B2CD0124B1A6F22F065
:100B480001021A671A6F22F004021A67A3685BB3DE
:100B580000F078FA05460B4B1B6F13F0020F34D1E7
:100B680000F070FA401B41F288339842F3D9032011
:100B7800C6E0044A136F43F001031367E6E700BFBA
:100B88001C1B00080038024000004742800E474204
:100B9800007000405C4B1A6F42F004021A671A6F2B
:100BA80042F001021A67D1E700F04CFA0546564BAD
:100BB8001B6F13F0020F08D000F044FA401B41F2FB
:100BC80088339842F3D903209AE0A369022B1ED8F0
:100BD800A369002B00F093804B4A926802F00C0244
:100BE800082A00F08F80022B17D00022474B1A608A
:100BF80000F028FA0446444B1B6813F0007F78D0B5
:100C080000F020FA001B0228F5D9032078E040F212
:100C1800CF113F4800F078FEDAE7E3693BB1B3F55E
:100C2800800F04D04FF4EC71394800F06DFE236A50
:100C38003F2B28D8636A323BB3F5BF7F29D8A36A14
:100C4800022B0AD0042B08D0062B06D0082B04D080
:100C580040F2DB112E4800F057FEE36A023B0D2BF1
:100C68001DD80022294B1A6000F0ECF90546264BE6
:100C78001B6813F0007F18D000F0E4F9401B02282D
:100C8800F5D903203CE040F2D911214800F03CFEA0
:100C9800D0E74FF4ED711E4800F036FECFE74FF471
:100CA800EE711B4800F030FEDBE7E369226A13436C
:100CB800626A43EA8213A26A5208013A43EA02438B
:100CC800E26A43EA0263104A536001220F4B1A603A
:100CD80000F0B8F904460C4B1B6813F0007F06D1EE
:100CE80000F0B0F9001B0228F5D9032008E0002025
:100CF80006E0002004E001207047012000E0002009
:100D080003B030BD0120FBE70038024060004742D5
:100D18001C1B0008F8B5254B9B6803F00C03042B3B
:100D280041D0082B01D02248F8BD204B5A6802F068
:100D38003F025B6813F4800F12D01C4B5968C1F353
:100D4800881100231B48A1FB0001FFF793FA174BFA
:100D58005B68C3F3014301335B00B0FBF3F0F8BDFC
:100D6800124B5B68C3F388131E4600275C010025FD
:100D7800E41A65EB0705A90141EA9461A001001B8B
:100D880061EB0501CB0043EA5073C400A01943EBA3
:100D980007018B0243EA9053840220461946002338
:100DA800FFF768FAD3E70348F8BD00BF00380240F0
:100DB8000024F40040787D01002800F0F68070B52A
:100DC80004460D460368013B0E2B11D8072D15D894
:100DD800784B1B6803F00F039D4215D9EBB2754A97
:100DE8001370136803F00F039D420DD0012070BDEE
:100DF8004FF41071704800F087FDE7E740F2412199
:100E08006D4800F081FDE3E7236813F0020F2ED050
:100E180013F0040F04D0694A936843F4E0539360D5
:100E2800236813F0080F04D0644A936843F46043BE
:100E38009360A368A3B1802B12D0902B10D0A02B65
:100E48000ED0B02B0CD0C02B0AD0D02B08D0E02B62
:100E580006D0F02B04D04FF41971574800F054FD18
:100E6800564A936823F0F003A1680B439360236804
:100E780013F0010F3CD06368032B25D86368012B5E
:100E880028D09A1E012A2CD94C4A126812F0020F57
:100E980000F08D8049498A6822F0030213438B6071
:100EA80000F0D0F80646454B9B6803F00C036268D7
:100EB800B3EB820F1CD000F0C5F8801B41F28833D9
:100EC8009842F0D9032070BD40F26B213A4800F0F7
:100ED8001BFDD3E7394A126812F4003FDAD101202A
:100EE80070BD364A126812F0007FD3D1012070BD60
:100EF800304B1B6803F00F039D4209D2EAB22D4B19
:100F08001A701B6803F00F039D4201D0012070BDC9
:100F1800236813F0040F19D0E36883B1B3F5805F39
:100F28000DD0B3F5A05F0AD0B3F5C05F07D0B3F515
:100F3800E05F04D040F2A9211F4800F0E5FC1F4AF9
:100F4800936823F4E053E1680B439360236813F03C
:100F5800080F1AD0236983B1B3F5805F0DD0B3F5BC
:100F6800A05F0AD0B3F5C05F07D0B3F5E05F04D047
:100F78004FF42C71104800F0C7FC104A936823F412
:100F88006043216943EAC1039360FFF7C3FE0B4B3B
:100F98009B68C3F303130A4AD35CD840094B186013
:100FA800002000F017F8002070BD012070470120D4
:100FB80070BD00BF003C02401C1B00080038024006
:100FC800541B000800000020014B1868704700BF40
:100FD8000000002010B50446074B1868074BA3FB18
:100FE8000030800900F00AFD002221464FF0FF3052
:100FF80000F0AAFC002010BD00000020D34D6210B4
:1010080008B50B4B1A6842F400721A601A6842F469
:1010180080621A601A6842F480721A60032000F035
:1010280075FC0020FFF7D6FF00F038F8002008BD57
:10103800003C0240024A136801331360704700BF46
:10104800A0000020014B1868704700BFA0000020D6
:101058000F49D1F8883043F47003C1F888300D4B3C
:101068001A6842F001021A60002098601A6822F09B
:10107800847222F480321A60074A5A601A6822F48D
:1010880080221A60D8604FF000638B60704700BF01
:1010980000ED00E0003802401030002408B50320BD
:1010A80000F034FC002211466FF00B0000F04CFCFD
:1010B800002211466FF00A0000F046FC002211469B
:1010C8006FF0090000F040FC002211466FF00400A8
:1010D80000F03AFC002211466FF0030000F034FCE7
:1010E800002211466FF0010000F02EFC002211468C
:1010F8004FF0FF3000F028FC08BD7047FEE7FEE720
:10110800FEE7FEE770477047704708B5FFF792FFA4
:1011180000F0A9FC08BD000008B5024800F012FA6A
:1011280008BD00BFA400002030B405682C6824F472
:1011380080242C60046863608368402B05D00368B2
:1011480099600368DA6030BC704703689A60036886
:10115800D960F8E70268D3B2103B0B49A1FB03132F
:101168001B090A49C95CC165032B06D822F47F72A2
:1011780022F003028265806D704722F47F7222F0AC
:10118800030204328265F6E7ABAAAAAA9C1B0008F0
:10119800836A826992B9012B0AD01BB1022B01D054
:1011A80000207047C36A13F0807F2CD1002070475D
:1011B800C36AB3F1C07F28D000207047B2F5005F42
:1011C80005D0022B29D9032B15D000207047032BFB
:1011D80003D8DFE803F01C041C0A00207047C36A28
:1011E80013F0807F15D100207047C36AB3F1C07F28
:1011F80011D000207047C36A13F0807F01D001200E
:101208007047002070470120704701207047012077
:101218007047012070470120704701207047000087
:1012280070B50446FFF70EFF002C00F0318105462B
:101238002368984A934231D0183293422ED01832FC
:1012480093422BD01832934228D01832934225D09B
:101258001832934222D0183293421FD01832934248
:101268001CD002F55672934218D01832934215D00A
:101278001832934212D0183293420FD01832934248
:101288000CD01832934209D01832934206D0183243
:10129800934203D0C821804800F036FB6368C3B18D
:1012A800B3F1007F15D0B3F1806F12D0B3F1C06FE6
:1012B8000FD0B3F1006F0CD0B3F1206F09D0B3F1A8
:1012C800406F06D0B3F1606F03D0C921724800F0B7
:1012D8001BFBA3683BB1402B05D0802B03D0CA2150
:1012E8006D4800F011FBE368B3F5007F01D0002BD7
:1012F8007DD12369B3F5806F01D0002B7CD1636960
:101308004BB1B3F5006F06D0B3F5805F03D0CD21A4
:10131800614800F0F9FAA3694BB1B3F5005F06D054
:10132800B3F5804F03D0CE215B4800F0EDFAE369B6
:1013380043B1B3F5807F05D0202B03D0CF21564889
:1013480000F0E2FA236A63B1B3F5803F09D0B3F540
:10135800003F06D0B3F5403F03D0D0214E4800F0FF
:10136800D3FA636A2BB1042B03D0D1214A4800F089
:10137800CBFA636A03B3A36A032B42D8E36A63B167
:10138800B3F5000F09D0B3F1807F06D0B3F1C07F69
:1013980003D0D721404800F0B7FA236B63B1B3F507
:1013A800001F09D0B3F5800F06D0B3F5C00F03D0E6
:1013B800D821394800F0A8FA002384F834300223F1
:1013C80084F835302268136823F00103136023681A
:1013D8001A6812F0010F19D0FFF734FE401B0528D8
:1013E800F5D920236365032084F8350070BDCB212F
:1013F800294800F089FA7CE7CC21274800F084FAD4
:101408007DE7D621244800F07FFAB7E71A68234918
:1014180011406268A0680243E06802432069024301
:1014280060690243A0690243E0690243206A0243FB
:101438000A43616A042916D01A602668756925F07E
:101448000705636A1D43042B12D075612046FFF718
:1014580081FEE26D3F239340836000206065012395
:1014680084F8353070BDE16A206B01430A43E3E735
:10147800A36A1D43E36A002BE7D02046FFF788FEE6
:101488000028E2D040236365012084F8350070BD50
:10149800012070BD10600240641B00083F8010F0FE
:1014A8002DE9F04104460F4690461D46866D5A1EAA
:1014B8004FF6FE739A4211D894F83430012B3BD082
:1014C800012384F8343094F83530DBB2012B0BD08B
:1014D800002384F834300220BDE8F0814FF4EA712B
:1014E800174800F011FAE7E7022384F835300023A3
:1014F80063652B46424639462046FFF715FEE26DE6
:101508003F239340B3602268136843F016031360C7
:101518002268536943F080035361236C23B1226826
:10152800136843F0080313602268136843F001034B
:1015380013600020BDE8F0810220BDE8F08100BF03
:10154800641B0008F0B583B0044600230193724B76
:101558001D68724BA3FB0535AD0A876D3E68C26DE9
:10156800082393401E4210D003681A6812F0040F33
:101578000BD01A6822F004021A60C26D0823934047
:10158800BB60436D43F001034365E26D0123934063
:101598001E4209D02268526912F0800F04D0BB6045
:1015A800636D43F002036365E26D042393401E42BA
:1015B80009D02268126812F0020F04D0BB60636D74
:1015C80043F004036365E26D102393401E4224D068
:1015D8002268126812F0080F1FD0BB6023681A68CF
:1015E80012F4802F0DD01B6813F4002F04D1236C44
:1015F8009BB12046984710E0A36C73B120469847EA
:101608000BE01A6812F4807F03D11A6822F00802EE
:101618001A60236C0BB120469847E26D2023934053
:101628001E4255D02268126812F0100F50D0BB60CD
:1016380094F83530DBB2052B0ED023681A6812F403
:10164800802F33D01B6813F4002F2AD1636C002B32
:101658003ED0204698473BE02268136823F01603E3
:1016680013602268536923F080035361236CA3B18C
:101678002268136823F008031360E26D3F23934048
:10168800BB60002384F83430012384F83530236D9F
:10169800002B3FD0204698473CE0A36C002BE7D1B5
:1016A800EBE7E36BA3B12046984711E01A6812F400
:1016B800807F09D11A6822F010021A60002384F88A
:1016C8003430012384F83530E36B0BB1204698475A
:1016D800636DFBB1636D13F0010F17D0052384F818
:1016E80035302268136823F001031360019B01332E
:1016F80001939D4204D323681B6813F0010FF5D1B1
:10170800002384F83430012384F83530E36C0BB1BE
:101718002046984703B0F0BD00000020B5814E1B5D
:1017280008B5012220210248FFF7A8F808BD00BF2C
:101738000014024008B5012204210248FFF79EF870
:1017480008BD00BF0014024030B587B000240094E3
:101758000D4B1A6B42F020021A631B6B03F0200337
:101768000093009B094D22463C212846FFF786F846
:101778003C230193012302930394049401A928466E
:10178800FEF700FF07B030BD0038024000140240E9
:10179800FEE7000000B583B000230193234A116BD4
:1017A80041F480011163126B02F480020192019AE4
:1017B8001F48204A02604360802282604FF4007212
:1017C800C2604FF4806202614FF4805242614FF46C
:1017D80080428261C3614FF4003202624362032295
:1017E8008262C3620363144BC363144BC364FFF781
:1017F80017FD88B900221146382000F0A5F83820D6
:1018080000F0E6F820230E4A0E490948FFF748FE83
:1018180038B903B05DF804FB40F213110A48FFF72A
:10182800B7FF4FF491710848FFF7B2FF0038024044
:10183800A4000020106402403D1700082917000882
:1018480020000020B01B0008A41B000800B595B0BC
:1018580000230193234A116C41F080511164126CEA
:1018680002F080520192019A02931F4A116841F4D2
:1018780080411160126802F480420292029A0222A8
:10188800089201220B9210220C920E9308A8FFF7DF
:101898000FF8F0B90F2303930021049105910691E5
:1018A800079103A8FFF788FAB8B9FFF78DFB0F4B2C
:1018B800A3FB0030800900F0A1F8042000F0B4F880
:1018C800002211464FF0FF3000F03EF815B05DF8E9
:1018D80004FB96210648FFF75BFFA4210448FFF7A5
:1018E80057FF00BF0038024000700040D34D62101F
:1018F800A41B000808B5FFF783FBFFF7A7FFFFF756
:1019080023FFFFF747FFFEE77047000010B50446C6
:10191800C31E042B0FD80A4AD36823F4E0631B04C0
:101928001B0C240204F4E064234343F0BF6343F434
:101938000033D36010BDA2210248FFF7E5FFEAE7B4
:1019480000ED00E0301C000870B505460C46164650
:101958000F2A24D80F2C27D81A4BDB68C3F302238D
:10196800C3F10702042A28BF0422191D062920D919
:10197800033B012101FA02F2013A14409C4001FAAA
:1019880003F3013B33401C43002D14DB2401E4B274
:1019980005F1604505F5614585F8004370BDBA213C
:1019A8000948FFF7B1FFD5E7BB210748FFF7ACFFB0
:1019B800D2E70023DDE705F00F052401E4B2034B6D
:1019C8005C5570BD00ED00E0301C000814ED00E02F
:1019D80010B5041E09DB620904F01F04012303FA91
:1019E80004F4044B43F8224010BDCE210248FFF70F
:1019F8008BFFF0E700E100E0301C00080138B0F18F
:101A0800807F0AD2064B5860F021064A82F82310DC
:101A18000020986007221A6070470120704700BFB5
:101A280010E000E000ED00E010B50446042800D006
:101A380038B9042C0BD0094A136823F00403136047
:101A480010BD40F2D9110648FFF75EFFF1E7034ADF
:101A5800136843F00403136010BD00BF10E000E0FA
:101A6800301C0008704708B5FFF7FCFF08BD0000F0
:101A7800DFF834D0002103E00C4B5B5843500431AD
:101A88000B480C4B42189A42F6D30B4A02E000234B
:101A980042F8043B094B9A42F9D3FFF7D9FAFEF70B
:101AA800C1FBFFF727FF704700000220781C0008E1
:101AB8000000002004000020040000206401002031
:101AC800FEE70000F8B500BFF8BC08BC9E467047AA
:0C1AD800F8B500BFF8BC08BC9E46704783
:101AE400447269766572732F53544D333246347899
:101AF400785F48414C5F4472697665722F53726314
:101B04002F73746D3332663478785F68616C5F6705
:101B140070696F2E63000000447269766572732FDA
:101B240053544D3332463478785F48414C5F4472A5
:101B3400697665722F5372632F73746D3332663412
:101B440078785F68616C5F7263632E6300000000E5
:101B54000000000000000000010203040607080959
:101B6400447269766572732F53544D333246347818
:101B7400785F48414C5F4472697665722F53726393
:101B84002F73746D3332663478785F68616C5F6488
:101B94006D612E630000000000061016000610168A
:101BA4005372632F6D61696E2E630000040302019A
:101BB400080706050C0B0A09100F0E0D1413121159
:101BC400181716151C1B1A19201F1E1D2423222149
:101BD400282726252C2B2A29302F2E2D3433323139
:101BE400383736353C3B3A39403F3E3D4443424129
:101BF400484746454C4B4A49504F4E4D5453525119
:101C0400585756555C5B5A59605F5E5D6463626108
:101C1400686766656C6B6A69706F6E6D74737271F8
:101C2400787776757C7B7A79807F7E7D447269765D
:101C34006572732F53544D3332463478785F48417C
:101C44004C5F4472697665722F5372632F73746D9F
:101C54003332663478785F68616C5F636F72746581
:041C6400782E630073
:081C680044E6FF7F01000000CB
:041C7000F501000872
:041C7400CD01000896
:041C78000024F40050
:0400000508001A795C
:00000001FF
