:020000040800F2
:1000000000000220F50D00085D0500085F050008EE
:100010006105000863050008650500080000000090
:10002000000000000000000000000000670500085C
:1000300069050008000000006B0500086D05000858
:10004000450E0008450E0008450E0008450E000844
:10005000450E0008450E0008450E0008450E000834
:10006000450E0008450E0008450E0008450E000824
:10007000450E0008450E0008450E0008450E000814
:10008000450E0008450E0008450E0008450E000804
:10009000450E0008450E0008450E0008450E0008F4
:1000A000450E0008450E0008450E0008450E0008E4
:1000B000450E0008450E0008450E0008450E0008D4
:1000C000450E0008450E0008450E0008450E0008C4
:1000D000450E0008450E0008450E0008450E0008B4
:1000E000450E0008450E0008450E0008450E0008A4
:1000F000450E0008450E0008450E0008450E000894
:10010000450E0008450E0008450E0008450E000883
:10011000450E0008450E0008450E0008450E000873
:10012000450E0008450E0008450E0008450E000863
:10013000450E0008450E0008450E0008450E000853
:10014000450E0008450E0008450E0008450E000843
:10015000450E0008450E0008450E0008450E000833
:10016000450E0008450E0008450E0008450E000823
:10017000450E0008450E0008450E0008000000006E
:08018000450E0008450E0008C1
:10018800044B05481B1A062B02D9044B03B1184728
:10019800704700BF07000020040000200000000096
:1001A80005490648091A891001EBD171491002D096
:1001B800034B03B1184770470400002004000020D7
:1001C8000000000010B5064C237843B9FFF7D8FFAC
:1001D800044B13B10448AFF300800123237010BD12
:1001E8000400002000000000480E000808B5084B75
:1001F8001BB108490848AFF300800848036813B9E1
:10020800BDE80840CCE7064B002BF9D09847F7E744
:100218000000000008000020480E0008040000202C
:100228000000000070B50F4E0F4D761BB61018BFBA
:10023800002405D0013455F8043B9847A642F9D16B
:100248000A4E0B4D761B00F0FBFDB61018BF0024BC
:1002580006D0013455F8043B9847A642F9D170BD41
:1002680070BD00BF7C0E00087C0E0008800E0008E0
:100278007C0E000810B50446074B1868074BA3FB13
:100288000030800900F0D4FC002221464FF0FF30F6
:1002980000F09CFC002010BD00000020D34D62102F
:1002A80008B50B4B1A6842F400721A601A6842F4D7
:1002B80080621A601A6842F480721A60032000F0A3
:1002C80073FC0020FFF7D6FF00F024F8002008BDDB
:1002D800003C0240024A136801331360704700BFB4
:1002E80020000020014B1868704700BF2000002044
:1002F80030B583B00190FFF7F5FF0546019CB4F1D6
:10030800FF3F00D00134FFF7EDFF401BA042FAD3B6
:1003180003B030BD08B5032000F046FC00221146AA
:100328006FF00B0000F052FC002211466FF00A003B
:1003380000F04CFC002211466FF0090000F046FC6A
:10034800002211466FF0040000F040FC0022114624
:100358006FF0030000F03AFC002211466FF0010034
:1003680000F034FC002211464FF0FF3000F02EFC64
:1003780008BD0000F0B583B000244BE04FEAD40E6E
:100388000EF1080E50F82E2004F00706B6000F27CD
:10039800B74022EA07020F6907FA06F6324340F827
:1003A8002E2046E0072600E0002606FA0EF6324325
:1003B80002335E4E46F823205D4B1A68EB4302EA8F
:1003C80003064F6817F4803F01D045EA0206584AF1
:1003D8001660526803EA02064F6817F4003F01D01E
:1003E80045EA0206524A5660926803EA02064F68D6
:1003F80017F4801F01D045EA02064D4A9660D2687C
:1004080013404E6816F4001F01D045EA0203484A1B
:10041800D36001340F2C00F286800123A3400A68C0
:1004280003EA0205AB42F4D14A68022AA6D0122A8E
:10043800A4D006684FEA440E032202FA0EF2D24311
:1004480016404F6807F0030707FA0EF73E430660A9
:100458004E68771E012F03D9112E01D0122E0FD10D
:1004680086681640CF6807FA0EF73E4386604668EE
:1004780026EA03034E68C6F30016A64033434360DA
:10048800C3681A408B6803FA0EF31A43C2604B68BC
:1004980013F0805FBDD000230193264B5A6C42F4C1
:1004A80080425A645B6C03F480430193019BA30868
:1004B8009E1C1E4A52F8262004F003064FEA860EB8
:1004C8000F2606FA0EF622EA06021B4FB8423FF440
:1004D8006BAF1A4EB0421AD006F58066B04218D0FB
:1004E80006F58066B04216D006F58066B04214D094
:1004F80006F58066B04212D006F58066B04210D08C
:1005080006F58066B0423FF44DAF08264DE7012658
:100518004BE7022649E7032647E7042645E7052671
:1005280043E7062641E703B0F0BD00BF00380140AD
:10053800003C014000380240000002400004024034
:1005480012B9090481617047816170474369594054
:10055800416170477047FEE7FEE7FEE7FEE7704738
:100568007047704708B5FFF7B5FE00F088FB08BD77
:1005780030B583B00446036813F0010F3BD0A94B94
:100588009B6803F00C03042B2CD0A64B9B6803F04C
:100598000C03082B21D06368B3F5803F4FD0B3F527
:1005A800A02F52D09F4B1A6822F480321A601A6822
:1005B80022F480221A606368002B50D0FFF792FE65
:1005C8000546984B1B6813F4003F14D1FFF78AFEC9
:1005D800401B6428F5D9032099E1924B5B6813F41A
:1005E800800FD8D08F4B1B6813F4003F03D063688B
:1005F800002B00F08981236813F0020F5BD0894B30
:100608009B6813F00C0F3ED0864B9B6803F00C03DD
:10061800082B33D0E368002B74D00122824B1A6078
:10062800FFF760FE05467F4B1B6813F0020F5AD197
:10063800FFF758FE401B0228F5D9032067E1794AE5
:10064800136843F480331360B5E7764B1A6842F4B5
:1006580080221A601A6842F480321A60ABE7FFF70A
:1006680041FE05466F4B1B6813F4003FC3D0FFF7EC
:1006780039FE401B6428F5D9032048E1694B5B68C3
:1006880013F4800FC6D1674B1B6813F0020F04D018
:10069800E368012B01D0012039E16248036823F0A7
:1006A800F8032169F82292FAA2F2B2FA82F201FA68
:1006B80002F213430360236813F0080F46D06369FE
:1006C80093B30122594B1A60FFF70CFE0546554BB0
:1006D8005B6F13F0020F39D1FFF704FE401B0228AD
:1006E800F5D9032013E14F48036823F0F803216983
:1006F800F82292FAA2F2B2FA82F201FA02F2134353
:100708000360D8E70022484B1A60FFF7EBFD054667
:10071800444B1B6813F0020FCDD0FFF7E3FD401BDD
:100728000228F5D90320F2E00022404B1A60FFF7B7
:10073800D9FD05463B4B5B6F13F0020F06D0FFF760
:10074800D1FD401B0228F5D90320E0E0236813F00F
:10075800040F20D1A369002B00F0D880314A926899
:1007680002F00C02082A00F0D480022B00F08080EE
:1007780000222F4B1A60FFF7B5FD0446294B1B6872
:1007880013F0007F00F0BE80FFF7ACFD001B0228CD
:10079800F4D90320BBE000230193224B1A6C42F0EA
:1007A80080521A641B6C03F080530193019B214A09
:1007B800136843F480731360FFF794FD05461D4BDF
:1007C8001B6813F4807F06D1FFF78CFD401B0228BD
:1007D800F5D903209BE0A368012B1DD0052B2BD056
:1007E800104B1A6F22F001021A671A6F22F00402E6
:1007F8001A67A36853B3FFF775FD0546094B1B6FCE
:1008080013F0020FA6D1FFF76DFD401B41F28833AC
:100818009842F3D903207AE0024A136F43F00103A8
:100828001367E6E70038024000004742800E47425F
:100838006000474200700040374B1A6F42F00402D4
:100848001A671A6F42F001021A67D2E7FFF74AFDEA
:100858000546314B1B6F13F0020F3FF47BAFFFF7D8
:1008680041FD401B41F288339842F2D903204EE003
:1008780000222A4B1A60FFF735FD0546264B1B68F8
:1008880013F0007F06D0FFF72DFD401B0228F5D995
:1008980003203CE0E369226A1343616A47F6C072A9
:1008A80092FAA2F2B2FA82F201FA02F21343A26AAF
:1008B8005208013A4FF4403191FAA1F1B1FA81F1AD
:1008C8008A401343E16A4FF0706292FAA2F2B2FAD8
:1008D80082F201FA02F213430F4A536001220F4BCE
:1008E8001A60FFF7FFFC04460B4B1B6813F0007FF0
:1008F80006D1FFF7F7FC001B0228F5D9032006E014
:10090800002004E0002002E0012000E0002003B005
:1009180030BD0120FBE700BF0038024060004742BD
:10092800214B9B6803F00C03042B3AD0082B01D011
:100938001E4870471C4B586800F03F005B6813F472
:10094800800F1ED01A4AB2FBF0F2174B586847F6D0
:10095800C073184093FAA3F3B3FA83F3D84000FBAB
:1009680002F0114B5B6803F440334FF4403292FAC3
:10097800A2F2B2FA82F2D34001335B00B0FBF3F08B
:1009880070470A4AB2FBF0F2074B586847F6C07343
:10099800184093FAA3F3B3FA83F3D84000FB02F0AC
:1009A800DFE70348704700BF003802400024F40026
:1009B80040787D01624B1B6803F00F038B4209D21C
:1009C800CBB25F4A1370136803F00F03994201D04A
:1009D8000120704770B5036813F0020F06D0594A1A
:1009E800936823F0F0038468234393600D4604461C
:1009F800036813F0010F64D04368012B26D09A1EB8
:100A0800012A2AD94F4A126812F0020F00F0968084
:100A18004C498A6822F0030213438B60FFF762FC9B
:100A280006466368012B1FD0022B2CD0032B39D02C
:100A3800444B9B6813F00C0F43D0FFF753FC801B0B
:100A480041F288339842F3D9032070BD3D4A1268B9
:100A580012F4003FDCD1012070BD3A4A126812F04E
:100A6800007FD5D1012070BD364B9B6803F00C0385
:100A7800042B26D0FFF736FC801B41F288339842BE
:100A8800F2D9032070BD2F4B9B6803F00C03082B91
:100A980017D0FFF727FC801B41F288339842F2D920
:100AA800032070BD274B9B6803F00C030C2B08D068
:100AB800FFF718FC801B41F288339842F2D90320D3
:100AC80070BD1F4B1B6803F00F039D4209D2EAB2A9
:100AD8001B4B1A701B6803F00F039D4201D00120C5
:100AE80070BD236813F0040F06D0164A936823F4E8
:100AF800E053E1680B439360236813F0080F07D0B5
:100B0800104A936823F46043216943EAC103936060
:100B1800FFF706FF0B4B9B6803F0F003F02292FAF5
:100B2800A2F2B2FA82F2D340074AD35CD840074B0C
:100B380018600020FFF79EFB002070BD012070BDEB
:100B4800003C024000380240600E0008000000200F
:100B5800014B1868704700BF000000200F49D1F80A
:100B6800883043F47003C1F888300D4B1A6842F09E
:100B780001021A60002098601A6822F0847222F438
:100B880080321A60074A5A601A6822F480221A6072
:100B9800D8604FF000638B60704700BF00ED00E045
:100BA8000038024010300024074AD36823F4E06379
:100BB8001B041B0C000200F4E060184340F0BF6007
:100BC80040F40030D060704700ED00E030B4164BC0
:100BD800DB68C3F30223C3F10704042C28BF0424F1
:100BE8001D1D062D17D9033B012505FA04F4013C08
:100BF8002140994005FA03F3013B134019430028AB
:100C08000BDB0901C9B200F1604000F5614080F8D2
:100C1800001330BC70470023E6E700F00F0009011D
:100C2800C9B2024B1954F4E700ED00E014ED00E0FE
:100C38000138B0F1807F0AD2064B5860F021064A8D
:100C480082F823100020986007221A60704701205C
:100C5800704700BF10E000E000ED00E0042805D078
:100C6800054A136823F0040313607047024A1368A7
:100C780043F004031360704710E000E0704708B5C4
:100C8800FFF7FCFF08BD0000F0B589B0002401940F
:100C98001B4B1A6B42F004021A631A6B02F004022F
:100CA8000192019A02941A6B42F020021A631B6B9C
:100CB80003F020030293029B124F22464FF4005187
:100CC8003846FFF73DFC104D224640212846FFF7E5
:100CD80037FC4FF4005303930126049605940694B9
:100CE80003A93846FFF746FB40230393049605946F
:100CF800069403A92846FFF73DFB09B0F0BD00BFE5
:100D0800003802400008024000140240FEE70000DC
:100D180000B595B000230193234A116C41F080512E
:100D28001164126C02F080520192019A02931F4AD8
:100D3800116841F480411160126802F48042029205
:100D4800029A0222089201220B9210220C920E9310
:100D580008A8FFF70DFCF0B90F23039300210491B5
:100D680005910691079103A8FFF724FEB8B9FFF78C
:100D7800EFFE0F4BA3FB00308009FFF759FF04205B
:100D8800FFF76CFF002211464FF0FF30FFF71EFF00
:100D980015B05DF804FB87210648FFF7B7FF9521DA
:100DA8000448FFF7B3FF00BF00380240007000405E
:100DB800D34D6210700E000808B5FFF771FAFFF7FF
:100DC800A7FFFFF761FF4FF400510648FFF7BEFB8E
:100DD80040F2DC50FFF78CFA012240210248FFF76D
:100DE800AFFBF0E70008024000140240DFF834D0FF
:100DF800002103E00C4B5B58435004310B480C4B6B
:100E080042189A42F6D30B4A02E0002342F8043B08
:100E1800094B9A42F9D3FFF7A1FEFFF703FAFFF750
:100E2800CBFF704700000220840E0008000000205D
:100E3800040000200400002024000020FEE7000039
:100E4800F8B500BFF8BC08BC9E467047F8B500BFAF
:080E5800F8BC08BC9E4670477F
:100E6000000000000000000001020304060708095A
:0C0E70005372632F6D61696E2E630000E9
:040E7C00F501000874
:040E8000CD01000898
:040E84000024F40052
:0400000508000DF5ED
:00000001FF
