:020000040800F2
:100000000000022001220008FD090008FF09000885
:10001000010A0008030A0008050A000800000000A1
:10002000000000000000000000000000070A0008B7
:10003000090A0008000000000B0A00080D0A000869
:1000400051220008512200085122000851220008C4
:1000500051220008512200085122000851220008B4
:1000600051220008512200085122000851220008A4
:100070005122000851220008512200085122000894
:100080005122000851220008512200085122000884
:10009000512200085122000851220008190A0008C4
:1000A0005122000851220008512200085122000864
:1000B0002D0A000851220008512200085122000890
:1000C0005122000851220008512200085122000844
:1000D0005122000851220008512200085122000834
:1000E0005122000851220008512200085122000824
:1000F0005122000851220008512200085122000814
:100100005122000851220008512200085122000803
:1001100051220008512200085122000851220008F3
:1001200051220008512200085122000851220008E3
:1001300051220008512200085122000851220008D3
:1001400051220008512200085122000851220008C3
:1001500051220008512200085122000851220008B3
:1001600051220008512200085122000851220008A3
:10017000512200085122000851220008000000000E
:08018000512200085122000881
:10018800044B05481B1A062B02D9044B03B1184728
:10019800704700BF07000020040000200000000096
:1001A80005490648091A891001EBD171491002D096
:1001B800034B03B1184770470400002004000020D7
:1001C8000000000010B5064C237843B9FFF7D8FFAC
:1001D800044B13B10448AFF300800123237010BD12
:1001E80004000020000000005422000808B5084B55
:1001F8001BB108490848AFF300800848036813B9E1
:10020800BDE80840CCE7064B002BF9D09847F7E744
:10021800000000000800002054220008040000200C
:100228000000000070B50F4E0F4D761BB61018BFBA
:10023800002405D0013455F8043B9847A642F9D16B
:100248000A4E0B4D761B02F001F8B61018BF0024B9
:1002580006D0013455F8043B9847A642F9D170BD41
:1002680070BD00BFA8230008A8230008AC2300081D
:10027800A823000853B94AB9002908BF00281CBFA1
:100288004FF0FF314FF0FF3000F07AB9ADF1080CB4
:100298006DE904CE00F006F8DDF804E0DDE902239C
:1002A80004B070472DE9F0478C460D460446089E79
:1002B800002B51D18A4217466DD9B2FA82FEBEF19F
:1002C800000F0BD0CEF1200C01FA0EF520FA0CFC31
:1002D80002FA0EF74CEA050C00FA0EF44FEA174A38
:1002E800250CBCFBFAF81FFA87F90AFB18CC45EA7B
:1002F8000C4508FB09F3AB420AD9ED1908F1FF32A6
:1003080080F02381AB4240F22081A8F102083D44ED
:10031800ED1AA4B2B5FBFAF00AFB105544EA0544FD
:1003280000FB09F9A14509D9E41900F1FF3380F070
:100338000A81A14540F2078102383C44A4EB090434
:1003480040EA08400021002E61D024FA0EF4002370
:1003580034607360BDE8F0878B4207D9002E54D013
:10036800002186E821000846BDE8F087B3FA83F14A
:10037800002940F08E80AB4202D3824200F2FA801C
:10038800841A65EB03050120AC46002E3FD086E8B1
:100398001010BDE8F08712B90127B7FBF2F7B7FADA
:1003A80087FEBEF1000F34D1EB1B3A0C1FFA87FC15
:1003B8000121B3FBF2F8250C02FB183345EA03458B
:1003C8000CFB08F3AB4207D9ED1908F1FF3002D254
:1003D800AB4200F2D1808046ED1AA3B2B5FBF2F031
:1003E80002FB105543EA05440CFB00FCA44507D961
:1003F800E41900F1FF3302D2A44500F2B880184690
:10040800A4EB0C0440EA08409DE731463046BDE8BD
:10041800F087CEF1200405FA0EF307FA0EF720FA5A
:1004280004F83A0C25FA04F448EA0308B4FBF2F19C
:100438004FEA184502FB11441FFA87FC45EA0445B8
:1004480001FB0CF3AB4200FA0EF409D9ED1901F1E6
:10045800FF3080F08A80AB4240F2878002393D4409
:10046800EB1A1FFA88F5B3FBF2F002FB103345EAEA
:10047800034500FB0CF3AB4207D9ED1900F1FF3837
:100488006FD2AB426DD902383D44EB1A40EA0141C4
:100498008FE7C1F1200722FA07F88B4005FA01F42B
:1004A80048EA030320FA07FE4FEA134CFD404EEAE0
:1004B800040EB5FBFCF94FEA1E440CFB19551FFA54
:1004C80083F844EA054509FB08F4AC4202FA01F254
:1004D80000FA01FA08D9ED1809F1FF3043D2AC420D
:1004E80041D9A9F102091D442D1B1FFA8EFEB5FB47
:1004F800FCF00CFB10554EEA054400FB08F8A0453B
:1005080007D9E41800F1FF3529D2A04527D90238C8
:100518001C4440EA0940A4EB0804A0FB02894C45AE
:10052800C6464D4615D312D056B1BAEB0E0364EB4E
:10053800050404FA07F7CB401F43CC4037607460CA
:100548000021BDE8F0871846F8E69046E0E6C24587
:10055800EAD2B8EB020E69EB03050138E4E7284656
:10056800D7E7404691E78146BEE7014678E702387B
:100578003C4445E7084608E7A8F102083D442BE754
:10058800704700BF38B504460D460368334A9342A6
:100598001FD0B3F1804F1CD0A2F57C42934218D0F3
:1005A80002F58062934214D002F58062934210D023
:1005B80002F5806293420CD002F58062934208D023
:1005C80002F57042934204D040F24A61244800F098
:1005D800C3F92B6893B1102B10D0202B0ED0302BE1
:1005E8000CD0402B0AD0502B08D0602B06D0702B93
:1005F80004D040F24B611A4800F0AEF96B68802BCA
:1006080000D01BBB94F83830012B25D0012284F888
:100618003820022384F8393021684B6823F07003AE
:100628004B6021684B68286803434B6021688B68DE
:1006380023F080038B6021688B68686803438B60B4
:1006480084F83920002084F8380038BD40F24C6125
:10065800034800F081F9D5E7022038BD00000140C9
:100668006C22000870477047F0B587B000240094EA
:10067800164B1A6B42F020021A631B6B03F020031F
:100688000093009B124D22463C21284600F088FB2F
:100698003C2301930126029602270397049401A99B
:1006A800284600F0EDF9402301930A4B0293039783
:1006B80001A9284600F0E4F922463146172001F046
:1006C80037F9172001F078F907B0F0BD003802407B
:1006D800001402400000111008B5012301E00133A5
:1006E800DBB2082B0ED8104AD25CD2B2012AF6D15E
:1006F800C3F1080102FA01F10C4802780A43D2B2A8
:100708000270ECE7094B1B78DBB2D52B05D0012230
:100718002021074800F044FB08BD012204210448B9
:1007280000F03EFB08BD00BF2C0000203500002073
:100738000014024008B501221021024800F030FBE5
:10074800FEE700BF0014024000B587B016484FF01E
:100758008043036053234360002383606722C260A1
:10076800036101F053F898B906A94FF4805341F892
:10077800103D0D4800F020FC70B900230093019350
:1007880069460948FFF7FEFE50B907B05DF804FB5B
:10079800CB210648FFF7CEFFD1210448FFF7CAFF57
:1007A800D8210248FFF7C6FF38000020A42200081D
:1007B80000B595B000230193284A116C41F080518F
:1007C8001164126C02F080520192019A0293244A39
:1007D800116841F480411160126802F4804202926B
:1007E800029A0221089101220B9210220C920E917A
:1007F8000F9310924FF4A873119304231293139339
:1008080008A801F067F908BB0F230393022104919C
:10081800002305934FF480520692079303A801F032
:10082800DDFBB8B901F0E2FC0E4BA3FB00308009F8
:1008380001F0D8F8042001F0EBF8002211464FF03F
:10084800FF3001F075F815B05DF804FBA0210648EB
:10085800FFF770FFAE210448FFF76CFF0038024035
:1008680000700040D34D6210A422000808B501F0C2
:1008780009F9FFF79DFFFFF7F7FEFFF765FF064B46
:100888001B78002BFBD0054800F0F0FA00B9FEE712
:1008980074210348FFF74EFF210000203800002094
:1008A800A4220008264B1A68272A44D910B5254BDC
:1008B8001B78DB002A339A4211D0214B1B6813F0B6
:1008C800070F03D11F4A1378013313701D4B1B7890
:1008D800082B24D81A4A13680133136010BD1A4C28
:1008E80001221021204600F05BFA4021204600F04A
:1008F80043FA012805D0134B1B780121134AD15420
:10090800DBE7104B1B78114A0021D154D35C002B34
:10091800D3D101221021204600F042FACDE70C483D
:1009280000F0F2FA10B9FFF7D7FED3E74FF492714F
:100938000848FFF7FFFE024A136801331360704747
:100948002400002020000020001402402C00002079
:1009580038000020A4220008704708B5032000F0E2
:10096800C9FF002211466FF00B0000F0E1FF0022E2
:1009780011466FF00A0000F0DBFF002211466FF00D
:10098800090000F0D5FF002211466FF0040000F0C6
:10099800CFFF002211466FF0030000F0C9FF0022CC
:1009A80011466FF0010000F0C3FF002211464FF01E
:1009B800FF3000F0BDFF08BD0368B3F1804F00D0E1
:1009C800704700B583B00022019203F50E33196C0D
:1009D80041F0010119641B6C03F001030193019BB1
:1009E80001211C2000F0A4FF1C2000F0E5FF03B04B
:1009F8005DF804FB7047FEE7FEE7FEE7FEE7704799
:100A08007047704708B501F057F801F020F808BDA5
:100A180008B5402000F0E0F90122014B1A7008BD2A
:100A28002100002008B5024800F0A4FD08BD00BF61
:100A3800380000200F49D1F8883043F47003C1F81A
:100A480088300D4B1A6842F001021A600020986045
:100A58001A6822F0847222F480321A60074A5A60B7
:100A68001A6822F480221A60D8604FF000638B6005
:100A7800704700BF00ED00E000380240103000244D
:100A88002DE9F04782B080460F46B44B984223D0F8
:100A980003F5806398421FD003F5806398421BD00A
:100AA80003F58063984217D003F58063984213D00A
:100AB80003F5806398420FD003F5806398420BD00A
:100AC80003F58063984207D003F58063984203D00A
:100AD800C321A348FFF740FF3B689AB212B11B0C31
:100AE8001B041BB1C4219E48FFF736FF7B68012B0E
:100AF80022D9112B20D0022B1ED0122B1CD0994AA0
:100B0800934219D002F58012934215D002F5801253
:100B1800934211D0A2F5F81293420DD002F580123B
:100B2800934209D002F58012934205D0032B03D0DB
:100B3800C5218B48FFF710FFBB68022B01D80025A1
:100B480075E0C6218648FFF707FFF8E73B69FBB168
:100B5800092B1DD0012B1BD0022B19D0032B17D02A
:100B6800042B15D0052B13D0062B11D0072B0FD033
:100B7800082B0DD00A2B0BD00B2B09D00C2B07D030
:100B88000D2B05D00F2B03D0D7217548FFF7E4FEB6
:100B9800E908083158F8213005F0070292000F20C3
:100BA800904023EA0003386900FA02F2134348F838
:100BB80021304CE0EA216A48FFF7CEFE63E00721C6
:100BC80000E00021A1400A430233674941F823208D
:100BD800664B1A686FEA090302EA0301786810F4A1
:100BE800803F01D049EA0201604A1160526803EA75
:100BF8000201786810F4003F01D049EA02015B4A1B
:100C08005160926803EA0201786810F4801F01D0ED
:100C180049EA0201554A9160D2681340796811F493
:100C2800001F01D049EA0203504AD36001350F2D55
:100C380000F290800124AC403B6804EA03094C456B
:100C4800F4D17B68022B81D0122B3FF47FAFD8F808
:100C580000304FEA450A032606FA0AF6F6433340FF
:100C68007A6802F0030202FA0AF21343C8F8003065
:100C78007B685A1E012A03D9112B01D0122B16D1D9
:100C8800FB68032B96D8D8F808303340FA6802FA84
:100C98000AF21343C8F80830D8F8043023EA0404E9
:100CA8007B68C3F30013AB401C43C8F80440D8F872
:100CB8000C301E40BB6803FA0AF31E43C8F80C60E8
:100CC8007B6813F0805FB1D000230193284B5A6CE6
:100CD80042F480425A645B6C03F480430193019BA5
:100CE800AB08991C204A52F8212005F003018C001A
:100CF8000F21A14022EA0102184880453FF461AF64
:100D08001C4988451AD001F58061884518D001F53D
:100D18008061884516D001F58061884514D001F5B9
:100D28008061884512D001F58061884510D001F5B1
:100D3800806188453FF443AF082143E7012141E73B
:100D480002213FE703213DE704213BE7052139E77D
:100D5800062137E702B0BDE8F08700BF0000024077
:100D6800C02200080000111000380140003C01407A
:100D7800003802400004024038B505460C4621B14F
:100D88002B691C4207D1002038BD4FF4C7710348B6
:100D9800FFF7E2FDF4E7012038BD00BFC0220008DC
:100DA80070B5064615460C4651B1012D04D94FF4CD
:100DB800D8710748FFF7D0FD45B92404B46170BD68
:100DC80040F2AF110248FFF7C7FDEEE7B46170BD0E
:100DD800C02200087047000008B5054B5B69034254
:100DE80000D108BD024B5861FFF7F4FFF9E700BFD7
:100DF800003C014010B4036A046A24F00104046250
:100E0800846924F0F00444EA021223F00A030B4335
:100E1800826103625DF8044B704710B4036A23F0E3
:100E2800100303628469036A24F4704444EA0232BA
:100E380023F0A00343EA0113826103625DF8044BC7
:100E48007047836823F0700341F007010B43836008
:100E5800704710B4846824F47F4442EA032319439A
:100E68000C4384605DF8044B7047000010B50446DD
:100E78000368234A934237D0B3F1804F34D0A2F5A8
:100E88007C42934230D002F5806293422CD002F526
:100E98008062934228D002F58062934224D002F502
:100EA8008062934220D002F5704293421CD002F532
:100EB8007052934218D002F58062934214D002F522
:100EC8008062934210D0A2F5983293420CD002F57A
:100ED8008062934208D002F58062934204D04FF4B6
:100EE800B1710848FFF738FD2268D36843F0010361
:100EF800D3602268136843F001031360002010BD1B
:100F080000000140F822000810B504460368284A8A
:100F1800934237D0B3F1804F34D0A2F57C4293424C
:100F280030D002F5806293422CD002F58062934261
:100F380028D002F58062934224D002F58062934261
:100F480020D002F5704293421CD002F570529342B1
:100F580018D002F58062934214D002F58062934261
:100F680010D0A2F5983293420CD002F580629342D9
:100F780008D002F58062934204D040F277110D4800
:100F8800FFF7EAFC2268D36823F00103D3602368E3
:100F9800196A41F21112114208D1196A40F2444209
:100FA800114203D11A6822F001021A60002010BD14
:100FB80000000140F822000838B590F83830012BBD
:100FC80000F0CD820D460446012380F83830022314
:100FD80080F839300B68B3F5805F16D0B3F5005F41
:100FE80013D093B1102B10D0202B0ED0302B0CD057
:100FF800402B0AD0502B08D0602B06D0702B04D081
:1010080040F67771A848FFF7A7FC2268936823F495
:101018007F4323F0770393602B68402B00F0F8811F
:101028004AD9702B00F0448100F2A580502B00F0C3
:101038009481602B40F0318123689C4A93421FD0F1
:10104800B3F1804F1CD0A2F57C42934218D002F530
:101058008062934214D002F58062934210D002F568
:10106800784293420CD002F57052934208D0A2F510
:101078009432934204D040F6C4718B48FFF76CFC5D
:101088006B68B3F5004F09D043B1022B06D00A2B89
:1010980004D040F6C7718448FFF75EFCEB680F2B5D
:1010A80000F2B081EA6869682068FFF7B6FE60213F
:1010B8002068FFF7C6FEF0E0102B00F0FE812ED965
:1010C800202B00F02382302B40F0E7802368774AFA
:1010D80093421FD0B3F1804F1CD0A2F57C429342BB
:1010E80018D002F58062934214D002F580629342D0
:1010F80010D002F5784293420CD002F57052934218
:1011080008D0A2F59432934204D040F6F2716648B2
:10111800FFF722FC30212068FFF793FEBDE0002B8B
:1011280040F0BB802368614A93421FD0B3F1804FDF
:101138001CD0A2F57C42934218D002F580629342FB
:1011480014D002F58062934210D002F5784293429F
:101158000CD002F57052934208D0A2F59432934213
:1011680004D04FF47E615048FFF7F6FB0021206859
:10117800FFF767FE91E0B3F5805F4DD0B3F5005FF0
:1011880040F08B802368494A934217D0B3F1804FCF
:1011980014D0A2F57C42934210D002F580629342AB
:1011A8000CD002F58062934208D002F5784293424F
:1011B80004D040F6A4713C48FFF7CEFB6B68B3F54A
:1011C800004F09D043B1022B06D00A2B04D040F6B9
:1011D800A6713548FFF7C0FBAB686BB1B3F5805F0C
:1011E8000AD0B3F5005F07D0B3F5405F04D040F6EE
:1011F800A7712D48FFF7B0FBEB680F2B00F2A78013
:10120800EB686A68A9682068FFF723FE226893687C
:1012180043F48043936040E02368244A934237D0E4
:10122800B3F1804F34D0A2F57C42934230D002F51E
:10123800806293422CD002F58062934228D002F556
:101248008062934224D002F58062934220D002F556
:10125800704293421CD002F57052934218D002F5A6
:101268008062934214D002F58062934210D0A2F5B6
:10127800983293420CD002F58062934208D002F56E
:101288008062934204D040F683710748FFF764FBFD
:101298002268936823F007039360012384F83930A8
:1012A800002084F8380038BDF8220008000001400A
:1012B8002368AC4A934217D0B3F1804F14D0A2F5FB
:1012C8007C42934210D002F5806293420CD002F522
:1012D8008062934208D002F57842934204D040F6E7
:1012E8008C71A148FFF738FB6B68B3F5004F09D044
:1012F80043B1022B06D00A2B04D040F68E719A48CF
:10130800FFF72AFBAB686BB1B3F5805F0AD0B3F582
:10131800005F07D0B3F5405F04D040F68F71924864
:10132800FFF71AFBEB680F2B0BD8EB686A68A96804
:101338002068FFF78EFD2268936843F07703936077
:10134800ABE74FF479618848FFF706FBEDE740F615
:10135800A8718548FFF700FB52E72368814A93424A
:101368002FD0B3F1804F2CD0A2F57C42934228D0E5
:1013780002F58062934224D002F58062934220D025
:1013880002F5784293421CD002F57052934218D06D
:1013980002F58062934214D002F58062934210D025
:1013A800A2F5983293420CD002F58062934208D09D
:1013B80002F58062934204D040F6B6716A48FFF79E
:1013C800CBFA6B68B3F5004F09D043B1022B06D0B6
:1013D8000A2B04D040F6B9716348FFF7BDFAEB68F1
:1013E8000F2B09D8EA6869682068FFF703FD5021C8
:1013F8002068FFF726FD50E740F6BA715A48FFF714
:10140800ABFAEFE740F6C8715748FFF7A5FA49E687
:101418002368544A93422FD0B3F1804F2CD0A2F5C1
:101428007C42934228D002F58062934224D002F590
:101438008062934220D002F5784293421CD002F594
:101448007052934218D002F58062934214D002F58C
:101458008062934210D0A2F5983293420CD002F5E4
:101468008062934208D002F58062934204D040F62D
:10147800D2713D48FFF770FA6B68B3F5004F09D099
:1014880043B1022B06D00A2B04D040F6D57136485A
:10149800FFF762FAEB680F2B09D8EA6869682068D9
:1014A800FFF7A8FC40212068FFF7CBFCF5E640F6E3
:1014B800D6712D48FFF750FAEFE72368294A93427F
:1014C8001FD0B3F1804F1CD0A2F57C42934218D0B4
:1014D80002F58062934214D002F58062934210D0E4
:1014E80002F5784293420CD002F57052934208D02C
:1014F800A2F59432934204D040F6E6711A48FFF7F9
:101508002BFA10212068FFF79CFCC6E62368154AD1
:1015180093421FD0B3F1804F1CD0A2F57C42934276
:1015280018D002F58062934214D002F5806293428B
:1015380010D002F5784293420CD002F570529342D3
:1015480008D0A2F59432934204D040F6EC710648D4
:10155800FFF702FA20212068FFF773FC9DE60220BE
:1015680038BD00BF00000140F822000870477047EE
:101578007047704710B5044603681A6912F0020FE5
:1015880011D0DA6812F0020F0DD06FF002021A6162
:101598000123037603689B6913F0030F70D0FFF7EC
:1015A800E6FF0023237623681A6912F0040F12D08D
:1015B800DA6812F0040F0ED06FF004021A610223E9
:1015C800237623689B6913F4407F5FD02046FFF79A
:1015D800CEFF0023237623681A6912F0080F12D071
:1015E800DA6812F0080F0ED06FF008021A610423AF
:1015F80023762368DB6913F0030F4ED02046FFF7EC
:10160800B6FF0023237623681A6912F0100F12D050
:10161800DA6812F0100F0ED06FF010021A6108236A
:1016280023762368DB6913F4407F3DD02046FFF71B
:101638009EFF0023237623681A6912F0010F03D056
:10164800DA6812F0010F36D123681A6912F0800F98
:1016580003D0DA6812F0800F34D123681A6912F0C7
:10166800400F03D0DA6812F0400F32D123681A69AC
:1016780012F0200F03D0DA6812F0200F30D110BD1D
:10168800FFF774FF2046FFF773FF8AE72046FFF74E
:101698006DFF2046FFF76CFF9BE72046FFF766FFCC
:1016A8002046FFF765FFACE72046FFF75FFF2046BF
:1016B800FFF75EFFBDE76FF001021A612046FFF7F2
:1016C800F1F8C1E76FF080021A612046FEF7CBFF00
:1016D800C3E76FF040021A612046FFF74AFFC5E7EB
:1016E8006FF020021A612046FEF7BCFFC7E7000032
:1016F8000368454A90424AD0B0F1804F49D0A2F5DC
:101708007C42904247D002F58062904245D002F573
:101718008062904243D002F57842904235D0002250
:101728001AB123F070034A681343374A90423AD0FB
:10173800B0F1804F50D0A2F57C4290424ED002F5D5
:10174800806290424CD002F5806290424AD002F505
:101758007842904248D002F57052904246D002F545
:101768008062904244D002F58062904242D0A2F555
:101778009832904240D002F5806290423ED002F505
:10178800806290420DD000220EE00122C8E70122BB
:10179800C6E70122C4E70122C2E70122C0E701220D
:1017A800BEE7012200E001221AB123F44073CA689F
:1017B800134303608B68C3620B688362124B9842C1
:1017C80020D003F5806398421AD000230BB10B692F
:1017D80003630123436170470122E5E70122E3E740
:1017E8000122E1E70122DFE70122DDE70122DBE751
:1017F8000122D9E70122D7E70122D5E70122D3E761
:101808000123E3E70123E1E70000014000286BD052
:1018180010B504460368354A934236D0B3F1804F79
:1018280033D0A2F57C4293422FD002F580629342D6
:101838002BD002F58062934227D002F58062934252
:1018480023D002F5806293421FD002F57042934282
:101858001BD002F57052934217D002F58062934272
:1018680013D002F5806293420FD0A2F598329342CA
:101878000BD002F58062934207D002F58062934252
:1018880003D0D7211A48FFF767F8A3685BB1102B7C
:1018980009D0202B07D0402B05D0602B03D0D821AE
:1018A8001348FFF759F823694BB1B3F5807F06D089
:1018B800B3F5007F03D0D9210D48FFF74DF894F810
:1018C80039305BB1022384F83930211D2068FFF7D5
:1018D8000FFF012384F83930002010BD84F8383018
:1018E8002046FFF769F8EDE7012070470000014046
:1018F800F822000810B50446C31E042B0FD80A4A64
:10190800D36823F4E0631B041B0C240204F4E06492
:10191800234343F0BF6343F40033D36010BDA221D7
:101928000248FFF719F8EAE700ED00E03023000865
:1019380070B505460C4616460F2A24D80F2C27D812
:101948001A4BDB68C3F30223C3F10702042A28BF3A
:101958000422191D062920D9033B012101FA02F2AC
:10196800013A14409C4001FA03F3013B33401C4305
:10197800002D14DB2401E4B205F1604505F561454D
:1019880085F8004370BDBA210948FEF7E5FFD5E7A1
:10199800BB210748FEF7E0FFD2E70023DDE705F0AB
:1019A8000F052401E4B2034B5C5570BD00ED00E067
:1019B8003023000814ED00E010B5041E09DB6209AD
:1019C80004F01F04012303FA04F4044B43F82240F3
:1019D80010BDCE210248FEF7BFFFF0E700E100E0AE
:1019E800302300080138B0F1807F0AD2064B5860D6
:1019F800F021064A82F823100020986007221A6016
:101A080070470120704700BF10E000E000ED00E0E3
:101A180010B50446042800D038B9042C0BD0094A64
:101A2800136823F00403136010BD40F2D91106486F
:101A3800FEF792FFF1E7034A136843F004031360CB
:101A480010BD00BF10E000E030230008704708B563
:101A5800FFF7FCFF08BD000010B50446074B1868E7
:101A6800074BA3FB00308009FFF7BCFF002221468B
:101A78004FF0FF30FFF75CFF002010BD0000002092
:101A8800D34D621008B50B4B1A6842F400721A6005
:101A98001A6842F480621A601A6842F480721A6006
:101AA8000320FFF727FF0020FFF7D6FFFEF755FFBB
:101AB800002008BD003C0240024A1368013313604D
:101AC800704700BF74000020014B1868704700BFC2
:101AD80074000020002800F0208230B583B004464E
:101AE80003680F2B3DD8236813F0010F4CD06368AF
:101AF8004BB1B3F5803F06D0B3F5A02F03D0FD213D
:101B0800A848FEF729FFA84B9B6803F00C03042B99
:101B180031D0A54B9B6803F00C03082B26D06368D3
:101B2800B3F5803F5FD0B3F5A02F62D09E4B1A6803
:101B380022F480321A601A6822F480221A606368DC
:101B4800002B60D0FFF7C0FF0546974B1B6813F4C6
:101B5800003F19D1FFF7B8FF401B6428F5D90320CF
:101B6800E0E1F8218F48FEF7F7FEBCE78E4B5B6893
:101B780013F4800FD3D08C4B1B6813F4003F03D0B1
:101B88006368002B00F0CB81236813F0020F66D046
:101B9800E368012B04D940F22F118248FEF7DCFEDE
:101BA80023691F2B3ED8804B9B6813F00C0F44D041
:101BB8007D4B9B6803F00C03082B39D0E368002B9E
:101BC80076D00122794B1A60FFF77EFF0546764BE7
:101BD8001B6813F0020F62D1FFF776FF401B022843
:101BE800F5D903209EE1704A136843F480331360EB
:101BF800A5E76D4B1A6842F480221A601A6842F40D
:101C080080321A609BE7FFF75FFF0546664B1B684B
:101C180013F4003FB8D0FFF757FF401B6428F5D9ED
:101C280003207FE14FF498715E48FEF795FEBAE70E
:101C38005D4B5B6813F4800FC0D15B4B1B6813F0DE
:101C4800020F04D0E368012B01D001206AE1564A53
:101C5800136823F0F803216943EAC103136023687A
:101C680013F0080F48D06369012B04D94FF4B871F9
:101C78004C48FEF771FE636963B301224C4B1A604E
:101C8800FFF722FF0546484B5B6F13F0020F33D175
:101C9800FFF71AFF401B0228F5D9032042E1424A08
:101CA800136823F0F803216943EAC1031360D6E7F8
:101CB80000223E4B1A60FFF707FF05463A4B1B68A8
:101CC80013F0020FCBD0FFF7FFFE401B0228F5D917
:101CD800032027E10022364B1A60FFF7F5FE054680
:101CE800314B5B6F13F0020F06D0FFF7EDFE401B80
:101CF8000228F5D9032015E1236813F0040F76D0E4
:101D0800A368012B06D9052B04D04FF4CD712548C3
:101D1800FEF722FE00230193234B1A6C42F08052F7
:101D28001A641B6C03F080530193019B214A1368CA
:101D380043F480731360FFF7C7FE05461D4B1B680D
:101D480013F4807F06D1FFF7BFFE401B0228F5D9A8
:101D58000320E7E0A368012B1DD0052B2CD0124BE4
:101D68001A6F22F001021A671A6F22F004021A672A
:101D7800A3685BB3FFF7A8FE05460B4B1B6F13F078
:101D8800020F34D1FFF7A0FE401B41F2883398427E
:101D9800F3D90320C6E0044A136F43F00103136725
:101DA800E6E700BF68230008003802400000474209
:101DB800800E4742007000405C4B1A6F42F00402EC
:101DC8001A671A6F42F001021A67D1E7FFF77CFE23
:101DD8000546564B1B6F13F0020F08D0FFF774FE31
:101DE800401B41F288339842F3D903209AE0A36953
:101DF800022B1ED8A369002B00F093804B4A9268EF
:101E080002F00C02082A00F08F80022B17D0002263
:101E1800474B1A60FFF758FE0446444B1B6813F003
:101E2800007F78D0FFF750FE001B0228F5D9032069
:101E380078E040F2CF113F48FEF78EFDDAE7E3691C
:101E48003BB1B3F5800F04D04FF4EC713948FEF77D
:101E580083FD236A3F2B28D8636A323BB3F5BF7FE3
:101E680029D8A36A022B0AD0042B08D0062B06D047
:101E7800082B04D040F2DB112E48FEF76DFDE36A13
:101E8800023B0D2B1DD80022294B1A60FFF71CFEC0
:101E98000546264B1B6813F0007F18D0FFF714FE89
:101EA800401B0228F5D903203CE040F2D911214813
:101EB800FEF752FDD0E74FF4ED711E48FEF74CFDDA
:101EC800CFE74FF4EE711B48FEF746FDDBE7E36909
:101ED800226A1343626A43EA8213A26A5208013AE9
:101EE80043EA0243E26A43EA0263104A536001226A
:101EF8000F4B1A60FFF7E8FD04460C4B1B6813F004
:101F0800007F06D1FFF7E0FD001B0228F5D903206A
:101F180008E0002006E0002004E0012070470120CE
:101F280000E0002003B030BD0120FBE7003802408C
:101F38006000474268230008F8B5254B9B6803F00A
:101F48000C03042B41D0082B01D02248F8BD204BAC
:101F58005A6802F03F025B6813F4800F12D01C4BE2
:101F68005968C1F3881100231B48A1FB0001FEF743
:101F780081F9174B5B68C3F3014301335B00B0FB86
:101F8800F3F0F8BD124B5B68C3F388131E460027B5
:101F98005C010025E41A65EB0705A90141EA946193
:101FA800A001001B61EB0501CB0043EA5073C4009C
:101FB800A01943EB07018B0243EA905384022046A1
:101FC80019460023FEF756F9D3E70348F8BD00BFCA
:101FD800003802400024F40040787D01002800F019
:101FE800F68070B504460D460368013B0E2B11D8E8
:101FF800072D15D8784B1B6803F00F039D4215D9A0
:10200800EBB2754A1370136803F00F039D420DD0AD
:10201800012070BD4FF410717048FEF79DFCE7E792
:1020280040F241216D48FEF797FCE3E7236813F07F
:10203800020F2ED013F0040F04D0694A936843F4BA
:10204800E0539360236813F0080F04D0644A936840
:1020580043F460439360A368A3B1802B12D0902B04
:1020680010D0A02B0ED0B02B0CD0C02B0AD0D02B68
:1020780008D0E02B06D0F02B04D04FF41971574844
:10208800FEF76AFC564A936823F0F003A1680B43F5
:102098009360236813F0010F3CD06368032B25D8A5
:1020A8006368012B28D09A1E012A2CD94C4A126841
:1020B80012F0020F00F08D8049498A6822F003026D
:1020C80013438B60FFF700FD0646454B9B6803F002
:1020D8000C036268B3EB820F1CD0FFF7F5FC801B82
:1020E80041F288339842F0D9032070BD40F26B2149
:1020F8003A48FEF731FCD3E7394A126812F4003F38
:10210800DAD1012070BD364A126812F0007FD3D1AF
:10211800012070BD304B1B6803F00F039D4209D2AC
:10212800EAB22D4B1A701B6803F00F039D4201D0D1
:10213800012070BD236813F0040F19D0E36883B140
:10214800B3F5805F0DD0B3F5A05F0AD0B3F5C05FDB
:1021580007D0B3F5E05F04D040F2A9211F48FEF78D
:10216800FBFB1F4A936823F4E053E1680B43936039
:10217800236813F0080F1AD0236983B1B3F5805F81
:102188000DD0B3F5A05F0AD0B3F5C05F07D0B3F5A3
:10219800E05F04D04FF42C711048FEF7DDFB104AC5
:1021A800936823F46043216943EAC1039360FFF70E
:1021B800C3FE0B4B9B68C3F303130A4AD35CD84096
:1021C800094B18600020FFF747FC002070BD012074
:1021D8007047012070BD00BF003C02406823000822
:1021E80000380240B022000800000020014B1868A7
:1021F800704700BF00000020DFF834D0002103E062
:102208000C4B5B58435004310B480C4B42189A4214
:10221800F6D30B4A02E0002342F8043B094B9A42EA
:10222800F9D3FEF707FCFDF7FDFFFEF71FFB70472C
:1022380000000220B0230008000000200400002055
:102248000400002078000020FEE70000F8B500BF79
:10225800F8BC08BC9E467047F8B500BFF8BC08BC7F
:042268009E467047D7
:10226C00447269766572732F53544D333246347809
:10227C00785F48414C5F4472697665722F53726384
:10228C002F73746D3332663478785F68616C5F7469
:10229C00696D5F65782E63005372632F6D61696E93
:1022AC002E63000000000000000000000102030487
:1022BC0006070809447269766572732F53544D33BF
:1022CC0032463478785F48414C5F44726976657267
:1022DC002F5372632F73746D3332663478785F6862
:1022EC00616C5F6770696F2E6300000044726976E1
:1022FC006572732F53544D3332463478785F4841AE
:10230C004C5F4472697665722F5372632F73746DD0
:10231C003332663478785F68616C5F74696D2E63F4
:10232C0000000000447269766572732F53544D336C
:10233C0032463478785F48414C5F447269766572F6
:10234C002F5372632F73746D3332663478785F68F1
:10235C00616C5F636F727465782E6300447269768A
:10236C006572732F53544D3332463478785F48413D
:10237C004C5F4472697665722F5372632F73746D60
:10238C003332663478785F68616C5F7263632E6396
:04239C00000000003D
:0823A0000CDFFF7F01000000CB
:0423A800F501000833
:0423AC00CD01000857
:0423B0000024F40011
:0400000508002201CC
:00000001FF
