:020000040800F2
:1000000000000220E51C0008F5190008F719000897
:10001000F9190008FB190008FD190008000000008C
:10002000000000000000000000000000FF190008B0
:10003000011A000800000000031A0008051A000851
:10004000351D0008351D0008351D0008351D000848
:10005000351D0008351D0008351D0008351D000838
:10006000351D0008351D0008351D0008351D000828
:10007000351D0008351D0008351D0008351D000818
:10008000351D0008351D0008351D0008351D000808
:10009000351D0008351D0008351D0008351D0008F8
:1000A000351D0008351D0008351D0008351D0008E8
:1000B000351D0008351D0008111A0008351D0008FF
:1000C000351D0008351D0008351D0008351D0008C8
:1000D000351D0008351D0008351D0008351D0008B8
:1000E000211A0008351D0008351D0008351D0008BF
:1000F000351D0008351D0008351D0008351D000898
:10010000351D0008351D0008351D0008351D000887
:10011000351D0008351D0008351D0008351D000877
:10012000351D0008351D0008351D0008351D000867
:10013000351D0008351D0008351D0008351D000857
:10014000351D0008351D0008351D0008351D000847
:10015000351D0008351D0008351D0008351D000837
:10016000351D0008351D0008351D0008351D000827
:10017000351D0008351D0008351D00080000000071
:08018000351D0008351D0008C3
:10018800044B05481B1A062B02D9044B03B1184728
:10019800704700BF07000020040000200000000096
:1001A80005490648091A891001EBD171491002D096
:1001B800034B03B1184770470400002004000020D7
:1001C8000000000010B5064C237843B9FFF7D8FFAC
:1001D800044B13B10448AFF300800123237010BD12
:1001E8000400002000000000381D000808B5084B76
:1001F8001BB108490848AFF300800848036813B9E1
:10020800BDE80840CCE7064B002BF9D09847F7E744
:100218000000000008000020381D0008040000202D
:100228000000000070B50F4E0F4D761BB61018BFBA
:10023800002405D0013455F8043B9847A642F9D16B
:100248000A4E0B4D761B01F073FDB61018BF002443
:1002580006D0013455F8043B9847A642F9D170BD41
:1002680070BD00BF8C1E00088C1E0008901E000880
:100278008C1E000853B94AB9002908BF00281CBFC2
:100288004FF0FF314FF0FF3000F07AB9ADF1080CB4
:100298006DE904CE00F006F8DDF804E0DDE902239C
:1002A80004B070472DE9F0478C460D460446089E79
:1002B800002B51D18A4217466DD9B2FA82FEBEF19F
:1002C800000F0BD0CEF1200C01FA0EF520FA0CFC31
:1002D80002FA0EF74CEA050C00FA0EF44FEA174A38
:1002E800250CBCFBFAF81FFA87F90AFB18CC45EA7B
:1002F8000C4508FB09F3AB420AD9ED1908F1FF32A6
:1003080080F02381AB4240F22081A8F102083D44ED
:10031800ED1AA4B2B5FBFAF00AFB105544EA0544FD
:1003280000FB09F9A14509D9E41900F1FF3380F070
:100338000A81A14540F2078102383C44A4EB090434
:1003480040EA08400021002E61D024FA0EF4002370
:1003580034607360BDE8F0878B4207D9002E54D013
:10036800002186E821000846BDE8F087B3FA83F14A
:10037800002940F08E80AB4202D3824200F2FA801C
:10038800841A65EB03050120AC46002E3FD086E8B1
:100398001010BDE8F08712B90127B7FBF2F7B7FADA
:1003A80087FEBEF1000F34D1EB1B3A0C1FFA87FC15
:1003B8000121B3FBF2F8250C02FB183345EA03458B
:1003C8000CFB08F3AB4207D9ED1908F1FF3002D254
:1003D800AB4200F2D1808046ED1AA3B2B5FBF2F031
:1003E80002FB105543EA05440CFB00FCA44507D961
:1003F800E41900F1FF3302D2A44500F2B880184690
:10040800A4EB0C0440EA08409DE731463046BDE8BD
:10041800F087CEF1200405FA0EF307FA0EF720FA5A
:1004280004F83A0C25FA04F448EA0308B4FBF2F19C
:100438004FEA184502FB11441FFA87FC45EA0445B8
:1004480001FB0CF3AB4200FA0EF409D9ED1901F1E6
:10045800FF3080F08A80AB4240F2878002393D4409
:10046800EB1A1FFA88F5B3FBF2F002FB103345EAEA
:10047800034500FB0CF3AB4207D9ED1900F1FF3837
:100488006FD2AB426DD902383D44EB1A40EA0141C4
:100498008FE7C1F1200722FA07F88B4005FA01F42B
:1004A80048EA030320FA07FE4FEA134CFD404EEAE0
:1004B800040EB5FBFCF94FEA1E440CFB19551FFA54
:1004C80083F844EA054509FB08F4AC4202FA01F254
:1004D80000FA01FA08D9ED1809F1FF3043D2AC420D
:1004E80041D9A9F102091D442D1B1FFA8EFEB5FB47
:1004F800FCF00CFB10554EEA054400FB08F8A0453B
:1005080007D9E41800F1FF3529D2A04527D90238C8
:100518001C4440EA0940A4EB0804A0FB02894C45AE
:10052800C6464D4615D312D056B1BAEB0E0364EB4E
:10053800050404FA07F7CB401F43CC4037607460CA
:100548000021BDE8F0871846F8E69046E0E6C24587
:10055800EAD2B8EB020E69EB03050138E4E7284656
:10056800D7E7404691E78146BEE7014678E702387B
:100578003C4445E7084608E7A8F102083D442BE754
:10058800704700BF30B4046A24F010040462846920
:10059800056A24F4407444EA022222F470421B03E0
:1005A8009BB21A4325F0A005090101F0A0010D43F3
:1005B8008261056230BC704730B4046A24F48074E8
:1005C8000462C469056A24F00304224322F0F0029D
:1005D8001B01DBB21A4325F42065090201F42061EE
:1005E8000D43C261056230BC704730B4046A24F41C
:1005F80080540462C469056A24F4407444EA0222FF
:1006080022F470421B039BB21A4325F420450903C8
:1006180001F420410D43C261056230BC7047704748
:10062800704770477047704710B5044603681A69E9
:1006380012F0020F11D0DA6812F0020F0DD06FF02D
:1006480002021A610123037603689B6913F0030F02
:1006580070D0FFF7E6FF0023237623681A6912F0AB
:10066800040F12D0DA6812F0040F0ED06FF00402F3
:100678001A610223237623689B6913F4407F5FD0B5
:100688002046FFF7CEFF0023237623681A6912F06D
:10069800080F12D0DA6812F0080F0ED06FF00802B7
:1006A8001A61042323762368DB6913F0030F4ED005
:1006B8002046FFF7B6FF0023237623681A6912F055
:1006C800100F12D0DA6812F0100F0ED06FF010026F
:1006D8001A61082323762368DB6913F4407F3DD031
:1006E8002046FFF79EFF0023237623681A6912F03D
:1006F800010F03D0DA6812F0010F36D123681A69A6
:1007080012F0800F03D0DA6812F0800F34D123681A
:100718001A6912F0400F03D0DA6812F0400F32D194
:1007280023681A6912F0200F03D0DA6812F0200F3C
:1007380030D110BDFFF774FF2046FFF773FF8AE73B
:100748002046FFF76DFF2046FFF76CFF9BE720462A
:10075800FFF766FF2046FFF765FFACE72046FFF787
:100768005FFF2046FFF75EFFBDE76FF001021A61E9
:100778002046FFF754FFC1E76FF080021A61204658
:1007880001F0C1F9C3E76FF040021A612046FFF794
:100798004AFFC5E76FF020021A61204601F0B2F95E
:1007A800C7E700000368454A90424AD0B0F1804F3D
:1007B80049D0A2F57C42904247D002F5806290422F
:1007C80045D002F58062904243D002F578429042CB
:1007D80035D000221AB123F070034A681343374A10
:1007E80090423AD0B0F1804F50D0A2F57C4290426E
:1007F8004ED002F5806290424CD002F58062904261
:100808004AD002F57842904248D002F570529042A0
:1008180046D002F58062904244D002F58062904250
:1008280042D0A2F59832904240D002F580629042C0
:100838003ED002F5806290420DD000220EE00122E7
:10084800C8E70122C6E70122C4E70122C2E7012264
:10085800C0E70122BEE7012200E001221AB123F419
:100868004073CA68134303608B68C3620B68836272
:10087800124B984220D003F5806398421AD0002387
:100888000BB10B6903630123436170470122E5E75C
:100898000122E3E70122E1E70122DFE70122DDE7A8
:1008A8000122DBE70122D9E70122D7E70122D5E7B8
:1008B8000122D3E70123E3E70123E1E70000014038
:1008C80000286ED010B504460368374A934237D0E3
:1008D800B3F1804F34D0A2F57C42934230D002F578
:1008E800806293422CD002F58062934228D002F5B0
:1008F8008062934224D002F58062934220D002F5B0
:10090800704293421CD002F57052934218D002F5FF
:100918008062934214D002F58062934210D0A2F50F
:10092800983293420CD002F58062934208D002F5C7
:100938008062934204D040F2F4511C4801F0CCF993
:10094800A36863B1102B0AD0202B08D0402B06D007
:10095800602B04D040F2F551144801F0BDF9236929
:1009680053B1B3F5807F07D0B3F5007F04D040F2D0
:10097800F6510E4801F0B0F994F839305BB1022312
:1009880084F83930211D2068FFF70CFF012384F813
:100998003930002010BD84F83830204600F02CFE95
:1009A800EDE70120704700BF00000140501D00081E
:1009B80070B4046A24F0010404628469056A234E51
:1009C800B04230D0B0F1804F2FD0A6F57C46B0426F
:1009D8002DD006F58066B0422BD006F58066B04271
:1009E80029D006F57846B04227D006F57056B042B1
:1009F80025D0A6F59436B04213D000260EBB24F0BD
:100A0800030242F0010222F0F0021B01DBB21343A1
:100A180025F00A0201F00A0111438361016270BCEA
:100A280070470126EAE70126E8E70126E6E70126FE
:100A3800E4E70126E2E70126E0E70126DEE70126F2
:100A4800DCE724F003042243DDE700BF0000014097
:100A580070B504460D46164603688D4A93422FD05A
:100A6800B3F1804F2CD0A2F57C42934228D002F5F6
:100A78008062934224D002F58062934220D002F52E
:100A8800784293421CD002F57052934218D002F576
:100A98008062934214D002F58062934210D0A2F58E
:100AA800983293420CD002F58062934208D002F546
:100AB8008062934204D040F6E531764801F00CF9A3
:100AC8002B6843B1022B06D00A2B04D040F6E6313E
:100AD800704801F001F96B68013B022B55D8AB68EF
:100AE80053B1042B08D0082B06D00C2B04D040F6A9
:100AF800E831684801F0F0F8EB680F2B4BD894F810
:100B08003830012B00F0C180012384F838300223EB
:100B180084F83930002E44D0042E53D0082E00F02B
:100B2800878023685A4A934217D0B3F1804F14D074
:100B3800A2F57C42934210D002F5806293420CD019
:100B480002F58062934208D002F57842934204D0BD
:100B58004FF442614F4801F0BFF8EB686A682968B2
:100B68002068FFF742FD2268D36923F44063D3610C
:100B78002268D369A96843EA0123D361012384F871
:100B88003930002084F8380070BD40F6E73141481C
:100B980001F0A2F8A3E740F6E9313E4801F09CF8DD
:100BA800ADE7EB686A6829682068FFF701FF2268EB
:100BB800936923F00C03936122689369A9680B4336
:100BC8009361DBE72368324A93421FD0B3F1804F29
:100BD8001CD0A2F57C42934218D002F58062934261
:100BE80014D002F58062934210D002F57842934205
:100BF8000CD002F57052934208D0A2F59432934279
:100C080004D04FF44061234801F066F8EB686A6845
:100C180029682068FFF7B6FC2268936923F44063CB
:100C2800936122689369A96843EA01239361A5E760
:100C38002368174A934217D0B3F1804F14D0A2F516
:100C48007C42934210D002F5806293420CD002F5A8
:100C58008062934208D002F57842934204D04FF460
:100C680041610C4801F038F8EB686A682968206827
:100C7800FFF7A2FC2268D36923F00C03D361226832
:100C8800D369A9680B43D36178E7022070BD00BF20
:100C980000000140501D0008002800F0208230B5F7
:100CA80083B0044603680F2B3DD8236813F0010F67
:100CB8004CD063684BB1B3F5803F06D0B3F5A02F95
:100CC80003D0FD21A84801F007F8A84B9B6803F062
:100CD8000C03042B31D0A54B9B6803F00C03082BA5
:100CE80026D06368B3F5803F5FD0B3F5A02F62D0FC
:100CF8009E4B1A6822F480321A601A6822F4802205
:100D08001A606368002B60D000F090FB0546974B93
:100D18001B6813F4003F19D100F088FB401B6428BE
:100D2800F5D90320E0E1F8218F4800F0D5FFBCE7B2
:100D38008E4B5B6813F4800FD3D08C4B1B6813F475
:100D4800003F03D06368002B00F0CB81236813F0C9
:100D5800020F66D0E368012B04D940F22F118248B4
:100D680000F0BAFF23691F2B3ED8804B9B6813F015
:100D78000C0F44D07D4B9B6803F00C03082B39D033
:100D8800E368002B76D00122794B1A6000F04EFB05
:100D98000546764B1B6813F0020F62D100F046FB44
:100DA800401B0228F5D903209EE1704A136843F4DA
:100DB80080331360A5E76D4B1A6842F480221A60ED
:100DC8001A6842F480321A609BE700F02FFB054650
:100DD800664B1B6813F4003FB8D000F027FB401B9C
:100DE8006428F5D903207FE14FF498715E4800F03C
:100DF80073FFBAE75D4B5B6813F4800FC0D15B4BA0
:100E08001B6813F0020F04D0E368012B01D0012006
:100E18006AE1564A136823F0F803216943EAC103DB
:100E28001360236813F0080F48D06369012B04D9B5
:100E38004FF4B8714C4800F04FFF636963B3012267
:100E48004C4B1A6000F0F2FA0546484B5B6F13F002
:100E5800020F33D100F0EAFA401B0228F5D903202B
:100E680042E1424A136823F0F803216943EAC103C7
:100E78001360D6E700223E4B1A6000F0D7FA054609
:100E88003A4B1B6813F0020FCBD000F0CFFA401B8F
:100E98000228F5D9032027E10022364B1A6000F01A
:100EA800C5FA0546314B5B6F13F0020F06D000F010
:100EB800BDFA401B0228F5D9032015E1236813F079
:100EC800040F76D0A368012B06D9052B04D04FF464
:100ED800CD71254800F000FF00230193234B1A6CC5
:100EE80042F080521A641B6C03F080530193019BFB
:100EF800214A136843F48073136000F097FA05469B
:100F08001D4B1B6813F4807F06D100F08FFA401B3D
:100F18000228F5D90320E7E0A368012B1DD0052B93
:100F28002CD0124B1A6F22F001021A671A6F22F0A6
:100F380004021A67A3685BB300F078FA05460B4B06
:100F48001B6F13F0020F34D100F070FA401B41F20E
:100F580088339842F3D90320C6E0044A136F43F05C
:100F680001031367E6E700BF881D00080038024048
:100F780000004742800E4742007000405C4B1A6FE9
:100F880042F004021A671A6F42F001021A67D1E7A9
:100F980000F04CFA0546564B1B6F13F0020F08D0B1
:100FA80000F044FA401B41F288339842F3D90320F9
:100FB8009AE0A369022B1ED8A369002B00F0938046
:100FC8004B4A926802F00C02082A00F08F80022B2C
:100FD80017D00022474B1A6000F028FA0446444B09
:100FE8001B6813F0007F78D000F020FA001B02285D
:100FF800F5D9032078E040F2CF113F4800F06CFEAD
:10100800DAE7E3693BB1B3F5800F04D04FF4EC7134
:10101800394800F061FE236A3F2B28D8636A323BC7
:10102800B3F5BF7F29D8A36A022B0AD0042B08D0B6
:10103800062B06D0082B04D040F2DB112E4800F016
:101048004BFEE36A023B0D2B1DD80022294B1A6088
:1010580000F0ECF90546264B1B6813F0007F18D00A
:1010680000F0E4F9401B0228F5D903203CE040F2E7
:10107800D911214800F030FED0E74FF4ED711E4839
:1010880000F02AFECFE74FF4EE711B4800F024FE73
:10109800DBE7E369226A1343626A43EA8213A26ABE
:1010A8005208013A43EA0243E26A43EA0263104AF9
:1010B800536001220F4B1A6000F0B8F904460C4B3C
:1010C8001B6813F0007F06D100F0B0F9001B02285E
:1010D800F5D9032008E0002006E0002004E0012004
:1010E8007047012000E0002003B030BD0120FBE77D
:1010F8000038024060004742881D0008F8B5254BBB
:101108009B6803F00C03042B41D0082B01D0224824
:10111800F8BD204B5A6802F03F025B6813F4800F59
:1011280012D01C4B5968C1F3881100231B48A1FB3E
:101138000001FFF79FF8174B5B68C3F301430133C6
:101148005B00B0FBF3F0F8BD124B5B68C3F3881388
:101158001E4600275C010025E41A65EB0705A90176
:1011680041EA9461A001001B61EB0501CB0043EA51
:101178005073C400A01943EB07018B0243EA905354
:101188008402204619460023FFF774F8D3E7034882
:10119800F8BD00BF003802400024F40040787D010B
:1011A800002800F0F68070B504460D460368013B40
:1011B8000E2B11D8072D15D8784B1B6803F00F0399
:1011C8009D4215D9EBB2754A1370136803F00F03EB
:1011D8009D420DD0012070BD4FF41071704800F091
:1011E8007BFDE7E740F241216D4800F075FDE3E73C
:1011F800236813F0020F2ED013F0040F04D0694AAD
:10120800936843F4E0539360236813F0080F04D005
:10121800644A936843F460439360A368A3B1802B46
:1012280012D0902B10D0A02B0ED0B02B0CD0C02BEE
:101238000AD0D02B08D0E02B06D0F02B04D04FF4E6
:101248001971574800F048FD564A936823F0F00397
:10125800A1680B439360236813F0010F3CD06368C7
:10126800032B25D86368012B28D09A1E012A2CD974
:101278004C4A126812F0020F00F08D8049498A68C2
:1012880022F0030213438B6000F0D0F80646454B6A
:101298009B6803F00C036268B3EB820F1CD000F06C
:1012A800C5F8801B41F288339842F0D9032070BDFD
:1012B80040F26B213A4800F00FFDD3E7394A126833
:1012C80012F4003FDAD1012070BD364A126812F0DC
:1012D800007FD3D1012070BD304B1B6803F00F0392
:1012E8009D4209D2EAB22D4B1A701B6803F00F0316
:1012F8009D4201D0012070BD236813F0040F19D05E
:10130800E36883B1B3F5805F0DD0B3F5A05F0AD071
:10131800B3F5C05F07D0B3F5E05F04D040F2A92170
:101328001F4800F0D9FC1F4A936823F4E053E16892
:101338000B439360236813F0080F1AD0236983B115
:10134800B3F5805F0DD0B3F5A05F0AD0B3F5C05FE9
:1013580007D0B3F5E05F04D04FF42C71104800F0CB
:10136800BBFC104A936823F46043216943EAC10334
:101378009360FFF7C3FE0B4B9B68C3F303130A4A42
:10138800D35CD840094B1860002000F017F8002003
:1013980070BD01207047012070BD00BF003C0240B5
:1013A800881D000800380240301E00080000002098
:1013B800014B1868704700BF0000002010B50446B4
:1013C800074B1868074BA3FB0030800900F0ACF806
:1013D800002221464FF0FF3000F04CF8002010BDED
:1013E80000000020D34D621008B50B4B1A6842F478
:1013F80000721A601A6842F480621A601A6842F42D
:1014080080721A60032000F017F80020FFF7D6FF5B
:1014180000F0C3F8002008BD003C0240024A1368EF
:1014280001331360704700BF20000020014B18688B
:10143800704700BF2000002010B50446C31E042BCF
:101448000FD80A4AD36823F4E0631B041B0C240258
:1014580004F4E064234343F0BF6343F40033D360F0
:1014680010BDA221024800F037FCEAE700ED00E0D9
:10147800C01D000870B505460C4616460F2A24D82C
:101488000F2C27D81A4BDB68C3F30223C3F10702DA
:10149800042A28BF0422191D062920D9033B01214B
:1014A80001FA02F2013A14409C4001FA03F3013BAD
:1014B80033401C43002D14DB2401E4B205F16045E0
:1014C80005F5614585F8004370BDBA21094800F06B
:1014D80003FCD5E7BB21074800F0FEFBD2E7002359
:1014E800DDE705F00F052401E4B2034B5C5570BD40
:1014F80000ED00E0C01D000814ED00E010B5041E6A
:1015080009DB620904F01F04012303FA04F4044B05
:1015180043F8224010BDCE21024800F0DDFBF0E781
:1015280000E100E0C01D00080138B0F1807F0AD258
:10153800064B5860F021064A82F823100020986074
:1015480007221A6070470120704700BF10E000E0D2
:1015580000ED00E010B50446042800D038B9042C8A
:101568000BD0094A136823F00403136010BD40F23E
:10157800D911064800F0B0FBF1E7034A136843F0BD
:101588000403136010BD00BF10E000E0C01D000898
:10159800704708B5FFF7FCFF08BD08B50320FFF743
:1015A8004BFF002211466FF00B00FFF763FF00228C
:1015B80011466FF00A00FFF75DFF002211466FF039
:1015C8000900FFF757FF002211466FF00400FFF7EC
:1015D80051FF002211466FF00300FFF74BFF002276
:1015E80011466FF00100FFF745FF002211464FF04A
:1015F800FF30FFF73FFF08BD0268144B9A4200D046
:10160800704710B586B00024009403F50C331A6CAB
:1016180042F004021A641B6C03F004030093009B5D
:101628004FF4804301930223029303930494059398
:1016380001A9074800F00EF8224601211E20FFF7F5
:1016480019FF1E20FFF75AFF06B010BD0008004022
:10165800000C02402DE9F04782B080460F46B44B9B
:10166800984223D003F5806398421FD003F5806326
:1016780098421BD003F58063984217D003F5806326
:10168800984213D003F5806398420FD003F5806326
:1016980098420BD003F58063984207D003F5806326
:1016A800984203D0C321A34800F016FB3B689AB2C6
:1016B80012B11B0C1B041BB1C4219E4800F00CFB8B
:1016C8007B68012B22D9112B20D0022B1ED0122B84
:1016D8001CD0994A934219D002F58012934215D032
:1016E80002F58012934211D0A2F5F81293420DD060
:1016F80002F58012934209D002F58012934205D078
:10170800032B03D0C5218B4800F0E6FABB68022BF7
:1017180001D8002575E0C621864800F0DDFAF8E713
:101728003B69FBB1092B1DD0012B1BD0022B19D013
:10173800032B17D0042B15D0052B13D0062B11D053
:10174800072B0FD0082B0DD00A2B0BD00B2B09D051
:101758000C2B07D00D2B05D00F2B03D0D7217548A4
:1017680000F0BAFAE908083158F8213005F0070204
:1017780092000F20904023EA0003386900FA02F231
:10178800134348F821304CE0EA216A4800F0A4FAF3
:1017980063E0072100E00021A1400A4302336749C2
:1017A80041F82320664B1A686FEA090302EA03012D
:1017B800786810F4803F01D049EA0201604A11605C
:1017C800526803EA0201786810F4003F01D049EA40
:1017D80002015B4A5160926803EA0201786810F4DA
:1017E800801F01D049EA0201554A9160D26813402E
:1017F800796811F4001F01D049EA0203504AD36006
:1018080001350F2D00F290800124AC403B6804EABA
:1018180003094C45F4D17B68022B81D0122B3FF48D
:101828007FAFD8F800304FEA450A032606FA0AF6D1
:10183800F64333407A6802F0030202FA0AF21343CD
:10184800C8F800307B685A1E012A03D9112B01D031
:10185800122B16D1FB68032B96D8D8F808303340E2
:10186800FA6802FA0AF21343C8F80830D8F80430C4
:1018780023EA04047B68C3F30013AB401C43C8F895
:101888000440D8F80C301E40BB6803FA0AF31E4324
:10189800C8F80C607B6813F0805FB1D00023019317
:1018A800284B5A6C42F480425A645B6C03F48043C0
:1018B8000193019BAB08991C204A52F8212005F09E
:1018C80003018C000F21A14022EA0102184880453B
:1018D8003FF461AF1C4988451AD001F580618845FD
:1018E80018D001F58061884516D001F580618845DA
:1018F80014D001F58061884512D001F580618845D2
:1019080010D001F5806188453FF443AF082143E7D3
:10191800012141E702213FE703213DE704213BE79D
:10192800052139E7062137E702B0BDE8F08700BF97
:1019380000000240F81D00080000111000380140A6
:10194800003C0140003802400004024070B50646E1
:1019580015460C4651B1012D04D94FF4D8710748EA
:1019680000F0BAF945B92404B46170BD40F2AF1172
:10197800024800F0B1F9EEE7B46170BDF81D000847
:101988007047000008B5054B5B69034200D108BDEC
:10199800024B5861FFF7F4FFF9E700BF003C014034
:1019A8000F49D1F8883043F47003C1F888300D4BE3
:1019B8001A6842F001021A60002098601A6822F042
:1019C800847222F480321A60074A5A601A6822F434
:1019D80080221A60D8604FF000638B60704700BFA8
:1019E80000ED00E000380240103000247047FEE7A8
:1019F800FEE7FEE7FEE770477047704708B5FFF758
:101A08000DFDFFF7C6FD08BD08B50248FEF70CFE40
:101A180008BD00BF2400002008B54FF48050FFF730
:101A2800B1FF08BD38B504460D460368334A9342F2
:101A38001FD0B3F1804F1CD0A2F57C42934218D03E
:101A480002F58062934214D002F58062934210D06E
:101A580002F5806293420CD002F58062934208D06E
:101A680002F57042934204D040F24A61244800F0E3
:101A780033F92B6893B1102B10D0202B0ED0302BBC
:101A88000CD0402B0AD0502B08D0602B06D0702BDE
:101A980004D040F24B611A4800F01EF96B68802BA5
:101AA80000D01BBB94F83830012B25D0012284F8D4
:101AB8003820022384F8393021684B6823F07003FA
:101AC8004B6021684B68286803434B6021688B682A
:101AD80023F080038B6021688B68686803438B6000
:101AE80084F83920002084F8380038BD40F24C6171
:101AF800034800F0F1F8D5E7022038BD00000140A6
:101B0800401E000870477047F0B589B00024019462
:101B18001C4B1A6B42F020021A631A6B02F0200267
:101B28000192019A02941A6B42F008021A631B6B25
:101B380003F008030293029B134D22463C212846DA
:101B4800FFF704FF3C230393012604960227059719
:101B5800069403A92846FFF77DFD4FF480530393AD
:101B68000A4B0493059703A92846FFF773FD2246FD
:101B780031462820FFF77EFC2820FFF7BFFC09B07C
:101B8800F0BD00BF003802400014024000001110F0
:101B9800FEE7000000B587B01848194B0360002322
:101BA800436083604FF6FF72C2600361FEF788FEF0
:101BB800B8B900230493059304A91048FFF732FF2E
:101BC80098B90A23009301230193002302930393F6
:101BD800082269460948FEF73BFF50B907B05DF88F
:101BE80004FBB7210748FFF7D3FFBE210548FFF7DD
:101BF800CFFFC7210348FFF7CBFF00BF2400002019
:101C080000080040781E000800B595B00023019335
:101C1800284A116C41F080511164126C02F0805214
:101C28000192019A0293244A116841F4804111609B
:101C3800126802F480420292029A0221089101225B
:101C48000B9210220C920E910F9310924FF4807306
:101C5800119304231293139308A8FFF71DF808BBE8
:101C68000F23039302210491002305934FF480521C
:101C78000692079303A8FFF793FAB8B9FFF798FB02
:101C88000E4BA3FB00308009FFF74EFC0420FFF742
:101C980061FC002211464FF0FF30FFF7EBFB15B057
:101CA8005DF804FB8C210648FFF772FF9A2104486F
:101CB800FFF76EFF0038024000700040D34D6210FD
:101CC800781E000808B5FFF78FFBFFF79DFFFFF7A9
:101CD8001BFFFFF75FFFFEE770470000DFF834D017
:101CE800002103E00C4B5B58435004310B480C4B6C
:101CF80042189A42F6D30B4A02E0002342F8043B0A
:101D0800094B9A42F9D3FFF74BFEFEF78BFAFFF720
:101D1800D9FF704700000220941E00080000002030
:101D2800040000200400002060000020FEE70000FE
:101D3800F8B500BFF8BC08BC9E467047F8B500BFB0
:081D4800F8BC08BC9E46704780
:101D5000447269766572732F53544D33324634782A
:101D6000785F48414C5F4472697665722F537263A5
:101D70002F73746D3332663478785F68616C5F748A
:101D8000696D2E6300000000447269766572732FDE
:101D900053544D3332463478785F48414C5F447237
:101DA000697665722F5372632F73746D33326634A4
:101DB00078785F68616C5F7263632E630000000077
:101DC000447269766572732F53544D3332463478BA
:101DD000785F48414C5F4472697665722F53726335
:101DE0002F73746D3332663478785F68616C5F632B
:101DF0006F727465782E6300447269766572732F12
:101E000053544D3332463478785F48414C5F4472C6
:101E1000697665722F5372632F73746D3332663433
:101E200078785F68616C5F6770696F2E630000008F
:101E3000000000000000000001020304060708097A
:101E4000447269766572732F53544D333246347839
:101E5000785F48414C5F4472697665722F537263B4
:101E60002F73746D3332663478785F68616C5F7499
:101E7000696D5F65782E63005372632F6D61696EC3
:041E80002E630000CD
:081E840028E4FF7F01000000CB
:041E8C00F501000854
:041E9000CD01000878
:041E94000024F40032
:0400000508001CE5EE
:00000001FF
