:020000040800F2
:1000000000000220D5130008510D0008530D000810
:10001000550D0008570D0008590D0008000000009C
:100020000000000000000000000000005B0D000860
:100030005D0D0008000000005F0D0008610D000864
:1000400025140008251400082514000825140008AC
:10005000251400082514000825140008251400089C
:10006000251400082514000825140008251400088C
:10007000251400082514000825140008251400087C
:10008000251400082514000825140008251400086C
:10009000251400082514000825140008251400085C
:1000A000251400082514000825140008251400084C
:1000B0006D0D0008251400082514000825140008FB
:1000C000251400082514000825140008251400082C
:1000D000251400082514000825140008251400081C
:1000E000251400082514000825140008251400080C
:1000F00025140008251400082514000825140008FC
:1001000025140008251400082514000825140008EB
:1001100025140008251400082514000825140008DB
:1001200025140008251400082514000825140008CB
:1001300025140008251400082514000825140008BB
:1001400025140008251400082514000825140008AB
:10015000251400082514000825140008251400089B
:10016000251400082514000825140008251400088B
:1001700025140008251400082514000800000000BC
:080180002514000825140008F5
:10018800044B05481B1A062B02D9044B03B1184728
:10019800704700BF07000020040000200000000096
:1001A80005490648091A891001EBD171491002D096
:1001B800034B03B1184770470400002004000020D7
:1001C8000000000010B5064C237843B9FFF7D8FFAC
:1001D800044B13B10448AFF300800123237010BD12
:1001E80004000020000000002814000808B5084B8F
:1001F8001BB108490848AFF300800848036813B9E1
:10020800BDE80840CCE7064B002BF9D09847F7E744
:100218000000000008000020281400080400002046
:100228000000000070B50F4E0F4D761BB61018BFBA
:10023800002405D0013455F8043B9847A642F9D16B
:100248000A4E0B4D761B01F0EBF8B61018BF0024D0
:1002580006D0013455F8043B9847A642F9D170BD41
:1002680070BD00BF64140008641400086814000816
:100278006414000853B94AB9002908BF00281CBFF4
:100288004FF0FF314FF0FF3000F07AB9ADF1080CB4
:100298006DE904CE00F006F8DDF804E0DDE902239C
:1002A80004B070472DE9F0478C460D460446089E79
:1002B800002B51D18A4217466DD9B2FA82FEBEF19F
:1002C800000F0BD0CEF1200C01FA0EF520FA0CFC31
:1002D80002FA0EF74CEA050C00FA0EF44FEA174A38
:1002E800250CBCFBFAF81FFA87F90AFB18CC45EA7B
:1002F8000C4508FB09F3AB420AD9ED1908F1FF32A6
:1003080080F02381AB4240F22081A8F102083D44ED
:10031800ED1AA4B2B5FBFAF00AFB105544EA0544FD
:1003280000FB09F9A14509D9E41900F1FF3380F070
:100338000A81A14540F2078102383C44A4EB090434
:1003480040EA08400021002E61D024FA0EF4002370
:1003580034607360BDE8F0878B4207D9002E54D013
:10036800002186E821000846BDE8F087B3FA83F14A
:10037800002940F08E80AB4202D3824200F2FA801C
:10038800841A65EB03050120AC46002E3FD086E8B1
:100398001010BDE8F08712B90127B7FBF2F7B7FADA
:1003A80087FEBEF1000F34D1EB1B3A0C1FFA87FC15
:1003B8000121B3FBF2F8250C02FB183345EA03458B
:1003C8000CFB08F3AB4207D9ED1908F1FF3002D254
:1003D800AB4200F2D1808046ED1AA3B2B5FBF2F031
:1003E80002FB105543EA05440CFB00FCA44507D961
:1003F800E41900F1FF3302D2A44500F2B880184690
:10040800A4EB0C0440EA08409DE731463046BDE8BD
:10041800F087CEF1200405FA0EF307FA0EF720FA5A
:1004280004F83A0C25FA04F448EA0308B4FBF2F19C
:100438004FEA184502FB11441FFA87FC45EA0445B8
:1004480001FB0CF3AB4200FA0EF409D9ED1901F1E6
:10045800FF3080F08A80AB4240F2878002393D4409
:10046800EB1A1FFA88F5B3FBF2F002FB103345EAEA
:10047800034500FB0CF3AB4207D9ED1900F1FF3837
:100488006FD2AB426DD902383D44EB1A40EA0141C4
:100498008FE7C1F1200722FA07F88B4005FA01F42B
:1004A80048EA030320FA07FE4FEA134CFD404EEAE0
:1004B800040EB5FBFCF94FEA1E440CFB19551FFA54
:1004C80083F844EA054509FB08F4AC4202FA01F254
:1004D80000FA01FA08D9ED1809F1FF3043D2AC420D
:1004E80041D9A9F102091D442D1B1FFA8EFEB5FB47
:1004F800FCF00CFB10554EEA054400FB08F8A0453B
:1005080007D9E41800F1FF3529D2A04527D90238C8
:100518001C4440EA0940A4EB0804A0FB02894C45AE
:10052800C6464D4615D312D056B1BAEB0E0364EB4E
:10053800050404FA07F7CB401F43CC4037607460CA
:100548000021BDE8F0871846F8E69046E0E6C24587
:10055800EAD2B8EB020E69EB03050138E4E7284656
:10056800D7E7404691E78146BEE7014678E702387B
:100578003C4445E7084608E7A8F102083D442BE754
:10058800704700BF0F49D1F8883043F47003C1F8B1
:1005980088300D4B1A6842F001021A6000209860FA
:1005A8001A6822F0847222F480321A60074A5A606C
:1005B8001A6822F480221A60D8604FF000638B60BA
:1005C800704700BF00ED00E0003802401030002402
:1005D80030B587B0002400940E4B1A6B42F020020D
:1005E8001A631B6B03F020030093009B0A4D2246FD
:1005F8003421284600F0A4FC3423019301230293FC
:1006080002230393049401A9284600F0B3FB07B022
:1006180030BD00BF003802400014024008B5042174
:10062800014800F093FC08BD0014024008B50122FF
:100638002021024800F084FCFEE700BF00140240BD
:1006480000B595B000230193284A116C41F0805100
:100658001164126C02F080520192019A0293244AAA
:10066800116841F480411160126802F480420292DC
:10067800029A0221089101220B9210220C920E91EB
:100688000F9310924FF4A8731193042312931393AA
:1006980008A800F05BF808BB0F230393022104911C
:1006A800002305934FF480520692079303A800F0A5
:1006B8005BFAB8B900F004FB0E4BA3FB00308009CD
:1006C80000F010FE042000F023FE002211464FF037
:1006D800FF3000F0C9FD15B05DF804FBA7210648FE
:1006E800FFF7A4FFB5210448FFF7A0FF0038024038
:1006F80000700040D34D62105014000808B500F097
:10070800FBFAFFF79DFFFFF763FF0E484FF08043AA
:10071800036040F2CF73C3604AF20F434360002383
:100728000361836000F072FD18B16E210648FFF77F
:100738007DFF044800F00EFC00B9FEE77621024870
:10074800FFF774FF2000002050140008002800F074
:10075800AB8130B583B00446036813F0010F3BD07A
:10076800A74B9B6803F00C03042B2CD0A44B9B686D
:1007780003F00C03082B21D06368B3F5803F4FD0FA
:10078800B3F5A02F52D09E4B1A6822F480321A601B
:100798001A6822F480221A606368002B50D000F097
:1007A800CDFA0546964B1B6813F4003F14D100F0B0
:1007B800C5FA401B6428F5D903207AE1904B5B68A1
:1007C80013F4800FD8D08E4B1B6813F4003F03D06E
:1007D8006368002B00F06A81236813F0020F55D07C
:1007E800874B9B6813F00C0F3ED0854B9B6803F03A
:1007F8000C03082B33D0E368002B68D00122814B0F
:100808001A6000F09BFA05467D4B1B6813F0020F37
:1008180054D100F093FA401B0228F5D9032048E18F
:10082800774A136843F480331360B5E7744B1A684A
:1008380042F480221A601A6842F480321A60ABE7E8
:1008480000F07CFA05466E4B1B6813F4003FC3D0DA
:1008580000F074FA401B6428F5D9032029E1684B9D
:100868005B6813F4800FC6D1654B1B6813F0020F49
:1008780004D0E368012B01D001201AE1604A136813
:1008880023F0F803216943EAC1031360236813F0D6
:10089800080F40D0636963B301225B4B1A6000F014
:1008A8004DFA0546564B5B6F13F0020F33D100F03B
:1008B80045FA401B0228F5D90320FAE0504A13688C
:1008C80023F0F803216943EAC1031360DEE700223D
:1008D8004C4B1A6000F032FA0546494B1B6813F07E
:1008E800020FD3D000F02AFA401B0228F5D90320C2
:1008F800DFE00022444B1A6000F020FA0546404B26
:100908005B6F13F0020F06D000F018FA401B0228A4
:10091800F5D90320CDE0236813F0040F1FD1A36994
:10092800002B00F0C580364A926802F00C02082AB3
:1009380000F0C180022B7FD00022344B1A6000F0F7
:10094800FDF904462E4B1B6813F0007F00F0AA80C7
:1009580000F0F4F9001B0228F4D90320A9E00023D1
:100968000193274B1A6C42F080521A641B6C03F0F7
:1009780080530193019B264A136843F480731360E4
:1009880000F0DCF90546224B1B6813F4807F06D182
:1009980000F0D4F9401B0228F5D9032089E0A368A8
:1009A800012B1DD0052B21D0154B1A6F22F0010207
:1009B8001A671A6F22F004021A67A36853B300F08B
:1009C800BDF905460E4B1B6F13F0020FA7D100F0BF
:1009D800B5F9401B41F288339842F3D9032068E007
:1009E800074A136F43F001031367E6E7044B1A6FD6
:1009F80042F004021A671A6F42F001021A67DCE734
:100A08000038024000004742800E474260004742DB
:100A18000070004000F092F90546284B1B6F13F058
:100A2800020F3FF47CAF00F089F9401B41F2883394
:100A38009842F2D903203CE00022214B1A6000F0D2
:100A48007DF905461D4B1B6813F0007F06D000F0AA
:100A580075F9401B0228F5D903202AE0E369226AC8
:100A68001343626A43EA8213A26A5208013A43EACC
:100A78000243E26A43EA0263104A53600122104BC0
:100A88001A6000F05BF904460C4B1B6813F0007FFA
:100A980006D100F053F9001B0228F5D9032008E01D
:100AA800002006E0002004E001207047012000E05B
:100AB800002003B030BD0120FBE700BF0038024032
:100AC80060004742F8B5254B9B6803F00C03042BE4
:100AD80041D0082B01D02248F8BD204B5A6802F0BB
:100AE8003F025B6813F4800F12D01C4B5968C1F3A6
:100AF800881100231B48A1FB0001FFF7BBFB174B24
:100B08005B68C3F3014301335B00B0FBF3F0F8BD4E
:100B1800124B5B68C3F388131E4600275C0100254F
:100B2800E41A65EB0705A90141EA9461A001001BDD
:100B380061EB0501CB0043EA5073C400A01943EBF5
:100B480007018B0243EA905384022046194600238A
:100B5800FFF790FBD3E70348F8BD00BF0038024019
:100B68000024F40040787D01002800F09D8070B5D5
:100B780004464F4B1B6803F00F038B4209D2CBB2DC
:100B88004B4A1370136803F00F03994201D00120F8
:100B980070BD236813F0020F17D013F0040F04D0B0
:100BA800444A936843F4E0539360236813F0080FB2
:100BB80004D0404A936843F4604393603D4A936885
:100BC80023F0F003A068034393600D46236813F0F5
:100BD800010F32D06368012B21D09A1E012A25D932
:100BE800344A126812F0020F60D032498A6822F043
:100BF800030213438B6000F0A1F806462D4B9B6857
:100C080003F00C036268B3EB820F16D000F096F87D
:100C1800801B41F288339842F0D9032070BD254AE1
:100C2800126812F4003FE0D1012070BD214A126819
:100C380012F0007FD9D1012070BD1D4B1B6803F055
:100C48000F039D4209D2EAB2194B1A701B6803F0D0
:100C58000F039D4201D0012070BD236813F0040FDB
:100C680006D0144A936823F4E053E1680B43936079
:100C7800236813F0080F07D00E4A936823F46043E3
:100C8800216943EAC1039360FFF71CFF094B9B6886
:100C9800C3F30313084AD35CD840084B18600020FC
:100CA80000F014F8002070BD01207047012070BDCD
:100CB800003C0240003802404014000800000020B8
:100CC800014B1868704700BF0000002010B50446AB
:100CD800074B1868074BA3FB0030800900F002FBA4
:100CE800002221464FF0FF3000F0BEFA002010BD70
:100CF80000000020D34D621008B50B4B1A6842F46F
:100D080000721A601A6842F480621A601A6842F423
:100D180080721A60032000F095FA0020FFF7D6FFD2
:100D280000F00BFB002008BD003C0240024A13689B
:100D380001331360704700BF5C000020014B186846
:100D4800704700BF5C0000207047FEE7FEE7FEE743
:100D5800FEE770477047704708B5FFF7E7FF00F0F8
:100D6800E8FA08BD08B5024800F004F908BD00BF5C
:100D780020000020F0B583B000244BE04FEAD40EE9
:100D88000EF1080E50F82E2004F00706B6000F27C3
:100D9800B74022EA07020F6907FA06F6324340F81D
:100DA8002E2046E0072600E0002606FA0EF632431B
:100DB80002335E4E46F823205D4B1A68EB4302EA85
:100DC80003064F6817F4803F01D045EA0206584AE7
:100DD8001660526803EA02064F6817F4003F01D014
:100DE80045EA0206524A5660926803EA02064F68CC
:100DF80017F4801F01D045EA02064D4A9660D26872
:100E080013404E6816F4001F01D045EA0203484A11
:100E1800D36001340F2C00F286800123A3400A68B6
:100E280003EA0205AB42F4D14A68022AA6D0122A84
:100E3800A4D006684FEA440E032202FA0EF2D24307
:100E480016404F6807F0030707FA0EF73E4306609F
:100E58004E68771E012F03D9112E01D0122E0FD103
:100E680086681640CF6807FA0EF73E4386604668E4
:100E780026EA03034E68C6F30016A64033434360D0
:100E8800C3681A408B6803FA0EF31A43C2604B68B2
:100E980013F0805FBDD000230193264B5A6C42F4B7
:100EA80080425A645B6C03F480430193019BA3085E
:100EB8009E1C1E4A52F8262004F003064FEA860EAE
:100EC8000F2606FA0EF622EA06021B4FB8423FF436
:100ED8006BAF1A4EB0421AD006F58066B04218D0F1
:100EE80006F58066B04216D006F58066B04214D08A
:100EF80006F58066B04212D006F58066B04210D082
:100F080006F58066B0423FF44DAF08264DE701264E
:100F18004BE7022649E7032647E7042645E7052667
:100F280043E7062641E703B0F0BD00BF00380140A3
:100F3800003C01400038024000000240000402402A
:100F480012B909048161704781617047436959404A
:100F5800416170470268D36843F00103D3600268B7
:100F6800136843F00103136000207047704770470F
:100F78007047704710B5044603681A6912F0020FEB
:100F880011D0DA6812F0020F0DD06FF002021A6168
:100F98000123037603689B6913F0030F70D0FFF7F2
:100FA800E6FF0023237623681A6912F0040F12D093
:100FB800DA6812F0040F0ED06FF004021A610223EF
:100FC800237623689B6913F4407F5FD02046FFF7A0
:100FD800CEFF0023237623681A6912F0080F12D077
:100FE800DA6812F0080F0ED06FF008021A610423B5
:100FF80023762368DB6913F0030F4ED02046FFF7F2
:10100800B6FF0023237623681A6912F0100F12D056
:10101800DA6812F0100F0ED06FF010021A61082370
:1010280023762368DB6913F4407F3DD02046FFF721
:101038009EFF0023237623681A6912F0010F03D05C
:10104800DA6812F0010F36D123681A6912F0800F9E
:1010580003D0DA6812F0800F34D123681A6912F0CD
:10106800400F03D0DA6812F0400F32D123681A69B2
:1010780012F0200F03D0DA6812F0200F30D110BD23
:10108800FFF774FF2046FFF773FF8AE72046FFF754
:101098006DFF2046FFF76CFF9BE72046FFF766FFD2
:1010A8002046FFF765FFACE72046FFF75FFF2046C5
:1010B800FFF75EFFBDE76FF001021A612046FFF7F8
:1010C800ADFAC1E76FF080021A61204600F0B8F867
:1010D800C3E76FF040021A612046FFF74AFFC5E7F1
:1010E8006FF020021A61204600F0A9F8C7E7000057
:1010F8000368454A90424AD0B0F1804F49D0A2F5E2
:101108007C42904247D002F58062904245D002F579
:101118008062904243D002F57842904235D0002256
:101128001AB123F070034A681343374A90423AD001
:10113800B0F1804F50D0A2F57C4290424ED002F5DB
:10114800806290424CD002F5806290424AD002F50B
:101158007842904248D002F57052904246D002F54B
:101168008062904244D002F58062904242D0A2F55B
:101178009832904240D002F5806290423ED002F50B
:10118800806290420DD000220EE00122C8E70122C1
:10119800C6E70122C4E70122C2E70122C0E7012213
:1011A800BEE7012200E001221AB123F44073CA68A5
:1011B800134303608B68C3620B688362124B9842C7
:1011C80020D003F5806398421AD000230BB10B6935
:1011D80003630123436170470122E5E70122E3E746
:1011E8000122E1E70122DFE70122DDE70122DBE757
:1011F8000122D9E70122D7E70122D5E70122D3E767
:101208000123E3E70123E1E700000140A8B110B59D
:10121800044690F839305BB1022384F83930211D37
:101228002068FFF765FF012384F83930002010BDDE
:1012380080F8383000F0B0F8EEE7012070477047CA
:1012480070470000074AD36823F4E0631B041B0CB3
:10125800000200F4E060184340F0BF6040F4003042
:10126800D060704700ED00E030B4164BDB68C3F384
:101278000223C3F10704042C28BF04241D1D062DD6
:1012880017D9033B012505FA04F4013C2140994094
:1012980005FA03F3013B1340194300280BDB09014E
:1012A800C9B200F1604000F5614080F8001330BC1D
:1012B80070470023E6E700F00F000901C9B2024BAE
:1012C8001954F4E700ED00E014ED00E0420900F0E5
:1012D8001F00012303FA00F0014B43F82200704776
:1012E80000E100E00138B0F1807F0AD2064B586077
:1012F800F021064A82F823100020986007221A601D
:1013080070470120704700BF10E000E000ED00E0EA
:10131800042805D0054A136823F0040313607047B6
:10132800024A136843F004031360704710E000E0BA
:10133800704708B5FFF7FCFF08BD08B50320FFF7A5
:1013480081FF002211466FF00B00FFF78DFF00228E
:1013580011466FF00A00FFF787FF002211466FF071
:101368000900FFF781FF002211466FF00400FFF724
:101378007BFF002211466FF00300FFF775FF002284
:1013880011466FF00100FFF76FFF002211464FF082
:10139800FF30FFF769FF08BD00B583B00021019158
:1013A800094B1A6C42F001021A641B6C03F001032A
:1013B8000193019B01221C20FFF756FF1C20FFF719
:1013C80085FF03B05DF804FB00380240DFF834D035
:1013D800002103E00C4B5B58435004310B480C4B85
:1013E80042189A42F6D30B4A02E0002342F8043B23
:1013F800094B9A42F9D3FFF7C5F8FEF713FFFFF739
:101408007DF97047000002206C14000800000020DD
:10141800040000200400002060000020FEE7000017
:10142800F8B500BFF8BC08BC9E467047F8B500BFC9
:08143800F8BC08BC9E46704799
:101440000000000000000000010203040607080974
:0C1450005372632F6D61696E2E63000003
:08145C0050EEFF7F01000000CB
:04146400F501000886
:04146800CD010008AA
:04146C000024F40064
:04000005080013D507
:00000001FF
