:020000040800F2
:1000000000000220A12A0008192000081B20000877
:100010001D2000081F20000821200008000000000B
:100020000000000000000000000000002320000885
:1000300025200008000000002720000829200008D3
:10004000F12A000835200008F12A0008F12A0008EA
:100050003D2000084520000847200008F12A00083C
:10006000F12A0008F12A0008F12A0008F12A000804
:10007000F12A0008F12A0008F12A0008F12A0008F4
:10008000F12A0008F12A0008F12A0008F12A0008E4
:10009000F12A0008F12A0008F12A0008F12A0008D4
:1000A000F12A0008F12A0008F12A0008F12A0008C4
:1000B000F12A0008F12A0008F12A0008F12A0008B4
:1000C000F12A0008F12A0008F12A0008F12A0008A4
:1000D000F12A0008F12A0008F12A0008F12A000894
:1000E000F12A0008F12A0008F12A0008F12A000884
:1000F000F12A0008F12A0008F12A0008F12A000874
:10010000F12A0008F12A000851200008F12A00080D
:10011000F12A0008F12A0008F12A0008F12A000853
:10012000F12A0008F12A0008F12A0008F12A000843
:10013000F12A0008F12A0008F12A0008F12A000833
:10014000F12A0008F12A0008F12A0008F12A000823
:10015000F12A0008F12A0008F12A0008F12A000813
:10016000F12A0008F12A0008F12A0008F12A000803
:10017000F12A0008F12A0008F12A00080000000016
:08018000F12A0008F12A000831
:10018800044B05481B1A062B02D9044B03B1184728
:10019800704700BF07000020040000200000000096
:1001A80005490648091A891001EBD171491002D096
:1001B800034B03B1184770470400002004000020D7
:1001C8000000000010B5064C237843B9FFF7D8FFAC
:1001D800044B13B10448AFF300800123237010BD12
:1001E8000400002000000000F42A000808B5084BAD
:1001F8001BB108490848AFF300800848036813B9E1
:10020800BDE80840CCE7064B002BF9D09847F7E744
:100218000000000008000020F42A00080400002064
:100228000000000070B50F4E0F4D761BB61018BFBA
:10023800002405D0013455F8043B9847A642F9D16B
:100248000A4E0B4D761B02F051FCB61018BF002465
:1002580006D0013455F8043B9847A642F9D170BD41
:1002680070BD00BFB42C0008B42C0008B82C0008DE
:10027800B42C000810B50446074B1868074BA3FBBD
:100288000030800900F0C4FB002221464FF0FF3007
:1002980000F064FB002010BD00000020D34D621068
:1002A80008B50B4B1A6842F400721A601A6842F4D7
:1002B80080621A601A6842F480721A60032000F0A3
:1002C8002FFB0020FFF7D6FF00F0C2FA002008BD80
:1002D800003C0240024A136801331360704700BFB4
:1002E80034000020014B1868704700BF340000201C
:1002F80030B583B00190FFF7F5FF0546019CB4F1D6
:10030800FF3F00D00134FFF7EDFF401BA042FAD3B6
:1003180003B030BD2DE9F04782B080460F46B44B9C
:10032800984223D003F5806398421FD003F5806379
:1003380098421BD003F58063984217D003F5806379
:10034800984213D003F5806398420FD003F5806379
:1003580098420BD003F58063984207D003F5806379
:10036800984203D0C521A34800F0F2FC3B689AB23A
:1003780012B11B0C1B041BB1C6219E4800F0E8FCFF
:100388007B68012B22D9112B20D0022B1ED0122BD7
:100398001CD0994A934219D002F58012934215D085
:1003A80002F58012934211D0A2F5F81293420DD0B3
:1003B80002F58012934209D002F58012934205D0CB
:1003C800032B03D0C7218B4800F0C2FCBB68022B6B
:1003D80001D8002575E0C821864800F0B9FCF8E787
:1003E8003B69FBB1092B1DD0012B1BD0022B19D067
:1003F800032B17D0042B15D0052B13D0062B11D0A7
:10040800072B0FD0082B0DD00A2B0BD00B2B09D0A4
:100418000C2B07D00D2B05D00F2B03D0D9217548F5
:1004280000F096FCE908083158F8213005F0070279
:1004380092000F20904023EA0003386900FA02F284
:10044800134348F821304CE0EC216A4800F080FC66
:1004580063E0072100E00021A1400A430233674915
:1004680041F82320664B1A686FEA090302EA030180
:10047800786810F4803F01D049EA0201604A1160AF
:10048800526803EA0201786810F4003F01D049EA93
:1004980002015B4A5160926803EA0201786810F42D
:1004A800801F01D049EA0201554A9160D268134081
:1004B800796811F4001F01D049EA0203504AD36059
:1004C80001350F2D00F290800124AC403B6804EA0E
:1004D80003094C45F4D17B68022B81D0122B3FF4E1
:1004E8007FAFD8F800304FEA450A032606FA0AF625
:1004F800F64333407A6802F0030202FA0AF2134321
:10050800C8F800307B685A1E012A03D9112B01D084
:10051800122B16D1FB68032B96D8D8F80830334035
:10052800FA6802FA0AF21343C8F80830D8F8043017
:1005380023EA04047B68C3F30013AB401C43C8F8E8
:100548000440D8F80C301E40BB6803FA0AF31E4377
:10055800C8F80C607B6813F0805FB1D0002301936A
:10056800284B5A6C42F480425A645B6C03F4804313
:100578000193019BAB08991C204A52F8212005F0F1
:1005880003018C000F21A14022EA0102184880458E
:100598003FF461AF1C4988451AD001F58061884550
:1005A80018D001F58061884516D001F5806188452D
:1005B80014D001F58061884512D001F58061884525
:1005C80010D001F5806188453FF443AF082143E727
:1005D800012141E702213FE703213DE704213BE7F1
:1005E800052139E7062137E702B0BDE8F08700BFEB
:1005F800000002400C2B00080000111000380140D8
:10060800003C0140003802400004024070B5064634
:1006180015460C4651B1012D04D94FF4D97107483C
:1006280000F096FB45B92404B46170BD40F2B111E5
:10063800024800F08DFBEEE7B46170BD0C2B00089A
:1006480038B505460C4621B94FF4E471034800F06B
:100658007FFB6B695C406C6138BD00BF0C2B0008E8
:100668007047000008B5054B5B69034200D108BD1F
:10067800024B5861FFF7F4FFF9E700BF003C014067
:10068800204BDB6813F0100F07D01F4AD36943F0E3
:100698001003D36110221B4BDA601A4BDB6813F08E
:1006A800200F07D0184AD36943F00803D3612022EA
:1006B800144BDA60134BDB6813F0400F07D0124A73
:1006C800D36943F00403D36140220E4BDA600D4B2B
:1006D800DB6813F0800F07D00B4AD36943F002039D
:1006E800D3618022074BDA60064BDB6813F0020FF8
:1006F80007D0054AD36943F02003D3610222014B96
:10070800DA607047003C02403800002070477047AC
:1007180010B53A4BDB6813F0F20F13D0384B1B7847
:10072800DBB2012B3BD0364B1B78DBB2022B3CD023
:10073800334B5C69FFF7A4FF2046FFF7E8FF002270
:100748002F4B1A702D4BDB6813F0010F13D00122C9
:100758002A4BDA602A4B1B78DBB2934228D0284B0D
:100768001B78DBB2022B41D0254B5869FFF7CEFF2F
:100778000022234B1A70224B1B787BB91F4B1A6936
:1007880022F0FF021A611A6922F080721A611A694E
:1007980022F000721A610022194B1A7610BD184B0C
:1007A800DC684FF0FF32DA60C4E7154B1C69C1E71B
:1007B800134B5A68013A5A605B685BB1104CE068A9
:1007C800FFF7A4FFE3680133E360E068217A01F0F2
:1007D80065FCD0E70A4B4FF0FF34DC6000221A704A
:1007E80001F09EFC2046FFF791FFC4E701F098FC5A
:1007F800034B1869FFF78AFFBAE700BF003C0240C5
:10080800380000200F49D1F8883043F47003C1F84C
:1008180088300D4B1A6842F001021A600020986077
:100828001A6822F0847222F480321A60074A5A60E9
:100838001A6822F480221A60D8604FF000638B6037
:10084800704700BF00ED00E000380240103000247F
:1008580008B5032000F064F8002211466FF00B0081
:1008680000F07CF8002211466FF00A0000F076F8DC
:10087800002211466FF0090000F070F800221146BE
:100888006FF0040000F06AF8002211466FF00300D0
:1008980000F064F8002211466FF0010000F05EF8E5
:1008A800002211464FF0FF3000F058F800221146A0
:1008B800012000F053F8012000F094F800221146BE
:1008C800042000F04BF8042000F08CF800221146B8
:1008D800052000F043F8052000F084F808BD00006A
:1008E80002680E4B9A4200D0704700B583B00021D1
:1008F800019103F50B331A6C42F008021A641B6C61
:1009080003F008030193019B0A46322000F026F801
:10091800322000F067F803B05DF804FB000C0040DB
:1009280010B50446C31E042B0FD80A4AD36823F413
:10093800E0631B041B0C240204F4E064234343F02B
:10094800BF6343F40033D36010BDA421024800F014
:10095800FFF9EAE700ED00E0542B000870B5054602
:100968000C4616460F2A24D80F2C27D81A4BDB68BA
:10097800C3F30223C3F10702042A28BF0422191D66
:10098800062920D9033B012101FA02F2013A144059
:100998009C4001FA03F3013B33401C43002D14DB58
:1009A8002401E4B205F1604505F5614585F8004389
:1009B80070BDBC21094800F0CBF9D5E7BD21074837
:1009C80000F0C6F9D2E70023DDE705F00F052401A2
:1009D800E4B2034B5C5570BD00ED00E0542B0008F9
:1009E80014ED00E010B5041E09DB620904F01F04D1
:1009F800012303FA04F4044B43F8224010BDD0212C
:100A0800024800F0A5F9F0E700E100E0542B0008E7
:100A18000138B0F1807F0AD2064B5860F021064AAF
:100A280082F823100020986007221A60704701207E
:100A3800704700BF10E000E000ED00E010B504468C
:100A4800042800D038B9042C0BD0094A136823F0C5
:100A58000403136010BD40F2DB11064800F078F97A
:100A6800F1E7034A136843F00403136010BD00BFA5
:100A780010E000E0542B0008704708B5FFF7FCFFB2
:100A880008BD000070B586B000240094154B1A6BA1
:100A980042F020021A631B6B03F020030093009BB3
:100AA800114D22463C212846FFF7B0FD012601964C
:100AB8000E4B0293039401A92846FFF72BFC3C2315
:100AC800019302960394049401A92846FFF722FC97
:100AD800224621460620FFF741FF0620FFF782FF46
:100AE80006B070BD0038024000140240000011102A
:100AF800FEE7000010B58AB001223D4B1A603D4B5D
:100B08005B6F13F0020FFAD03B483C4B03600023A5
:100B1800436083604FF6FF72C260036100F0EAFE33
:100B2800002841D10AA94FF4805341F8103D3248BA
:100B380000F0F8F900283CD12F4800F04FFF0028BA
:100B48003CD100230093019369462B4801F018FB20
:100B5800002838D1002302930122039204930593BD
:100B68000C2202A9244801F001F8002830D14021C4
:100B7800214801F075FB00282FD11F480368002287
:100B88001A610C2101F06CF960BB1D4B1B68002B2E
:100B9800FBD000241B4B1C60174800F065F91A4B6A
:100BA8001B6820460AB010BD4FF4B1711748FFF713
:100BB8009FFF4FF4B4711548FFF79AFF40F26D118B
:100BC8001248FFF795FF4FF4BA711048FFF790FFEE
:100BD8004FF4BF710D48FFF78BFF4FF4C2710B48FC
:100BE800FFF786FF40F28D110848FFF781FF00BF2D
:100BF800800E47420038024064000020000C00408C
:100C080028000020200000202C0000208C2B000849
:100C180000B595B000230193234A116C41F080512F
:100C28001164126C02F080520192019A02931F4AD9
:100C3800116841F480411160126802F48042029206
:100C4800029A0A22089201220B9210210C910D920D
:100C58000E9308A801F058FBF0B90F230393002165
:100C6800049105910691079103A801F0E7FDB8B931
:100C780001F00CFF0E4BA3FB00308009FFF7C8FE04
:100C88000420FFF7DBFE002211464FF0FF30FFF78C
:100C980065FE15B05DF804FBB9210648FFF728FF8B
:100CA800C7210448FFF724FF0038024000700040C5
:100CB800D34D62108C2B000808B5FFF7F1FAFFF747
:100CC800A7FFFFF7DFFE1C4B5B6F13F0005F28D117
:100CD800012208211948FFF799FC174A536F43F07E
:100CE80080735367FFF706FF154B18601548164ABF
:100CF8000260032242601B68DB09836001F03EF951
:100D0800A8B904210D48FFF79BFCF020FFF7F0FA83
:100D18000C4801F077F90028F3D097210B48FFF72A
:100D2800E7FE002208210548FFF770FCDAE7852175
:100D38000648FFF7DDFE00BF0038024000140240FD
:100D48002400002058000020003000408C2B0008B0
:100D5800704710B4036A046A24F0010404628469C9
:100D680024F0F00444EA021223F00A030B438261E0
:100D780003625DF8044B704730B4046A24F0100431
:100D880004628469056A24F4407444EA022222F465
:100D980070421B039BB21A4325F0A005090101F01C
:100DA800A0010D438261056230BC704710B4036A2C
:100DB80023F0100303628469036A24F4704444EA4C
:100DC800023223F0A00343EA0113826103625DF853
:100DD800044B704730B4046A24F480740462C46914
:100DE800056A24F00304224322F0F0021B01DBB25F
:100DF8001A4325F42065090201F420610D43C261FC
:100E0800056230BC704730B4046A24F4805404622C
:100E1800C469056A24F4407444EA022222F4704248
:100E28001B039BB21A4325F42045090301F4204112
:100E38000D43C261056230BC7047836823F07003BC
:100E480041F007010B438360704710B4846824F4B1
:100E58007F4442EA032319430C4384605DF8044B42
:100E6800704770477047000010B5044603682B4A66
:100E7800934237D0B3F1804F34D0A2F57C429342ED
:100E880030D002F5806293422CD002F58062934202
:100E980028D002F58062934224D002F58062934202
:100EA80020D002F5704293421CD002F57052934252
:100EB80018D002F58062934214D002F58062934202
:100EC80010D0A2F5983293420CD002F5806293427A
:100ED80008D002F58062934204D040F217611048AE
:100EE800FFF736FF022384F839302368196A41F284
:100EF8001112114208D1196A40F24442114203D139
:100F08001A6822F001021A602046FFF7ABFF0020A2
:100F180084F8390084F8380010BD00BF0000014093
:100F2800982B000838B590F83830012B00F0CD82A6
:100F38000D460446012380F83830022380F8393002
:100F48000B68B3F5805F16D0B3F5005F13D093B18B
:100F5800102B10D0202B0ED0302B0CD0402B0AD0C9
:100F6800502B08D0602B06D0702B04D040F6797136
:100F7800A848FFF7EDFE2268936823F47F4323F027
:100F8800770393602B68402B00F0F8814AD9702BC7
:100F980000F0448100F2A580502B00F09481602B72
:100FA80040F0318123689C4A93421FD0B3F1804FAF
:100FB8001CD0A2F57C42934218D002F5806293427D
:100FC80014D002F58062934210D002F57842934221
:100FD8000CD002F57052934208D0A2F59432934295
:100FE80004D040F6C6718B48FFF7B2FE6B68B3F5C4
:100FF800004F09D043B1022B06D00A2B04D040F68B
:10100800C9718448FFF7A4FEEB680F2B00F2B0818A
:10101800EA6869682068FFF7C9FE60212068FFF761
:101028000CFFF0E0102B00F0FE812ED9202B00F0F1
:101038002382302B40F0E7802368774A93421FD001
:10104800B3F1804F1CD0A2F57C42934218D002F530
:101058008062934214D002F58062934210D002F568
:10106800784293420CD002F57052934208D0A2F510
:101078009432934204D040F6F4716648FFF768FE54
:1010880030212068FFF7D9FEBDE0002B40F0BB807F
:101098002368614A93421FD0B3F1804F1CD0A2F558
:1010A8007C42934218D002F58062934214D002F534
:1010B8008062934210D002F5784293420CD002F538
:1010C8007052934208D0A2F59432934204D040F66D
:1010D800E2715048FFF73CFE00212068FFF7ADFEA3
:1010E80091E0B3F5805F4DD0B3F5005F40F08B80A1
:1010F8002368494A934217D0B3F1804F14D0A2F520
:101108007C42934210D002F5806293420CD002F5E3
:101118008062934208D002F57842934204D040F6A8
:10112800A6713C48FFF714FE6B68B3F5004F09D071
:1011380043B1022B06D00A2B04D040F6A8713548DB
:10114800FFF706FEAB686BB1B3F5805F0AD0B3F565
:10115800005F07D0B3F5405F04D040F6A9712D4871
:10116800FFF7F6FDEB680F2B00F2A780EB686A68C3
:10117800A9682068FFF769FE2268936843F48043F2
:10118800936040E02368244A934237D0B3F1804FFC
:1011980034D0A2F57C42934230D002F5806293426B
:1011A8002CD002F58062934228D002F580629342E7
:1011B80024D002F58062934220D002F57042934217
:1011C8001CD002F57052934218D002F58062934207
:1011D80014D002F58062934210D0A2F5983293425F
:1011E8000CD002F58062934208D002F580629342E7
:1011F80004D040F685710748FFF7AAFD2268936876
:1012080023F007039360012384F83930002084F821
:10121800380038BD982B0008000001402368AC4A0C
:10122800934217D0B3F1804F14D0A2F57C42934279
:1012380010D002F5806293420CD002F5806293428E
:1012480008D002F57842934204D040F68E71A14846
:10125800FFF77EFD6B68B3F5004F09D043B1022B51
:1012680006D00A2B04D04FF479619A48FFF770FD35
:10127800AB686BB1B3F5805F0AD0B3F5005F07D0F8
:10128800B3F5405F04D040F691719248FFF760FDD6
:10129800EB680F2B0BD8EB686A68A9682068FFF722
:1012A800D4FD2268936843F077039360ABE740F678
:1012B80092718848FFF74CFDEDE740F6AA71854822
:1012C800FFF746FD52E72368814A93422FD0B3F1D6
:1012D800804F2CD0A2F57C42934228D002F5806240
:1012E800934224D002F58062934220D002F57842DE
:1012F80093421CD002F57052934218D002F58062D6
:10130800934214D002F58062934210D0A2F598322D
:1013180093420CD002F58062934208D002F58062B5
:10132800934204D040F6B8716A48FFF711FD6B6824
:10133800B3F5004F09D043B1022B06D00A2B04D0D5
:1013480040F6BB716348FFF703FDEB680F2B09D824
:10135800EA6869682068FFF7FCFC50212068FFF7FD
:101368006CFD50E740F6BC715A48FFF7F1FCEFE717
:1013780040F6CA715748FFF7EBFC49E62368544A20
:1013880093422FD0B3F1804F2CD0A2F57C429342E8
:1013980028D002F58062934224D002F580629342FD
:1013A80020D002F5784293421CD002F57052934245
:1013B80018D002F58062934214D002F580629342FD
:1013C80010D0A2F5983293420CD002F58062934275
:1013D80008D002F58062934204D040F6D4713D48AB
:1013E800FFF7B6FC6B68B3F5004F09D043B1022B89
:1013F80006D00A2B04D040F6D7713648FFF7A8FC70
:10140800EB680F2B09D8EA6869682068FFF7A1FC28
:1014180040212068FFF711FDF5E640F6D8712D4808
:10142800FFF796FCEFE72368294A93421FD0B3F1F0
:10143800804F1CD0A2F57C42934218D002F58062FE
:10144800934214D002F58062934210D002F578429C
:1014580093420CD002F57052934208D0A2F5943210
:10146800934204D040F6E8711A48FFF771FC102146
:101478002068FFF7E2FCC6E62368154A93421FD0AE
:10148800B3F1804F1CD0A2F57C42934218D002F5EC
:101498008062934214D002F58062934210D002F524
:1014A800784293420CD002F57052934208D0A2F5CC
:1014B8009432934204D040F6EE710648FFF748FC98
:1014C80020212068FFF7B9FC9DE6022038BD00BF47
:1014D80000000140982B000890F83830012B00F0EC
:1014E800B28010B50446012380F838300C2900F288
:1014F800A880DFE801F007A6A6A641A6A6A668A6CA
:10150800A6A687000368514A93422FD0B3F1804FB3
:101518002CD0A2F57C42934228D002F580629342F7
:1015280024D002F58062934220D002F5784293429B
:101538001CD002F57052934218D002F58062934293
:1015480014D002F58062934210D0A2F598329342EB
:101558000CD002F58062934208D002F58062934273
:1015680004D041F286013A48FFF7F2FB2368586B32
:10157800002384F8383010BD0368344A93421FD0E2
:10158800B3F1804F1CD0A2F57C42934218D002F5EB
:101598008062934214D002F58062934210D002F523
:1015A800784293420CD002F57052934208D0A2F5CB
:1015B8009432934204D041F290012548FFF7C8FBCA
:1015C8002368986BD4E70368204A934217D0B3F195
:1015D800804F14D0A2F57C42934210D002F580626D
:1015E80093420CD002F58062934208D002F578420B
:1015F800934204D041F29B011548FFF7A9FB2368E9
:10160800D86BB5E70368114A934217D0B3F1804FFE
:1016180014D0A2F57C42934210D002F58062934226
:101628000CD002F58062934208D002F578429342CA
:1016380004D041F2A6010648FFF78AFB2368186C1C
:1016480096E7002094E70220704700BF00000140A1
:10165800982B00087047704770477047704710B55F
:10166800044603681A6912F0020F11D0DA6812F002
:10167800020F0DD06FF002021A610123037603688E
:101688009B6913F0030F70D0FFF7E6FF0023237662
:1016980023681A6912F0040F12D0DA6812F0040FE6
:1016A8000ED06FF004021A610223237623689B6927
:1016B80013F4407F5FD02046FFF7CEFF0023237648
:1016C80023681A6912F0080F12D0DA6812F0080FAE
:1016D8000ED06FF008021A61042323762368DB69B1
:1016E80013F0030F4ED02046FFF7B6FF00232376F2
:1016F80023681A6912F0100F12D0DA6812F0100F6E
:101708000ED06FF010021A61082323762368DB6974
:1017180013F4407F3DD02046FFF79EFF0023237639
:1017280023681A6912F0010F03D0DA6812F0010F6A
:1017380036D123681A6912F0800F03D0DA6812F0E4
:10174800800F34D123681A6912F0400F03D0DA6889
:1017580012F0400F32D123681A6912F0200F03D01B
:10176800DA6812F0200F30D110BDFFF774FF204661
:10177800FFF773FF8AE72046FFF76DFF2046FFF764
:101788006CFF9BE72046FFF766FF2046FFF765FFE3
:10179800ACE72046FFF75FFF2046FFF75EFFBDE797
:1017A8006FF001021A612046FFF754FFC1E76FF09E
:1017B80080021A61204600F094FDC3E76FF04002F2
:1017C8001A612046FFF74AFFC5E76FF020021A6149
:1017D800204600F085FDC7E70368454A90424AD095
:1017E800B0F1804F49D0A2F57C42904247D002F533
:1017F8008062904245D002F58062904243D002F563
:101808007842904235D000221AB123F070034A681A
:101818001343374A90423AD0B0F1804F50D0A2F5E6
:101828007C4290424ED002F5806290424CD002F544
:10183800806290424AD002F57842904248D002F540
:101848007052904246D002F58062904244D002F530
:101858008062904242D0A2F59832904240D002F580
:10186800806290423ED002F5806290420DD0002204
:101878000EE00122C8E70122C6E70122C4E70122DF
:10188800C2E70122C0E70122BEE7012200E00122EF
:101898001AB123F44073CA68134303608B68C362A8
:1018A8000B688362124B984220D003F580639842FC
:1018B8001AD000230BB10B690363012343617047FE
:1018C8000122E5E70122E3E70122E1E70122DFE760
:1018D8000122DDE70122DBE70122D9E70122D7E770
:1018E8000122D5E70122D3E70123E3E70123E1E75A
:1018F8000000014000286BD010B504460368354A43
:10190800934236D0B3F1804F33D0A2F57C42934254
:101918002FD002F5806293422BD002F58062934269
:1019280027D002F58062934223D002F58062934269
:101938001FD002F5704293421BD002F570529342B9
:1019480017D002F58062934213D002F58062934269
:101958000FD0A2F5983293420BD002F580629342E1
:1019680007D002F58062934203D0D9211A48FFF7C5
:10197800EFF9A3685BB1102B09D0202B07D0402BBF
:1019880005D0602B03D0DA211348FFF7E1F923696A
:101998004BB1B3F5807F06D0B3F5007F03D0DB21D0
:1019A8000D48FFF7D5F994F839305BB1022384F874
:1019B8003930211D2068FFF70FFF012384F83930E3
:1019C800002010BD84F838302046FEF789FFEDE787
:1019D8000120704700000140982B000800286ED0B5
:1019E80010B504460368374A934237D0B3F1804FA5
:1019F80034D0A2F57C42934230D002F58062934203
:101A08002CD002F58062934228D002F5806293427E
:101A180024D002F58062934220D002F570429342AE
:101A28001CD002F57052934218D002F5806293429E
:101A380014D002F58062934210D0A2F598329342F6
:101A48000CD002F58062934208D002F5806293427E
:101A580004D040F2F6511C48FFF77AF9A36863B145
:101A6800102B0AD0202B08D0402B06D0602B04D096
:101A780040F2F7511448FFF76BF9236953B1B3F5F6
:101A8800807F07D0B3F5007F04D04FF4BF610E48C4
:101A9800FFF75EF994F839305BB1022384F83930E6
:101AA800211D2068FFF798FE012384F839300020B3
:101AB80010BD84F838302046FFF7D3F9EDE7012050
:101AC800704700BF00000140982B000870B4046AFA
:101AD80024F0010404628469056A234EB04230D0C0
:101AE800B0F1804F2FD0A6F57C46B0422DD006F538
:101AF8008066B0422BD006F58066B04229D006F544
:101B08007846B04227D006F57056B04225D0A6F5E3
:101B18009436B04213D000260EBB24F0030242F0E4
:101B2800010222F0F0021B01DBB2134325F00A0286
:101B380001F00A0111438361016270BC70470126FC
:101B4800EAE70126E8E70126E6E70126E4E70126B9
:101B5800E2E70126E0E70126DEE70126DCE724F0DC
:101B680003042243DDE700BF0000014070B50446CE
:101B78000D46164603688D4A93422FD0B3F1804F25
:101B88002CD0A2F57C42934228D002F58062934281
:101B980024D002F58062934220D002F57842934225
:101BA8001CD002F57052934218D002F5806293421D
:101BB80014D002F58062934210D0A2F59832934275
:101BC8000CD002F58062934208D002F580629342FD
:101BD80004D040F6E7317648FFF7BAF82B6843B1EE
:101BE800022B06D00A2B04D040F6E8317048FFF7E4
:101BF800AFF86B68013B022B55D8AB6853B1042B87
:101C080008D0082B06D00C2B04D040F6EA316848DF
:101C1800FFF79EF8EB680F2B4BD894F83830012B60
:101C280000F0C180012384F83830022384F8393069
:101C3800002E44D0042E53D0082E00F0878023684D
:101C48005A4A934217D0B3F1804F14D0A2F57C4280
:101C5800934210D002F5806293420CD002F5806264
:101C6800934208D002F57842934204D040F62241CC
:101C78004F48FFF76DF8EB686A6829682068FFF736
:101C8800C2F82268D36923F44063D3612268D36918
:101C9800A96843EA0123D361012384F8393000207D
:101CA80084F8380070BD40F6E9314148FFF750F834
:101CB800A3E740F6EB313E48FFF74AF8ADE7EB689B
:101CC8006A6829682068FFF701FF2268936923F092
:101CD8000C03936122689369A9680B439361DBE75E
:101CE8002368324A93421FD0B3F1804F1CD0A2F52B
:101CF8007C42934218D002F58062934214D002F5D8
:101D08008062934210D002F5784293420CD002F5DB
:101D18007052934208D0A2F59432934204D040F610
:101D280002412348FFF714F8EB686A6829682068BD
:101D3800FFF722F82268936923F4406393612268CD
:101D48009369A96843EA01239361A5E72368174AC1
:101D5800934217D0B3F1804F14D0A2F57C4293423E
:101D680010D002F5806293420CD002F58062934253
:101D780008D002F57842934204D040F612410C484C
:101D8800FEF7E6FFEB686A6829682068FFF722F823
:101D98002268D36923F00C03D3612268D369A96848
:101DA8000B43D36178E7022070BD00BF00000140FB
:101DB800982B000870B504460D461646264B9842E7
:101DC8002FD0B0F1804F2CD0A3F57C43984228D077
:101DD80003F58063984224D003F58063984220D0AD
:101DE80003F5784398421CD003F57053984218D0F5
:101DF80003F58063984214D003F58063984210D0AD
:101E0800A3F5983398420CD003F58063984208D024
:101E180003F58063984204D041F28A210F48FEF707
:101E280097FF65B1042D0AD0082D08D00C2D06D0D7
:101E3800182D04D041F28B210848FEF789FF0123B1
:101E480003FA05F2236A23EA02032362236A06FAE5
:101E580005F51D43256270BD00000140982B000860
:101E680038B505460C4603683C4A934234D0B3F172
:101E7800804F31D0A2F57C4293422DD002F580628A
:101E8800934229D002F58062934225D002F5784228
:101E9800934221D0324A934227D0324A934229D0E2
:101EA800314A934229D0314A934229D0304A934249
:101EB8002BD0304A93422BD040F28D612E48FEF74A
:101EC80047FF0C2C2CD8DFE804F0262B2B2B372BC4
:101ED8002B2B3D2B2B2B4300002CF2D0042CF0D0C5
:101EE800082CEED00C2CD5D1EBE7002CE9D0042C33
:101EF800D3D1E6E7002CE4D0D2E7002CE1D0D2E73A
:101F0800002CDED0042CD1D1DBE7002CD9D0D0E7CF
:101F1800002CD6D0D0E72A68D36843F00203D360F8
:101F2800012221462868FFF745FF2A68136843F015
:101F380001031360002038BD2A68D36843F0040306
:101F4800D360EDE72A68D36843F00803D360E7E776
:101F58002A68D36843F01003D360E1E7000001402A
:101F68000040014000440140004801400018004082
:101F7800001C004000200040982B000800283AD0A0
:101F880038B5044602681D4B9A4203D0AF211C485D
:101F9800FEF7DEFE6368062B1ED8A368B3F5805FE4
:101FA8001FD223684CF6CC421A60236845F255527A
:101FB8001A60236862685A602368A2689A60FEF70C
:101FC80091F905462368DA6882B1FEF78BF9401B60
:101FD8003028F7D9032038BDB0210948FEF7B8FEEC
:101FE800DBE7B1210648FEF7B3FEDAE74AF6AA2294
:101FF8001A60002038BD0120704700BF0030004043
:10200800D02B000803684AF6AA221A6000207047FD
:102018007047FEE7FEE7FEE7FEE770477047704748
:1020280008B5FEF757F9FEF728FD08BD08B500F01A
:102038005BF908BD08B5FEF76BFB08BD704708B52E
:102048000120FEF70FFB08BD70B50F4E3046FFF7B5
:1020580006FB0E4C25686B1C23600C213046FFF7ED
:102068003BFA0B4B23F815002368012B0BD9084AC0
:10207800538812889B1A9BB2064A13600122064BAA
:102088001A600022226070BD640000202000002039
:10209800300000202C0000202800002038B504461D
:1020A8000D460B2824D8032D28D885B3012D30D010
:1020B800022D29D04FF44071174B1A6922F440724F
:1020C8001A611A690A431A611A6922F0F8021A6138
:1020D800F82292FAA2F2B2FA82F2944044F0020490
:1020E8001A6914431C611A6942F480321A6138BDB6
:1020F80040F2ED310948FEF72BFED4E740F2EE310D
:102108000648FEF725FED0E74FF40071D4E700211A
:10211800D2E74FF48071CFE7003C0240082C00085A
:10212800164B1B6813F4007F10D0144B1A6822F466
:1021380000721A601A6842F400621A601A6822F47F
:1021480000621A601A6842F400721A600B4B1B682E
:1021580013F4806F10D0094B1A6822F480621A6059
:102168001A6842F480521A601A6822F480521A607F
:102178001A6842F480621A60704700BF003C02404F
:1021880038B504460D460368334A93421FD0B3F16D
:10219800804F1CD0A2F57C42934218D002F5806291
:1021A800934214D002F58062934210D002F5806207
:1021B80093420CD002F58062934208D002F5704237
:1021C800934204D04FF4CB612448FEF7C1FD2B683D
:1021D80093B1102B10D0202B0ED0302B0CD0402BCD
:1021E8000AD0502B08D0602B06D0702B04D040F2B8
:1021F80059611A48FEF7ACFD6B68802B00D01BBBF9
:1022080094F83830012B25D0012284F83820022395
:1022180084F8393021684B6823F070034B602168DB
:102228004B68286803434B6021688B6823F0800360
:102238008B6021688B68686803438B6084F8392059
:10224800002084F8380038BD40F25A610348FEF790
:102258007FFDD5E7022038BD00000140442C00086E
:1022680038B590F83830012B34D00D460446012398
:1022780080F838300368B3F1804F0BD0164A934288
:1022880008D002F59E32934204D040F2BF61134851
:10229800FEF75EFDADB1B5F5806F12D0B5F5006FF4
:1022A8000FD0B5F5406F0CD0402D0AD0802D08D046
:1022B800C02D06D0022D04D04FF4D8610748FEF790
:1022C80047FD23681D65012384F83930002084F810
:1022D800380038BD022038BD000C0040442C0008EE
:1022E800704770477047000008B5064B5B6913F4E8
:1022F800803F00D108BDFFF7F5FF4FF48032014B56
:102308005A61F7E7003C014030B583B004460368E2
:102318000F2B3DD8236813F0010F4CD063684BB1E5
:10232800B3F5803F06D0B3F5A02F03D0F821AC4811
:10233800FEF70EFDAB4B9B6803F00C03042B31D06A
:10234800A84B9B6803F00C03082B26D06368B3F5F1
:10235800803F60D0B3F5A02F63D0A24B1A6822F457
:1023680080321A601A6822F480221A606368002B8F
:1023780061D0FDF7B7FF05469A4B1B6813F4003F81
:1023880019D1FDF7AFFF401B6428F5D9032000E2FF
:10239800F3219348FEF7DCFCBCE7924B5B6813F42F
:1023A800800FD3D08F4B1B6813F4003F03D06368B2
:1023B800002B00F0EB81236813F0020F6DD0E36867
:1023C800012B04D94FF495718548FEF7C1FC2369A8
:1023D8001F2B3FD8834B9B6813F00C0F45D0814BC4
:1023E8009B6803F00C03082B3AD0E368002B00F03D
:1023F800838001227C4B1A60FDF774FF0546794BF8
:102408001B6813F0020F68D1FDF76CFF401B022810
:10241800F5D90320BDE1734A136843F48033136090
:10242800A4E7704B1A6842F480221A601A6842F4D2
:1024380080321A609AE7FDF755FF0546694B1B681D
:1024480013F4003FB7D0FDF74DFF401B6428F5D9C2
:1024580003209EE140F22B116148FEF779FCB9E7B1
:10246800604B5B6813F4800FBFD15E4B1B6813F0A1
:10247800020F04D0E368012B01D0012089E15948FB
:10248800036823F0F8032169F82292FAA2F2B2FA5B
:1024980082F201FA02F213430360236813F0080F73
:1024A8004ED06369012B04D940F26B114C48FEF7FA
:1024B8004FFC636993B301224C4B1A60FDF712FF7E
:1024C8000546484B5B6F13F0020F39D1FDF70AFF41
:1024D800401B0228F5D903205BE14248036823F03A
:1024E800F8032169F82292FAA2F2B2FA82F201FA0A
:1024F80002F213430360D0E700223B4B1A60FDF75A
:10250800F1FE0546374B1B6813F0020FC5D0FDF7E7
:10251800E9FE401B0228F5D903203AE10022334B9B
:102528001A60FDF7DFFE05462E4B5B6F13F0020FB6
:1025380006D0FDF7D7FE401B0228F5D9032028E175
:10254800236813F0040F76D0A368012B06D9052B56
:1025580004D040F295112248FEF7FAFB00230193BC
:10256800204B1A6C42F080521A641B6C03F08053A3
:102578000193019B1E4A136843F480731360FDF7AF
:10258800B1FE05461A4B1B6813F4807F06D1FDF790
:10259800A9FE401B0228F5D90320FAE0A368012B05
:1025A80028D0052B2CD00F4B1A6F22F001021A6786
:1025B8001A6F22F004021A67A3685BB3FDF792FE54
:1025C8000546084B1B6F13F0020F34D1FDF78AFE46
:1025D800401B41F288339842F3D90320D9E000BF69
:1025E8007C2C00080038024000004742800E474219
:1025F80000700040694A136F43F001031367DBE77B
:10260800664B1A6F42F004021A671A6F42F0010211
:102618001A67D1E7FDF766FE0546604B1B6F13F09E
:10262800020F08D0FDF75EFE401B41F28833984246
:10263800F3D90320ADE0A369022B1FD8A369002BAF
:1026480000F0A680554A926802F00C02082A00F0B1
:10265800A280022B18D00022514B1A60FDF742FECF
:1026680004464E4B1B6813F0007F00F08D80FDF789
:1026780039FE001B0228F4D903208AE04FF4E571E3
:102688004848FEF765FBD9E7E3693BB1B3F5800F2E
:1026980004D040F2D3114348FEF75AFB236A3F2B7C
:1026A80028D8636A323BB3F5BF7F29D8A36A022BC7
:1026B8000AD0042B08D0062B06D0082B04D04FF4E0
:1026C800EB713848FEF744FBE36A023B0D2B1DD83B
:1026D8000022334B1A60FDF705FE05462F4B1B6899
:1026E80013F0007F18D0FDF7FDFD401B0228F5D937
:1026F80003204EE04FF4EA712A48FEF729FBD0E7A1
:1027080040F2D5112748FEF723FBCFE740F2D71157
:102718002448FEF71DFBDBE7E369226A1343616A7D
:1027280047F6C07292FAA2F2B2FA82F201FA02F203
:102738001343A26A5208013A4FF4403191FAA1F1C9
:10274800B1FA81F18A401343E16A4FF0706292FA5C
:10275800A2F2B2FA82F201FA02F213430F4A53606C
:1027680001220F4B1A60FDF7BDFD04460B4B1B6899
:1027780013F0007F06D1FDF7B5FD001B0228F5D93F
:10278800032006E0002004E0002002E0012000E031
:10279800002003B030BD0120FBE700BF0038024035
:1027A800600047427C2C0008214B9B6803F00C0317
:1027B800042B3AD0082B01D01E4870471C4B586890
:1027C80000F03F005B6813F4800F1ED01A4AB2FB7A
:1027D800F0F2174B586847F6C073184093FAA3F302
:1027E800B3FA83F3D84000FB02F0114B5B6803F4A3
:1027F80040334FF4403292FAA2F2B2FA82F2D34056
:1028080001335B00B0FBF3F070470A4AB2FBF0F209
:10281800074B586847F6C073184093FAA3F3B3FA06
:1028280083F3D84000FB02F0DFE70348704700BF9E
:10283800003802400024F40040787D0170B5044659
:102848000D460368013B0E2B11D8072D15D88A4B6E
:102858001B6803F00F039D4215D9EBB2864A13702B
:10286800136803F00F039D420DD0012070BD40F2A4
:1028780035218248FEF76CFAE7E740F236217F48B7
:10288800FEF766FAE3E7236813F0020F1DD0A3688A
:10289800A3B1802B12D0902B10D0A02B0ED0B02B30
:1028A8000CD0C02B0AD0D02B08D0E02B06D0F02BB0
:1028B80004D040F24D217148FEF74AFA704A9368F5
:1028C80023F0F003A1680B439360236813F0010F12
:1028D8006DD06368032B29D86368012B2CD09A1E0E
:1028E800012A30D9664A126812F0020F00F0C2803D
:1028F80063498A6822F0030213438B60FDF7F2FCF8
:1029080006466368012B25D0022B32D0032B3FD01B
:102918005B4B9B6813F00C0F49D0FDF7E3FC801B61
:1029280041F288339842F3D9032070BD4FF41571F2
:102938005248FEF70DFACFE7514A126812F4003FE9
:10294800D6D1012070BD4E4A126812F0007FCFD157
:10295800012070BD4A4B9B6803F00C03042B26D062
:10296800FDF7C0FC801B41F288339842F2D903205E
:1029780070BD434B9B6803F00C03082B17D0FDF781
:10298800B1FC801B41F288339842F2D9032070BD14
:102998003B4B9B6803F00C030C2B08D0FDF7A2FC03
:1029A800801B41F288339842F2D9032070BD324B24
:1029B8001B6803F00F039D4209D2EAB22E4B1A702E
:1029C8001B6803F00F039D4201D0012070BD2368EE
:1029D80013F0040F19D0E36883B1B3F5805F0DD00D
:1029E800B3F5A05F0AD0B3F5C05F07D0B3F5E05FD9
:1029F80004D040F2B2212148FEF7AAF9204A936890
:102A080023F4E053E1680B439360236813F0080F45
:102A18001AD0236983B1B3F5805F0DD0B3F5A05FF9
:102A28000AD0B3F5C05F07D0B3F5E05F04D040F239
:102A3800B9211248FEF78CF9114A936823F46043D0
:102A4800216943EAC1039360FFF7AEFE0C4B9B6814
:102A580003F0F003F02292FAA2F2B2FA82F2D34023
:102A6800084AD35CD840084B18600020FDF702FCE8
:102A7800002070BD012070BD003C02407C2C000885
:102A880000380240442B000800000020014B186861
:102A9800704700BF00000020DFF834D0002103E0B9
:102AA8000C4B5B58435004310B480C4B42189A426C
:102AB800F6D30B4A02E0002342F8043B094B9A4242
:102AC800F9D3FDF79FFEFDF7ADFBFEF7F5F870476C
:102AD80000000220BC2C0008000000200400002098
:102AE80004000020A0000020FEE70000F8B500BFA9
:102AF800F8BC08BC9E467047F8B500BFF8BC08BCD7
:042B08009E4670472E
:102B0C00447269766572732F53544D333246347860
:102B1C00785F48414C5F4472697665722F537263DB
:102B2C002F73746D3332663478785F68616C5F67CD
:102B3C0070696F2E630000000000000000000000B0
:102B4C000102030406070809447269766572732F43
:102B5C0053544D3332463478785F48414C5F44725D
:102B6C00697665722F5372632F73746D33326634CA
:102B7C0078785F68616C5F636F727465782E630040
:102B8C005372632F6D61696E2E6300004472697617
:102B9C006572732F53544D3332463478785F484105
:102BAC004C5F4472697665722F5372632F73746D28
:102BBC003332663478785F68616C5F74696D2E634C
:102BCC0000000000447269766572732F53544D33C4
:102BDC0032463478785F48414C5F4472697665724E
:102BEC002F5372632F73746D3332663478785F6849
:102BFC00616C5F697764672E6300000044726976CC
:102C0C006572732F53544D3332463478785F484194
:102C1C004C5F4472697665722F5372632F73746DB7
:102C2C003332663478785F68616C5F666C617368A8
:102C3C005F65782E63000000447269766572732FAD
:102C4C0053544D3332463478785F48414C5F44726C
:102C5C00697665722F5372632F73746D33326634D9
:102C6C0078785F68616C5F74696D5F65782E63005E
:102C7C00447269766572732F53544D3332463478EF
:102C8C00785F48414C5F4472697665722F5372636A
:102C9C002F73746D3332663478785F68616C5F7251
:082CAC0063632E6300000000C9
:042CB400F50100081E
:042CB800CD01000842
:042CBC000024F400FC
:0400000508002AA124
:00000001FF
