:020000040800F2
:1000000000000220F12B0008912200089522000830
:10001000A9220008AB220008AD2200080000000061
:10002000000000000000000000000000AF220008F7
:10003000B122000800000000B3220008B522000829
:10004000412C0008412C0008412C0008412C0008DC
:10005000412C0008412C0008C1220008412C000856
:10006000412C0008412C0008412C0008412C0008BC
:10007000412C0008412C0008412C0008412C0008AC
:10008000412C0008412C0008412C0008412C00089C
:10009000412C0008412C0008412C0008412C00088C
:1000A000412C0008412C0008412C0008412C00087C
:1000B000412C0008412C0008412C0008412C00086C
:1000C000412C0008412C0008412C0008412C00085C
:1000D000412C0008412C0008412C0008412C00084C
:1000E000412C0008412C0008412C0008412C00083C
:1000F000412C0008412C0008412C0008412C00082C
:10010000412C0008412C0008F5220008412C000871
:10011000412C0008412C0008412C0008412C00080B
:10012000412C0008412C0008412C0008412C0008FB
:10013000412C0008412C0008412C0008412C0008EB
:10014000412C0008412C0008412C0008412C0008DB
:10015000412C0008412C0008412C0008412C0008CB
:10016000412C0008412C0008412C0008412C0008BB
:10017000412C0008412C0008412C00080000000020
:08018000412C0008412C00088D
:10018800044B05481B1A062B02D9044B03B1184728
:10019800704700BF07000020040000200000000096
:1001A80005490648091A891001EBD171491002D096
:1001B800034B03B1184770470400002004000020D7
:1001C8000000000010B5064C237843B9FFF7D8FFAC
:1001D800044B13B10448AFF300800123237010BD12
:1001E8000400002000000000442C000808B5084B5B
:1001F8001BB108490848AFF300800848036813B9E1
:10020800BDE80840CCE7064B002BF9D09847F7E744
:100218000000000008000020442C00080400002012
:100228000000000070B50F4E0F4D761BB61018BFBA
:10023800002405D0013455F8043B9847A642F9D16B
:100248000A4E0B4D761B02F0F9FCB61018BF0024BD
:1002580006D0013455F8043B9847A642F9D170BD41
:1002680070BD00BFD82D0008D82D0008DC2D00086F
:10027800D82D000853B94AB9002908BF00281CBF67
:100288004FF0FF314FF0FF3000F07AB9ADF1080CB4
:100298006DE904CE00F006F8DDF804E0DDE902239C
:1002A80004B070472DE9F0478C460D460446089E79
:1002B800002B51D18A4217466DD9B2FA82FEBEF19F
:1002C800000F0BD0CEF1200C01FA0EF520FA0CFC31
:1002D80002FA0EF74CEA050C00FA0EF44FEA174A38
:1002E800250CBCFBFAF81FFA87F90AFB18CC45EA7B
:1002F8000C4508FB09F3AB420AD9ED1908F1FF32A6
:1003080080F02381AB4240F22081A8F102083D44ED
:10031800ED1AA4B2B5FBFAF00AFB105544EA0544FD
:1003280000FB09F9A14509D9E41900F1FF3380F070
:100338000A81A14540F2078102383C44A4EB090434
:1003480040EA08400021002E61D024FA0EF4002370
:1003580034607360BDE8F0878B4207D9002E54D013
:10036800002186E821000846BDE8F087B3FA83F14A
:10037800002940F08E80AB4202D3824200F2FA801C
:10038800841A65EB03050120AC46002E3FD086E8B1
:100398001010BDE8F08712B90127B7FBF2F7B7FADA
:1003A80087FEBEF1000F34D1EB1B3A0C1FFA87FC15
:1003B8000121B3FBF2F8250C02FB183345EA03458B
:1003C8000CFB08F3AB4207D9ED1908F1FF3002D254
:1003D800AB4200F2D1808046ED1AA3B2B5FBF2F031
:1003E80002FB105543EA05440CFB00FCA44507D961
:1003F800E41900F1FF3302D2A44500F2B880184690
:10040800A4EB0C0440EA08409DE731463046BDE8BD
:10041800F087CEF1200405FA0EF307FA0EF720FA5A
:1004280004F83A0C25FA04F448EA0308B4FBF2F19C
:100438004FEA184502FB11441FFA87FC45EA0445B8
:1004480001FB0CF3AB4200FA0EF409D9ED1901F1E6
:10045800FF3080F08A80AB4240F2878002393D4409
:10046800EB1A1FFA88F5B3FBF2F002FB103345EAEA
:10047800034500FB0CF3AB4207D9ED1900F1FF3837
:100488006FD2AB426DD902383D44EB1A40EA0141C4
:100498008FE7C1F1200722FA07F88B4005FA01F42B
:1004A80048EA030320FA07FE4FEA134CFD404EEAE0
:1004B800040EB5FBFCF94FEA1E440CFB19551FFA54
:1004C80083F844EA054509FB08F4AC4202FA01F254
:1004D80000FA01FA08D9ED1809F1FF3043D2AC420D
:1004E80041D9A9F102091D442D1B1FFA8EFEB5FB47
:1004F800FCF00CFB10554EEA054400FB08F8A0453B
:1005080007D9E41800F1FF3529D2A04527D90238C8
:100518001C4440EA0940A4EB0804A0FB02894C45AE
:10052800C6464D4615D312D056B1BAEB0E0364EB4E
:10053800050404FA07F7CB401F43CC4037607460CA
:100548000021BDE8F0871846F8E69046E0E6C24587
:10055800EAD2B8EB020E69EB03050138E4E7284656
:10056800D7E7404691E78146BEE7014678E702387B
:100578003C4445E7084608E7A8F102083D442BE754
:10058800704700BF10B50446074B1868074BA3FB1C
:100598000030800900F0EAFA002221464FF0FF30CF
:1005A80000F08AFA002010BD00000020D34D621030
:1005B80008B50B4B1A6842F400721A601A6842F4C4
:1005C80080621A601A6842F480721A60032000F090
:1005D80055FA0020FFF7D6FF00F000FA002008BD0A
:1005E800003C0240024A136801331360704700BFA1
:1005F80034000020014B1868704700BF3400002009
:1006080030B583B00190FFF7F5FF0546019CB4F1C2
:10061800FF3F00D00134FFF7EDFF401BA042FAD3A3
:1006280003B030BD2DE9F04782B080460F46B44B89
:10063800984223D003F5806398421FD003F5806366
:1006480098421BD003F58063984217D003F5806366
:10065800984213D003F5806398420FD003F5806366
:1006680098420BD003F58063984207D003F5806366
:10067800984203D0C321A34800F0A6FC3B689AB275
:1006880012B11B0C1B041BB1C4219E4800F09CFC3A
:100698007B68012B22D9112B20D0022B1ED0122BC4
:1006A8001CD0994A934219D002F58012934215D072
:1006B80002F58012934211D0A2F5F81293420DD0A0
:1006C80002F58012934209D002F58012934205D0B8
:1006D800032B03D0C5218B4800F076FCBB68022BA6
:1006E80001D8002575E0C621864800F06DFCF8E7C2
:1006F8003B69FBB1092B1DD0012B1BD0022B19D054
:10070800032B17D0042B15D0052B13D0062B11D093
:10071800072B0FD0082B0DD00A2B0BD00B2B09D091
:100728000C2B07D00D2B05D00F2B03D0D7217548E4
:1007380000F04AFCE908083158F8213005F00702B2
:1007480092000F20904023EA0003386900FA02F271
:10075800134348F821304CE0EA216A4800F034FCA1
:1007680063E0072100E00021A1400A430233674902
:1007780041F82320664B1A686FEA090302EA03016D
:10078800786810F4803F01D049EA0201604A11609C
:10079800526803EA0201786810F4003F01D049EA80
:1007A80002015B4A5160926803EA0201786810F41A
:1007B800801F01D049EA0201554A9160D26813406E
:1007C800796811F4001F01D049EA0203504AD36046
:1007D80001350F2D00F290800124AC403B6804EAFB
:1007E80003094C45F4D17B68022B81D0122B3FF4CE
:1007F8007FAFD8F800304FEA450A032606FA0AF612
:10080800F64333407A6802F0030202FA0AF213430D
:10081800C8F800307B685A1E012A03D9112B01D071
:10082800122B16D1FB68032B96D8D8F80830334022
:10083800FA6802FA0AF21343C8F80830D8F8043004
:1008480023EA04047B68C3F30013AB401C43C8F8D5
:100858000440D8F80C301E40BB6803FA0AF31E4364
:10086800C8F80C607B6813F0805FB1D00023019357
:10087800284B5A6C42F480425A645B6C03F4804300
:100888000193019BAB08991C204A52F8212005F0DE
:1008980003018C000F21A14022EA0102184880457B
:1008A8003FF461AF1C4988451AD001F5806188453D
:1008B80018D001F58061884516D001F5806188451A
:1008C80014D001F58061884512D001F58061884512
:1008D80010D001F5806188453FF443AF082143E714
:1008E800012141E702213FE703213DE704213BE7DE
:1008F800052139E7062137E702B0BDE8F08700BFD8
:10090800000002405C2C0008000011100038014073
:10091800003C0140003802400004024070B5064621
:1009280015460C4651B1012D04D94FF4D87107482A
:1009380000F04AFB45B92404B46170BD40F2AF1120
:10094800024800F041FBEEE7B46170BD5C2C000882
:1009580038B505460C4621B94FF4E371034800F059
:1009680033FB6B695C406C6138BD00BF5C2C0008D0
:100978007047000008B5054B5B69034200D108BD0C
:10098800024B5861FFF7F4FFF9E700BF003C014054
:100998000F49D1F8883043F47003C1F888300D4B03
:1009A8001A6842F001021A60002098601A6822F062
:1009B800847222F480321A60074A5A601A6822F454
:1009C80080221A60D8604FF000638B60704700BFC8
:1009D80000ED00E0003802401030002408B5032084
:1009E80000F04CF8002211466FF00B0000F064F89C
:1009F800002211466FF00A0000F05EF8002211464E
:100A08006FF0090000F058F8002211466FF004005A
:100A180000F052F8002211466FF0030000F04CF885
:100A2800002211466FF0010000F046F8002211463E
:100A38004FF0FF3000F040F808BD000002680E4B90
:100A48009A4200D0704700B583B00021019103F5A8
:100A58000B331A6C42F008021A641B6C03F008038B
:100A68000193019B0A46322000F026F8322000F05C
:100A780067F803B05DF804FB000C004010B50446AD
:100A8800C31E042B0FD80A4AD36823F4E0631B045F
:100A98001B0C240204F4E064234343F0BF6343F4D3
:100AA8000033D36010BDA221024800F08DFAEAE7B6
:100AB80000ED00E0AC2C000870B505460C46164663
:100AC8000F2A24D80F2C27D81A4BDB68C3F302232C
:100AD800C3F10702042A28BF0422191D062920D9B8
:100AE800033B012101FA02F2013A14409C4001FA49
:100AF80003F3013B33401C43002D14DB2401E4B213
:100B080005F1604505F5614585F8004370BDBA21DA
:100B1800094800F059FAD5E7BB21074800F054FA14
:100B2800D2E70023DDE705F00F052401E4B2034B0B
:100B38005C5570BD00ED00E0AC2C000814ED00E041
:100B480010B5041E09DB620904F01F04012303FA2F
:100B580004F4044B43F8224010BDCE21024800F0B3
:100B680033FAF0E700E100E0AC2C00080138B0F1FE
:100B7800807F0AD2064B5860F021064A82F823107B
:100B88000020986007221A6070470120704700BF54
:100B980010E000E000ED00E010B50446042800D0A5
:100BA80038B9042C0BD0094A136823F004031360E6
:100BB80010BD40F2D911064800F006FAF1E7034AE1
:100BC800136843F00403136010BD00BF10E000E099
:100BD800AC2C0008704708B5FFF7FCFF08BD000003
:100BE80070B588B0002401941A4B1A6B42F02002A9
:100BF8001A631A6B02F020020192019A02941A6B8E
:100C080042F001021A631B6B03F001030293029B7B
:100C1800114E22463C213046FFF780FE3C230393C9
:100C2800012504950594069403A93046FFF7FAFCBC
:100C380003950A4B0493059403A90948FFF7F2FCAE
:100C4800224621460620FFF737FF0620FFF778FFE8
:100C580008B070BD003802400014024000001110B6
:100C68000000024008B5012210210248FFF756FE95
:100C7800FEE700BF0014024008B50848084B0360AF
:100C88000023436040F6FF73836001F0B3FA00B9B4
:100C980008BDE1210348FFF7E5FF00BF3800002049
:100CA80000300040E42C000800B58BB02848294BE0
:100CB80003600023436083604FF6FF72C2600361E4
:100CC80000F054FF40BB0AA94FF4805341F8103D8F
:100CD8001F4800F063FA18BB1D4800F0BBFF18BBA3
:100CE80000230493059304A9194801F029FB00BBCC
:100CF8000023009301220192029303930C22694678
:100D0800134801F06FF8C8B94021114801F088FB79
:100D1800C8B90BB05DF804FBF5210F48FFF7A2FF37
:100D2800FB210D48FFF79EFF4FF480710A48FFF73B
:100D380099FF40F207110848FFF794FF4FF48871B4
:100D48000548FFF78FFF40F215110348FFF78AFFA8
:100D580044000020000C0040E42C000800B58BB0D3
:100D680001223F4B1A603F4B5B6F13F0020FFAD022
:100D78003D483E4B03600023436083604FF6FF729B
:100D8800C260036100F0F2FE002846D10AA94FF4C0
:100D9800805341F8103D344800F000FA002841D152
:100DA800314800F057FF002841D1002300930193F8
:100DB80069462D4801F0C4FA00283DD1002302936A
:100DC80001220392049305930C2202A9264801F0FC
:100DD80009F8002835D14021234801F021FB0028DB
:100DE80034D12148036800221A610C2101F074F9FA
:100DF800002830D11E4B1B68002BFBD000221D4B56
:100E08001A60194800F06CF901F0DEFE1A4B1B68F5
:100E1800B0FBF3F00BB05DF804FB40F26511174826
:100E2800FFF720FF40F26B111448FFF71BFF4FF448
:100E3800B8711248FFF716FF40F277110F48FFF715
:100E480011FF40F281110D48FFF70CFF40F28711A6
:100E58000A48FFF707FF4FF4C8710848FFF702FF79
:100E6800800E47420038024044000020000C004039
:100E780028000020200000202C000020E42C00087E
:100E880000B595B000230193234A116C41F08051BD
:100E98001164126C02F080520192019A02931F4A67
:100EA800116841F480411160126802F48042029294
:100EB800029A0A22089201220B9210210C910D929B
:100EC8000E9308A801F0EEFAF0B90F23039300215E
:100ED800049105910691079103A801F067FDB8B93F
:100EE80001F06CFE0E4BA3FB00308009FFF73EFEBD
:100EF8000420FFF751FE002211464FF0FF30FFF7A4
:100F0800DBFD15B05DF804FBBB210648FFF7AAFE20
:100F1800C9210448FFF7A6FE0038024000700040CF
:100F2800D34D6210E42C000808B5FFF741FBFFF72A
:100F3800A7FFFFF755FEFFF79FFEFFF7B5FE1C4B17
:100F48005B6F13F0005F28D0012208211948FFF7D2
:100F5800E5FC174A536F43F080735367FFF7FEFEB3
:100F6800154B18601548164A0260032242601B6838
:100F7800DB09836001F03EF9A8B904210D48FFF7A9
:100F8800E7FCF020FFF73CFB0C4801F077F900285C
:100F9800F3D098210B48FFF765FE00220821054889
:100FA800FFF7BCFCDAE786210648FFF75BFE00BFC7
:100FB80000380240001402402400002038000020BD
:100FC80000300040E42C0008704710B4036A046A3B
:100FD80024F001040462846924F0F00444EA021253
:100FE80023F00A030B43826103625DF8044B7047E8
:100FF80030B4046A24F0100404628469056A24F495
:10100800407444EA022222F470421B039BB21A4342
:1010180025F0A005090101F0A0010D4382610562D8
:1010280030BC704710B4036A23F01003036284696C
:10103800036A24F4704444EA023223F0A00343EA2A
:101048000113826103625DF8044B704730B4046A8F
:1010580024F480740462C469056A24F003042243FA
:1010680022F0F0021B01DBB21A4325F420650902C5
:1010780001F420610D43C261056230BC704730B491
:10108800046A24F480540462C469056A24F4407430
:1010980044EA022222F470421B039BB21A4325F44D
:1010A8002045090301F420410D43C261056230BCAB
:1010B8007047836823F0700341F007010B43836096
:1010C800704710B4846824F47F4442EA0323194328
:1010D8000C4384605DF8044B70477047704700000C
:1010E80010B5044603682B4A934237D0B3F1804FBA
:1010F80034D0A2F57C42934230D002F5806293420C
:101108002CD002F58062934228D002F58062934287
:1011180024D002F58062934220D002F570429342B7
:101128001CD002F57052934218D002F580629342A7
:1011380014D002F58062934210D0A2F598329342FF
:101148000CD002F58062934208D002F58062934287
:1011580004D040F215611048FFF736FF022384F8E7
:1011680039302368196A41F21112114208D1196AFB
:1011780040F24442114203D11A6822F001021A6077
:101188002046FFF7ABFF002084F8390084F83800C8
:1011980010BD00BF00000140F02C000838B590F8E1
:1011A8003830012B00F0CD820D460446012380F82B
:1011B8003830022380F839300B68B3F5805F16D0D9
:1011C800B3F5005F13D093B1102B10D0202B0ED0A5
:1011D800302B0CD0402B0AD0502B08D0602B06D0D7
:1011E800702B04D040F67771A848FFF7EDFE22680F
:1011F800936823F47F4323F0770393602B68402B95
:1012080000F0F8814AD9702B00F0448100F2A580E3
:10121800502B00F09481602B40F0318123689C4A68
:1012280093421FD0B3F1804F1CD0A2F57C42934269
:1012380018D002F58062934214D002F5806293427E
:1012480010D002F5784293420CD002F570529342C6
:1012580008D0A2F59432934204D040F6C4718B486A
:10126800FFF7B2FE6B68B3F5004F09D043B1022B0C
:1012780006D00A2B04D040F6C7718448FFF7A4FEB5
:10128800EB680F2B00F2B081EA6869682068FFF705
:10129800C9FE60212068FFF70CFFF0E0102B00F07A
:1012A800FE812ED9202B00F02382302B40F0E780DE
:1012B8002368774A93421FD0B3F1804F1CD0A2F520
:1012C8007C42934218D002F58062934214D002F512
:1012D8008062934210D002F5784293420CD002F516
:1012E8007052934208D0A2F59432934204D040F64B
:1012F800F2716648FFF768FE30212068FFF7D9FED3
:10130800BDE0002B40F0BB802368614A93421FD0A8
:10131800B3F1804F1CD0A2F57C42934218D002F55D
:101328008062934214D002F58062934210D002F595
:10133800784293420CD002F57052934208D0A2F53D
:101348009432934204D04FF47E615048FFF73CFE3C
:1013580000212068FFF7ADFE91E0B3F5805F4DD026
:10136800B3F5005F40F08B802368494A934217D059
:10137800B3F1804F14D0A2F57C42934210D002F50D
:10138800806293420CD002F58062934208D002F545
:101398007842934204D040F6A4713C48FFF714FE0B
:1013A8006B68B3F5004F09D043B1022B06D00A2B66
:1013B80004D040F6A6713548FFF706FEAB686BB15E
:1013C800B3F5805F0AD0B3F5005F07D0B3F5405F8F
:1013D80004D040F6A7712D48FFF7F6FDEB680F2BF8
:1013E80000F2A780EB686A68A9682068FFF769FEC1
:1013F8002268936843F48043936040E02368244A5A
:10140800934237D0B3F1804F34D0A2F57C42934257
:1014180030D002F5806293422CD002F5806293426C
:1014280028D002F58062934224D002F5806293426C
:1014380020D002F5704293421CD002F570529342BC
:1014480018D002F58062934214D002F5806293426C
:1014580010D0A2F5983293420CD002F580629342E4
:1014680008D002F58062934204D040F683710748A1
:10147800FFF7AAFD2268936823F00703936001230E
:1014880084F83930002084F8380038BDF02C000882
:10149800000001402368AC4A934217D0B3F1804F53
:1014A80014D0A2F57C42934210D002F58062934298
:1014B8000CD002F58062934208D002F5784293423C
:1014C80004D040F68C71A148FFF77EFD6B68B3F538
:1014D800004F09D043B1022B06D00A2B04D040F6A6
:1014E8008E719A48FFF770FDAB686BB1B3F5805FFA
:1014F8000AD0B3F5005F07D0B3F5405F04D040F6DB
:101508008F719248FFF760FDEB680F2B0BD8EB68E3
:101518006A68A9682068FFF7D4FD2268936843F0D9
:1015280077039360ABE74FF479618848FFF74CFD88
:10153800EDE740F6A8718548FFF746FD52E72368B6
:10154800814A93422FD0B3F1804F2CD0A2F57C4230
:10155800934228D002F58062934224D002F580623B
:10156800934220D002F5784293421CD002F5705283
:10157800934218D002F58062934214D002F580623B
:10158800934210D0A2F5983293420CD002F58062B3
:10159800934208D002F58062934204D040F6B671B7
:1015A8006A48FFF711FD6B68B3F5004F09D043B1E6
:1015B800022B06D00A2B04D040F6B9716348FFF716
:1015C80003FDEB680F2B09D8EA6869682068FFF704
:1015D800FCFC50212068FFF76CFD50E740F6BA711B
:1015E8005A48FFF7F1FCEFE740F6C8715748FFF794
:1015F800EBFC49E62368544A93422FD0B3F1804F5D
:101608002CD0A2F57C42934228D002F58062934206
:1016180024D002F58062934220D002F578429342AA
:101628001CD002F57052934218D002F580629342A2
:1016380014D002F58062934210D0A2F598329342FA
:101648000CD002F58062934208D002F58062934282
:1016580004D040F6D2713D48FFF7B6FC6B68B3F58D
:10166800004F09D043B1022B06D00A2B04D040F614
:10167800D5713648FFF7A8FCEB680F2B09D8EA6844
:1016880069682068FFF7A1FC40212068FFF711FD79
:10169800F5E640F6D6712D48FFF796FCEFE723688C
:1016A800294A93421FD0B3F1804F1CD0A2F57C4247
:1016B800934218D002F58062934214D002F58062FA
:1016C800934210D002F5784293420CD002F5705242
:1016D800934208D0A2F59432934204D040F6E671C2
:1016E8001A48FFF771FC10212068FFF7E2FCC6E6F4
:1016F8002368154A93421FD0B3F1804F1CD0A2F53E
:101708007C42934218D002F58062934214D002F5CD
:101718008062934210D002F5784293420CD002F5D1
:101728007052934208D0A2F59432934204D040F606
:10173800EC710648FFF748FC20212068FFF7B9FC48
:101748009DE6022038BD00BF00000140F02C0008D3
:1017580090F83830012B00F0B28010B50446012310
:1017680080F838300C2900F2A880DFE801F007A6DD
:10177800A6A641A6A6A668A6A6A687000368514AFB
:1017880093422FD0B3F1804F2CD0A2F57C429342E4
:1017980028D002F58062934224D002F580629342F9
:1017A80020D002F5784293421CD002F57052934241
:1017B80018D002F58062934214D002F580629342F9
:1017C80010D0A2F5983293420CD002F58062934271
:1017D80008D002F58062934204D041F284013A486D
:1017E800FFF7F2FB2368586B002384F8383010BDEC
:1017F8000368344A93421FD0B3F1804F1CD0A2F53E
:101808007C42934218D002F58062934214D002F5CC
:101818008062934210D002F5784293420CD002F5D0
:101828007052934208D0A2F59432934204D041F208
:101838008E012548FFF7C8FB2368986BD4E7036837
:10184800204A934217D0B3F1804F14D0A2F57C42BE
:10185800934210D002F5806293420CD002F5806268
:10186800934208D002F57842934204D041F299019C
:101878001548FFF7A9FB2368D86BB5E70368114A39
:10188800934217D0B3F1804F14D0A2F57C42934213
:1018980010D002F5806293420CD002F58062934228
:1018A80008D002F57842934204D041F2A4010648D8
:1018B800FFF78AFB2368186C96E7002094E702205C
:1018C800704700BF00000140F02C000870477047C7
:1018D80070477047704710B5044603681A6912F0DC
:1018E800020F11D0DA6812F0020F0DD06FF0020269
:1018F8001A610123037603689B6913F0030F70D004
:10190800FFF7E6FF0023237623681A6912F0040F15
:1019180012D0DA6812F0040F0ED06FF004021A61C8
:101928000223237623689B6913F4407F5FD0204607
:10193800FFF7CEFF0023237623681A6912F0080FF9
:1019480012D0DA6812F0080F0ED06FF008021A6190
:10195800042323762368DB6913F0030F4ED0204657
:10196800FFF7B6FF0023237623681A6912F0100FD9
:1019780012D0DA6812F0100F0ED06FF010021A6150
:10198800082323762368DB6913F4407F3DD0204683
:10199800FFF79EFF0023237623681A6912F0010FD0
:1019A80003D0DA6812F0010F36D123681A6912F0F1
:1019B800800F03D0DA6812F0800F34D123681A69D7
:1019C80012F0400F03D0DA6812F0400F32D12368CA
:1019D8001A6912F0200F03D0DA6812F0200F30D104
:1019E80010BDFFF774FF2046FFF773FF8AE7204614
:1019F800FFF76DFF2046FFF76CFF9BE72046FFF7D8
:101A080066FF2046FFF765FFACE72046FFF75FFF5C
:101A18002046FFF75EFFBDE76FF001021A6120461E
:101A2800FFF754FFC1E76FF080021A61204600F00B
:101A380038FDC3E76FF040021A612046FFF74AFFFE
:101A4800C5E76FF020021A61204600F029FDC7E7BC
:101A58000368454A90424AD0B0F1804F49D0A2F578
:101A68007C42904247D002F58062904245D002F510
:101A78008062904243D002F57842904235D00022ED
:101A88001AB123F070034A681343374A90423AD098
:101A9800B0F1804F50D0A2F57C4290424ED002F572
:101AA800806290424CD002F5806290424AD002F5A2
:101AB8007842904248D002F57052904246D002F5E2
:101AC8008062904244D002F58062904242D0A2F5F2
:101AD8009832904240D002F5806290423ED002F5A2
:101AE800806290420DD000220EE00122C8E7012258
:101AF800C6E70122C4E70122C2E70122C0E70122AA
:101B0800BEE7012200E001221AB123F44073CA683B
:101B1800134303608B68C3620B688362124B98425D
:101B280020D003F5806398421AD000230BB10B69CB
:101B380003630123436170470122E5E70122E3E7DC
:101B48000122E1E70122DFE70122DDE70122DBE7ED
:101B58000122D9E70122D7E70122D5E70122D3E7FD
:101B68000123E3E70123E1E70000014000286BD0EF
:101B780010B504460368354A934236D0B3F1804F16
:101B880033D0A2F57C4293422FD002F58062934273
:101B98002BD002F58062934227D002F580629342EF
:101BA80023D002F5806293421FD002F5704293421F
:101BB8001BD002F57052934217D002F5806293420F
:101BC80013D002F5806293420FD0A2F59832934267
:101BD8000BD002F58062934207D002F580629342EF
:101BE80003D0D7211A48FFF7EFF9A3685BB1102B90
:101BF80009D0202B07D0402B05D0602B03D0D8214B
:101C08001348FFF7E1F923694BB1B3F5807F06D09C
:101C1800B3F5007F03D0D9210D48FFF7D5F994F823
:101C280039305BB1022384F83930211D2068FFF771
:101C38000FFF012384F83930002010BD84F83830B4
:101C48002046FEF7FBFEEDE701207047000001404B
:101C5800F02C000800286ED010B504460368374AF7
:101C6800934237D0B3F1804F34D0A2F57C429342EF
:101C780030D002F5806293422CD002F58062934204
:101C880028D002F58062934224D002F58062934204
:101C980020D002F5704293421CD002F57052934254
:101CA80018D002F58062934214D002F58062934204
:101CB80010D0A2F5983293420CD002F5806293427C
:101CC80008D002F58062934204D040F2F4511C48D7
:101CD800FFF77AF9A36863B1102B0AD0202B08D03C
:101CE800402B06D0602B04D040F2F5511448FFF782
:101CF8006BF9236953B1B3F5807F07D0B3F5007F43
:101D080004D040F2F6510E48FFF75EF994F83930E6
:101D18005BB1022384F83930211D2068FFF798FE53
:101D2800012384F83930002010BD84F8383020466B
:101D3800FFF7D3F9EDE70120704700BF000001402D
:101D4800F02C000870B4046A24F001040462846969
:101D5800056A234EB04230D0B0F1804F2FD0A6F59F
:101D68007C46B0422DD006F58066B0422BD006F5F1
:101D78008066B04229D006F57846B04227D006F5ED
:101D88007056B04225D0A6F59436B04213D000263E
:101D98000EBB24F0030242F0010222F0F0021B0104
:101DA800DBB2134325F00A0201F00A0111438361F3
:101DB800016270BC70470126EAE70126E8E70126C0
:101DC800E6E70126E4E70126E2E70126E0E7012647
:101DD800DEE70126DCE724F003042243DDE700BF49
:101DE8000000014070B504460D46164603688D4A4A
:101DF80093422FD0B3F1804F2CD0A2F57C4293426E
:101E080028D002F58062934224D002F58062934282
:101E180020D002F5784293421CD002F570529342CA
:101E280018D002F58062934214D002F58062934282
:101E380010D0A2F5983293420CD002F580629342FA
:101E480008D002F58062934204D040F6E531764826
:101E5800FFF7BAF82B6843B1022B06D00A2B04D03F
:101E680040F6E6317048FFF7AFF86B68013B022B8C
:101E780055D8AB6853B1042B08D0082B06D00C2BCF
:101E880004D040F6E8316848FFF79EF8EB680F2B5E
:101E98004BD894F83830012B00F0C180012384F826
:101EA8003830022384F83930002E44D0042E53D021
:101EB800082E00F0878023685A4A934217D0B3F15E
:101EC800804F14D0A2F57C42934210D002F5806274
:101ED80093420CD002F58062934208D002F5784212
:101EE800934204D04FF442614F48FFF76DF8EB6816
:101EF8006A6829682068FFF7C2F82268D36923F462
:101F08004063D3612268D369A96843EA0123D36196
:101F1800012384F83930002084F8380070BD40F679
:101F2800E7314148FFF750F8A3E740F6E9313E486A
:101F3800FFF74AF8ADE7EB686A6829682068FFF799
:101F480001FF2268936923F00C0393612268936967
:101F5800A9680B439361DBE72368324A93421FD099
:101F6800B3F1804F1CD0A2F57C42934218D002F501
:101F78008062934214D002F58062934210D002F539
:101F8800784293420CD002F57052934208D0A2F5E1
:101F98009432934204D04FF440612348FFF714F879
:101FA800EB686A6829682068FFF722F82268936955
:101FB80023F44063936122689369A96843EA012383
:101FC8009361A5E72368174A934217D0B3F1804F6E
:101FD80014D0A2F57C42934210D002F5806293425D
:101FE8000CD002F58062934208D002F57842934201
:101FF80004D04FF441610C48FEF7E6FFEB686A68CD
:1020080029682068FFF722F82268D36923F00C03B7
:10201800D3612268D369A9680B43D36178E70220AA
:1020280070BD00BF00000140F02C000870B50446E8
:102038000D461646264B98422FD0B0F1804F2CD033
:10204800A3F57C43984228D003F58063984224D0B6
:1020580003F58063984220D003F5784398421CD05A
:1020680003F57053984218D003F58063984214D052
:1020780003F58063984210D0A3F5983398420CD0AA
:1020880003F58063984208D003F58063984204D032
:1020980041F288210F48FEF797FF65B1042D0AD059
:1020A800082D08D00C2D06D0182D04D041F2892116
:1020B8000848FEF789FF012303FA05F2236A23EA99
:1020C80002032362236A06FA05F51D43256270BDE3
:1020D80000000140F02C000838B505460C4603689E
:1020E8003C4A934234D0B3F1804F31D0A2F57C42C0
:1020F80093422DD002F58062934229D002F5806286
:10210800934225D002F57842934221D0324A934235
:1021180027D0324A934229D0314A934229D0314AB2
:10212800934229D0304A93422BD0304A93422BD045
:1021380040F28B612E48FEF747FF0C2C2CD8DFE8C5
:1021480004F0262B2B2B372B2B2B3D2B2B2B430033
:10215800002CF2D0042CF0D0082CEED00C2CD5D1C9
:10216800EBE7002CE9D0042CD3D1E6E7002CE4D02F
:10217800D2E7002CE1D0D2E7002CDED0042CD1D15C
:10218800DBE7002CD9D0D0E7002CD6D0D0E72A68DE
:10219800D36843F00203D360012221462868FFF781
:1021A80045FF2A68136843F001031360002038BD17
:1021B8002A68D36843F00403D360EDE72A68D3683C
:1021C80043F00803D360E7E72A68D36843F01003B5
:1021D800D360E1E7000001400040014000440140B5
:1021E8000048014000180040001C0040002000404A
:1021F800F02C000800283AD038B5044602681D4B78
:102208009A4203D0AD211C48FEF7DEFE6368062B18
:102218001ED8A368B3F5805F1FD223684CF6CC4262
:102228001A60236845F255521A60236862685A603A
:102238002368A2689A60FEF7DDF905462368DA6824
:1022480082B1FEF7D7F9401B3028F7D9032038BDF3
:10225800AE210948FEF7B8FEDBE7AF210648FEF7D6
:10226800B3FEDAE74AF6AA221A60002038BD012038
:10227800704700BF00300040282D000803684AF668
:10228800AA221A60002070477047000008B5012292
:1022980020210248FEF742FBFEE700BF001402407F
:1022A800FEE7FEE7FEE770477047704708B5FEF7A0
:1022B80099F9FEF790FC08BD08B5094B5B6913F066
:1022C800010F03D10120FEF755FB08BD00220421B0
:1022D8000448FEF723FBFF22034B1A60F2E700BF16
:1022E800003C014000140240001000A070B50F4EE1
:1022F8003046FFF7F0FA0E4C25686B1C23600C2162
:102308003046FFF725FA0B4B23F815002368012BFD
:102318000BD9084A538812889B1A9BB2064A136045
:102328000122064B1A600022226070BD4400002082
:1023380020000020300000202C0000202800002071
:1023480038B504460D460368334A93421FD0B3F1AB
:10235800804F1CD0A2F57C42934218D002F58062CF
:10236800934214D002F58062934210D002F5806245
:1023780093420CD002F58062934208D002F5704275
:10238800934204D040F24A612448FEF71DFE2B68B0
:1023980093B1102B10D0202B0ED0302B0CD0402B0B
:1023A8000AD0502B08D0602B06D0702B04D040F2F6
:1023B8004B611A48FEF708FE6B68802B00D01BBBE8
:1023C80094F83830012B25D0012284F838200223D4
:1023D80084F8393021684B6823F070034B6021681A
:1023E8004B68286803434B6021688B6823F080039F
:1023F8008B6021688B68686803438B6084F8392098
:10240800002084F8380038BD40F24C610348FEF7DC
:10241800DBFDD5E7022038BD00000140602D000833
:1024280038B590F83830012B34D00D4604460123D6
:1024380080F838300368B3F1804F0BD0164A9342C6
:1024480008D002F59E32934204D040F2B16113489D
:10245800FEF7BAFDADB1B5F5806F12D0B5F5006FD6
:102468000FD0B5F5406F0CD0402D0AD0802D08D084
:10247800C02D06D0022D04D040F2B2610748FEF705
:10248800A3FD23681D65012384F83930002084F8F2
:10249800380038BD022038BD000C0040602D00080F
:1024A80070477047002800F0208230B583B004469A
:1024B80003680F2B3DD8236813F0010F4CD06368D5
:1024C8004BB1B3F5803F06D0B3F5A02F03D0FD2163
:1024D800A848FEF779FDA84B9B6803F00C03042B72
:1024E80031D0A54B9B6803F00C03082B26D06368FA
:1024F800B3F5803F5FD0B3F5A02F62D09E4B1A682A
:1025080022F480321A601A6822F480221A60636802
:10251800002B60D0FEF76EF80546974B1B6813F446
:10252800003F19D1FEF766F8401B6428F5D903204F
:10253800E0E1F8218F48FEF747FDBCE78E4B5B686A
:1025480013F4800FD3D08C4B1B6813F4003F03D0D7
:102558006368002B00F0CB81236813F0020F66D06C
:10256800E368012B04D940F22F118248FEF72CFDB5
:1025780023691F2B3ED8804B9B6813F00C0F44D067
:102588007D4B9B6803F00C03082B39D0E368002BC4
:1025980076D00122794B1A60FEF72CF80546764B67
:1025A8001B6813F0020F62D1FEF724F8401B0228C3
:1025B800F5D903209EE1704A136843F48033136011
:1025C800A5E76D4B1A6842F480221A601A6842F433
:1025D80080321A609BE7FEF70DF80546664B1B68CC
:1025E80013F4003FB8D0FEF705F8401B6428F5D96E
:1025F80003207FE14FF498715E48FEF7E5FCBAE7E7
:102608005D4B5B6813F4800FC0D15B4B1B6813F004
:10261800020F04D0E368012B01D001206AE1564A79
:10262800136823F0F803216943EAC10313602368A0
:1026380013F0080F48D06369012B04D94FF4B8711F
:102648004C48FEF7C1FC636963B301224C4B1A6026
:10265800FDF7D0FF0546484B5B6F13F0020F33D1EF
:10266800FDF7C8FF401B0228F5D9032042E1424A82
:10267800136823F0F803216943EAC1031360D6E71E
:1026880000223E4B1A60FDF7B5FF05463A4B1B6822
:1026980013F0020FCBD0FDF7ADFF401B0228F5D990
:1026A800032027E10022364B1A60FDF7A3FF0546F9
:1026B800314B5B6F13F0020F06D0FDF79BFF401BF9
:1026C8000228F5D9032015E1236813F0040F76D00A
:1026D800A368012B06D9052B04D04FF4CD712548EA
:1026E800FEF772FC00230193234B1A6C42F08052D0
:1026F8001A641B6C03F080530193019B214A1368F1
:1027080043F480731360FDF775FF05461D4B1B6886
:1027180013F4807F06D1FDF76DFF401B0228F5D921
:102728000320E7E0A368012B1DD0052B2CD0124B0A
:102738001A6F22F001021A671A6F22F004021A6750
:10274800A3685BB3FDF756FF05460B4B1B6F13F0F1
:10275800020F34D1FDF74EFF401B41F288339842F7
:10276800F3D90320C6E0044A136F43F0010313674B
:10277800E6E700BF982D00080038024000004742F5
:10278800800E4742007000405C4B1A6F42F0040212
:102798001A671A6F42F001021A67D1E7FDF72AFF9C
:1027A8000546564B1B6F13F0020F08D0FDF722FFAA
:1027B800401B41F288339842F3D903209AE0A36979
:1027C800022B1ED8A369002B00F093804B4A926815
:1027D80002F00C02082A00F08F80022B17D000228A
:1027E800474B1A60FDF706FF0446444B1B6813F07D
:1027F800007F78D0FDF7FEFE001B0228F5D90320E4
:1028080078E040F2CF113F48FEF7DEFBDAE7E369F4
:102818003BB1B3F5800F04D04FF4EC713948FEF7A3
:10282800D3FB236A3F2B28D8636A323BB3F5BF7FBB
:1028380029D8A36A022B0AD0042B08D0062B06D06D
:10284800082B04D040F2DB112E48FEF7BDFBE36AEB
:10285800023B0D2B1DD80022294B1A60FDF7CAFE3A
:102868000546264B1B6813F0007F18D0FDF7C2FE03
:10287800401B0228F5D903203CE040F2D911214839
:10288800FEF7A2FBD0E74FF4ED711E48FEF79CFB64
:10289800CFE74FF4EE711B48FEF796FBDBE7E369E1
:1028A800226A1343626A43EA8213A26A5208013A0F
:1028B80043EA0243E26A43EA0263104A5360012290
:1028C8000F4B1A60FDF796FE04460C4B1B6813F07D
:1028D800007F06D1FDF78EFE001B0228F5D90320E4
:1028E80008E0002006E0002004E0012070470120F5
:1028F80000E0002003B030BD0120FBE700380240B3
:1029080060004742982D0008F8B5254B9B6803F0F6
:102918000C03042B41D0082B01D02248F8BD204BD2
:102928005A6802F03F025B6813F4800F12D01C4B08
:102938005968C1F3881100231B48A1FB0001FDF76A
:1029480099FC174B5B68C3F3014301335B00B0FB91
:10295800F3F0F8BD124B5B68C3F388131E460027DB
:102968005C010025E41A65EB0705A90141EA9461B9
:10297800A001001B61EB0501CB0043EA5073C400C2
:10298800A01943EB07018B0243EA905384022046C7
:1029980019460023FDF76EFCD3E70348F8BD00BFD6
:1029A800003802400024F40040787D01002800F03F
:1029B800F68070B504460D460368013B0E2B11D80E
:1029C800072D15D8784B1B6803F00F039D4215D9C6
:1029D800EBB2754A1370136803F00F039D420DD0D4
:1029E800012070BD4FF410717048FEF7EDFAE7E76B
:1029F80040F241216D48FEF7E7FAE3E7236813F058
:102A0800020F2ED013F0040F04D0694A936843F4E0
:102A1800E0539360236813F0080F04D0644A936866
:102A280043F460439360A368A3B1802B12D0902B2A
:102A380010D0A02B0ED0B02B0CD0C02B0AD0D02B8E
:102A480008D0E02B06D0F02B04D04FF4197157486A
:102A5800FEF7BAFA564A936823F0F003A1680B43CD
:102A68009360236813F0010F3CD06368032B25D8CB
:102A78006368012B28D09A1E012A2CD94C4A126867
:102A880012F0020F00F08D8049498A6822F0030293
:102A980013438B60FDF7AEFD0646454B9B6803F07C
:102AA8000C036268B3EB820F1CD0FDF7A3FD801BFB
:102AB80041F288339842F0D9032070BD40F26B216F
:102AC8003A48FEF781FAD3E7394A126812F4003F10
:102AD800DAD1012070BD364A126812F0007FD3D1D6
:102AE800012070BD304B1B6803F00F039D4209D2D3
:102AF800EAB22D4B1A701B6803F00F039D4201D0F8
:102B0800012070BD236813F0040F19D0E36883B166
:102B1800B3F5805F0DD0B3F5A05F0AD0B3F5C05F01
:102B280007D0B3F5E05F04D040F2A9211F48FEF7B3
:102B38004BFA1F4A936823F4E053E1680B43936010
:102B4800236813F0080F1AD0236983B1B3F5805FA7
:102B58000DD0B3F5A05F0AD0B3F5C05F07D0B3F5C9
:102B6800E05F04D04FF42C711048FEF72DFA104A9C
:102B7800936823F46043216943EAC1039360FFF734
:102B8800C3FE0B4B9B68C3F303130A4AD35CD840BC
:102B9800094B18600020FDF7F5FC002070BD0120EE
:102BA8007047012070BD00BF003C0240982D00080E
:102BB80000380240942C000800000020014B1868DF
:102BC800704700BF0000002008B5FFF7F7FF044B6F
:102BD8009B68C3F38223034AD35CD84008BD00BF77
:102BE80000380240A42C0008DFF834D0002103E0AC
:102BF8000C4B5B58435004310B480C4B42189A421B
:102C0800F6D30B4A02E0002342F8043B094B9A42F0
:102C1800F9D3FDF7BDFEFDF705FBFEF785F9704713
:102C280000000220E02D0008000000200400002021
:102C38000400002080000020FEE70000F8B500BF77
:102C4800F8BC08BC9E467047F8B500BFF8BC08BC85
:042C58009E467047DD
:102C5C00447269766572732F53544D33324634780F
:102C6C00785F48414C5F4472697665722F5372638A
:102C7C002F73746D3332663478785F68616C5F677C
:102C8C0070696F2E6300000000000000000000005F
:102C9C0001020304060708090000000001020304F6
:102CAC00447269766572732F53544D3332463478BF
:102CBC00785F48414C5F4472697665722F5372633A
:102CCC002F73746D3332663478785F68616C5F6330
:102CDC006F727465782E63005372632F6D61696E29
:102CEC002E630000447269766572732F53544D3312
:102CFC0032463478785F48414C5F4472697665722D
:102D0C002F5372632F73746D3332663478785F6827
:102D1C00616C5F74696D2E6300000000447269760B
:102D2C006572732F53544D3332463478785F484173
:102D3C004C5F4472697665722F5372632F73746D96
:102D4C003332663478785F68616C5F697764672EBC
:102D5C0063000000447269766572732F53544D33CF
:102D6C0032463478785F48414C5F447269766572BC
:102D7C002F5372632F73746D3332663478785F68B7
:102D8C00616C5F74696D5F65782E6300447269765F
:102D9C006572732F53544D3332463478785F484103
:102DAC004C5F4472697665722F5372632F73746D26
:102DBC003332663478785F68616C5F7263632E635C
:042DCC000000000003
:082DD000DCD4FF7F01000000CC
:042DD800F5010008F9
:042DDC00CD0100081D
:042DE0000024F400D7
:0400000508002BF1D3
:00000001FF
